{
  "_format": "hh-sol-artifact-1",
  "contractName": "AmplifyPriceOracle",
  "sourceName": "contracts/AmplifyPriceOracle.sol",
  "abi": [
    {
      "inputs": [],
      "stateMutability": "nonpayable",
      "type": "constructor"
    },
    {
      "anonymous": false,
      "inputs": [
        {
          "indexed": true,
          "internalType": "address",
          "name": "pair",
          "type": "address"
        },
        {
          "indexed": false,
          "internalType": "uint256",
          "name": "priceCumulative",
          "type": "uint256"
        },
        {
          "indexed": false,
          "internalType": "uint32",
          "name": "blockTimestamp",
          "type": "uint32"
        },
        {
          "indexed": false,
          "internalType": "bool",
          "name": "latestIsSlotA",
          "type": "bool"
        }
      ],
      "name": "PriceUpdate",
      "type": "event"
    },
    {
      "inputs": [],
      "name": "MIN_T",
      "outputs": [
        {
          "internalType": "uint32",
          "name": "",
          "type": "uint32"
        }
      ],
      "stateMutability": "view",
      "type": "function"
    },
    {
      "inputs": [],
      "name": "getBlockTimestamp",
      "outputs": [
        {
          "internalType": "uint32",
          "name": "",
          "type": "uint32"
        }
      ],
      "stateMutability": "view",
      "type": "function"
    },
    {
      "inputs": [
        {
          "internalType": "address",
          "name": "",
          "type": "address"
        }
      ],
      "name": "getPair",
      "outputs": [
        {
          "internalType": "uint256",
          "name": "priceCumulativeSlotA",
          "type": "uint256"
        },
        {
          "internalType": "uint256",
          "name": "priceCumulativeSlotB",
          "type": "uint256"
        },
        {
          "internalType": "uint32",
          "name": "lastUpdateSlotA",
          "type": "uint32"
        },
        {
          "internalType": "uint32",
          "name": "lastUpdateSlotB",
          "type": "uint32"
        },
        {
          "internalType": "bool",
          "name": "latestIsSlotA",
          "type": "bool"
        },
        {
          "internalType": "bool",
          "name": "initialized",
          "type": "bool"
        }
      ],
      "stateMutability": "view",
      "type": "function"
    },
    {
      "inputs": [
        {
          "internalType": "address",
          "name": "uniswapV2Pair",
          "type": "address"
        }
      ],
      "name": "getResult",
      "outputs": [
        {
          "internalType": "uint224",
          "name": "price",
          "type": "uint224"
        },
        {
          "internalType": "uint32",
          "name": "T",
          "type": "uint32"
        }
      ],
      "stateMutability": "nonpayable",
      "type": "function"
    },
    {
      "inputs": [
        {
          "internalType": "address",
          "name": "uniswapV2Pair",
          "type": "address"
        }
      ],
      "name": "getResultStale",
      "outputs": [
        {
          "internalType": "uint224",
          "name": "price",
          "type": "uint224"
        },
        {
          "internalType": "uint32",
          "name": "T",
          "type": "uint32"
        }
      ],
      "stateMutability": "view",
      "type": "function"
    },
    {
      "inputs": [
        {
          "internalType": "address",
          "name": "uniswapV2Pair",
          "type": "address"
        }
      ],
      "name": "initialize",
      "outputs": [],
      "stateMutability": "nonpayable",
      "type": "function"
    }
  ],
  "bytecode": "0x608060405234801561001057600080fd5b50610b50806100206000396000f3fe608060405234801561001057600080fd5b50600436106100625760003560e01c80631a788a0214610067578063410d1f28146100ff578063446a37e014610136578063796b89b914610149578063c4d66de814610166578063f51b55311461017b575b600080fd5b6100bf61007536600461090d565b60006020819052908152604090208054600182015460029092015490919063ffffffff8082169164010000000081049091169060ff600160401b8204811691600160481b90041686565b60408051968752602087019590955263ffffffff938416948601949094529116606084015215156080830152151560a082015260c0015b60405180910390f35b61011261010d36600461090d565b610184565b604080516001600160e01b03909316835263ffffffff9091166020830152016100f6565b61011261014436600461090d565b610322565b6101516105c1565b60405163ffffffff90911681526020016100f6565b61017961017436600461090d565b6105d7565b005b6101516104b081565b6001600160a01b038116600090815260208181526040808320815160c081018352815481526001820154938101939093526002015463ffffffff808216928401929092526401000000008104909116606083015260ff600160401b8204811615156080840152600160481b90910416151560a082018190528291906102245760405162461bcd60e51b815260040161021b90610936565b60405180910390fd5b600061022e6105c1565b90506000826080015161024557826060015161024b565b82604001515b9050600061025887610713565b90506000846080015161026f578460400151610275565b84606001515b9250846080015161028757845161028d565b84602001515b9050610299838561098f565b95506104b063ffffffff871610156102f35760405162461bcd60e51b815260206004820152601d60248201527f416d706c69667950726963654f7261636c653a204e4f545f5245414459000000604482015260640161021b565b61031663ffffffff871661030783856109b4565b61031191906109e1565b610869565b96505050505050915091565b6001600160a01b038116600090815260208181526040808320815160c081018352815481526001820154938101939093526002015463ffffffff808216928401929092526401000000008104909116606083015260ff600160401b8204811615156080840152600160481b90910416151560a082018190528291906103b95760405162461bcd60e51b815260040161021b90610936565b6001600160a01b0384166000908152602081905260408120906103da6105c1565b9050600083608001516103f15783606001516103f7565b83604001515b9050600061040488610713565b905060006104b0610415848661098f565b63ffffffff1610610508578560800151610433578560200151610436565b85515b9050856080015115610470576001850182905560028501805467ffffffff00000000191664010000000063ffffffff87160217905561048b565b81855560028501805463ffffffff191663ffffffff86161790555b608086015160028601805468ff000000000000000019169115600160401b81029290921790556040805184815263ffffffff87166020820152908101919091526001600160a01b038a16907fc58c63744da19faddae8e37958053493f49d71b8f78d4facf6002cd1c2618fcf9060600160405180910390a261053c565b856080015161051b578560400151610521565b85606001515b92508560800151610533578551610539565b85602001515b90505b610546838561098f565b96506104b063ffffffff881610156105a05760405162461bcd60e51b815260206004820152601d60248201527f416d706c69667950726963654f7261636c653a204e4f545f5245414459000000604482015260640161021b565b6105b463ffffffff881661030783856109b4565b9750505050505050915091565b60006105d2640100000000426109f5565b905090565b6001600160a01b03811660009081526020819052604090206002810154600160481b900460ff161561065b5760405162461bcd60e51b815260206004820152602760248201527f416d706c69667950726963654f7261636c653a20414c52454144595f494e49546044820152661250531256915160ca1b606482015260840161021b565b600061066683610713565b905060006106726105c1565b828455600180850184905560028501805467ffffffffffffffff191663ffffffff841690811764010000000082021769ffff000000000000000019166901010000000000000000179091556040805186815260208101929092528101919091529091506001600160a01b038516907fc58c63744da19faddae8e37958053493f49d71b8f78d4facf6002cd1c2618fcf9060600160405180910390a250505050565b6000816001600160a01b0316635909c0d56040518163ffffffff1660e01b815260040160206040518083038186803b15801561074e57600080fd5b505afa158015610762573d6000803e3d6000fd5b505050506040513d601f19601f820116820180604052508101906107869190610a09565b90506000806000846001600160a01b0316630902f1ac6040518163ffffffff1660e01b815260040160606040518083038186803b1580156107c657600080fd5b505afa1580156107da573d6000803e3d6000fd5b505050506040513d601f19601f820116820180604052508101906107fe9190610a3e565b925092509250600061082284610813856108d2565b6001600160e01b0316906108f1565b905060008261082f6105c1565b610839919061098f565b905061085463ffffffff82166001600160e01b038416610a8e565b61085e9087610aad565b979650505050505050565b60006001600160e01b038211156108ce5760405162461bcd60e51b8152602060048201526024808201527f416d706c69667950726963654f7261636c653a2055494e543232345f4f564552604482015263464c4f5760e01b606482015260840161021b565b5090565b60006108eb600160701b6001600160701b038416610ac5565b92915050565b60006109066001600160701b03831684610af4565b9392505050565b60006020828403121561091f57600080fd5b81356001600160a01b038116811461090657600080fd5b60208082526023908201527f416d706c69667950726963654f7261636c653a204e4f545f494e495449414c4960408201526216915160ea1b606082015260800190565b634e487b7160e01b600052601160045260246000fd5b600063ffffffff838116908316818110156109ac576109ac610979565b039392505050565b6000828210156109c6576109c6610979565b500390565b634e487b7160e01b600052601260045260246000fd5b6000826109f0576109f06109cb565b500490565b600082610a0457610a046109cb565b500690565b600060208284031215610a1b57600080fd5b5051919050565b80516001600160701b0381168114610a3957600080fd5b919050565b600080600060608486031215610a5357600080fd5b610a5c84610a22565b9250610a6a60208501610a22565b9150604084015163ffffffff81168114610a8357600080fd5b809150509250925092565b6000816000190483118215151615610aa857610aa8610979565b500290565b60008219821115610ac057610ac0610979565b500190565b60006001600160e01b0382811684821681151582840482111615610aeb57610aeb610979565b02949350505050565b60006001600160e01b0383811680610b0e57610b0e6109cb565b9216919091049291505056fea264697066735822122028f1194d7288221a749ac6e166bd888cfe940f68bc77ce41726c877fc0b643eb64736f6c63430008090033",
  "linkReferences": {},
  "deployedLinkReferences": {}
}