{
  "_format": "hh-sol-artifact-1",
  "contractName": "BDeployer",
  "sourceName": "contracts/BDeployer.sol",
  "abi": [
    {
      "inputs": [],
      "stateMutability": "nonpayable",
      "type": "constructor"
    },
    {
      "inputs": [
        {
          "internalType": "address",
          "name": "uniswapV2Pair",
          "type": "address"
        },
        {
          "internalType": "uint8",
          "name": "index",
          "type": "uint8"
        }
      ],
      "name": "deployBorrowable",
      "outputs": [
        {
          "internalType": "address",
          "name": "borrowable",
          "type": "address"
        }
      ],
      "stateMutability": "nonpayable",
      "type": "function"
    }
  ],
  "bytecode": "0x608060405234801561001057600080fd5b506135bd806100206000396000f3fe608060405234801561001057600080fd5b506004361061002b5760003560e01c806354bcd7ad14610030575b600080fd5b61004361003e366004610100565b61005f565b6040516001600160a01b03909116815260200160405180910390f35b60008060405180602001610072906100f3565b601f1982820381018352601f9091011660408190526bffffffffffffffffffffffff1933606090811b8216602084015287901b1660348201526001600160f81b031960f886901b166048820152909150600090604901604051602081830303815290604052805190602001209050808251602084016000f595945050505050565b61343c8061014c83390190565b6000806040838503121561011357600080fd5b82356001600160a01b038116811461012a57600080fd5b9150602083013560ff8116811461014057600080fd5b80915050925092905056fe60806040526002805460ff19908116601217909155600b80549091166001179055600e80546001600160701b031916670de0b6b3a76400001790556200004b64010000000042620000f4565b600e80546001600160e01b0316600160e01b63ffffffff93909316929092029190911790556010805465ffffffffffff60301b191669bd014d800000000000001790556200009f64010000000042620000f4565b6010600c6101000a81548163ffffffff021916908363ffffffff16021790555067016345785d8a00006011556709b6e64a8ec600006012556486bd6db020601355348015620000ed57600080fd5b5062000117565b6000826200011257634e487b7160e01b600052601260045260246000fd5b500690565b61331580620001276000396000f3fe608060405234801561001057600080fd5b50600436106103995760003560e01c806370a08231116101e9578063b7f1118a1161010f578063c914b437116100ad578063e07660001161007c578063e076600014610812578063e12b63061461081d578063fca7820b14610834578063fff6cae91461084757600080fd5b8063c914b437146107aa578063d505accf146107bc578063d8dfeb45146107cf578063dd62ed3e146107e757600080fd5b8063bc25cf77116100e9578063bc25cf771461076c578063be340e321461077f578063c45a015514610788578063c72f3fbb1461079b57600080fd5b8063b7f1118a14610739578063b95b92a31461074c578063ba9a7a561461076357600080fd5b806395a2251f11610187578063a6afed9511610156578063a6afed9514610702578063a9059cbb1461070a578063aa5af0fd1461071d578063ad7a672f1461073057600080fd5b806395a2251f146106c657806395d89b41146106d95780639e79b55c146106e1578063a0715719146106f457600080fd5b806386b9d81f116101c357806386b9d81f1461065d57806391b4274514610670578063926d845b146106a05780639292b032146106b357600080fd5b806370a0823114610600578063796b89b9146106205780637ecebe001461063d57600080fd5b806335542822116102ce5780634d73e9ba1161026c5780636a030c111161023b5780636a030c111461059c5780636a627842146105af5780636bd76d24146105c25780636f307dc3146105ed57600080fd5b80634d73e9ba14610547578063559572201461055a5780635b2b9d1a14610585578063685440651461058d57600080fd5b80634322b714116102a85780634322b714146104f8578063452ae95f1461050157806347bd37181461050d5780634a5d316c1461053f57600080fd5b806335542822146104d45780633644e515146104e75780633ba0b9a9146104f057600080fd5b80632374e8a91161033b57806327549a0b1161031557806327549a0b146104725780632d5231d31461048557806330adf81f1461048e578063313ce567146104b557600080fd5b80632374e8a91461044357806323b872dd14610452578063253c24f31461046557600080fd5b8063095ea7b311610377578063095ea7b3146103f957806318160ddd1461041c5780631aebf12f146104255780631e7dcc0d1461042e57600080fd5b806301f8c1c81461039e57806306fdde03146103d8578063075f4e7f146103ed575b600080fd5b6103c57ff6d86ed606f871fa1a557ac0ba607adce07767acf53f492fb215a1a4db4aea6f81565b6040519081526020015b60405180910390f35b6103e061084f565b6040516103cf9190612e07565b6103c5640d7957c4d081565b61040c610407366004612e4f565b6108dd565b60405190151581526020016103cf565b6103c560035481565b6103c560125481565b61044161043c366004612ec4565b6108f4565b005b6103c56706f05b59d3b2000081565b61040c610460366004612f37565b610c58565b6103c56505436648e14081565b610441610480366004612f78565b610d21565b6103c560135481565b6103c57f6e71edae12b1b97f4d1f60370fef10105fa2faae0126114a169c64845d6126c981565b6002546104c29060ff1681565b60405160ff90911681526020016103cf565b6104416104e2366004612f91565b610dac565b6103c560065481565b6103c5610e2e565b6103c560115481565b6103c56407620d070081565b600e5461052790600160701b90046001600160701b031681565b6040516001600160701b0390911681526020016103cf565b610441610eac565b6103c5610555366004612f91565b610f19565b60145461056d906001600160a01b031681565b6040516001600160a01b0390911681526020016103cf565b6103c5600581565b6103c5670dbd2fc137a3000081565b6104416105aa366004612fae565b610f95565b6103c56105bd366004612f91565b6110a6565b6103c56105d0366004613043565b600c60209081526000928352604080842090915290825290205481565b60085461056d906001600160a01b031681565b6103c561060e366004612f91565b60046020526000908152604090205481565b61062861126d565b60405163ffffffff90911681526020016103cf565b6103c561064b366004612f91565b60076020526000908152604090205481565b6103c561066b366004613043565b611283565b60105461068990600160301b900465ffffffffffff1681565b60405165ffffffffffff90911681526020016103cf565b61040c6106ae366004612e4f565b611499565b6104416106c1366004612f78565b6114a6565b6103c56106d4366004612f91565b611522565b6103e0611686565b6104416106ef36600461307c565b611693565b6103c566038d7ea4c6800081565b6104416116d7565b61040c610718366004612e4f565b61185d565b600e54610527906001600160701b031681565b6103c5600a5481565b610441610747366004612f91565b61186a565b600e5461062890600160e01b900463ffffffff1681565b6103c56103e881565b61044161077a366004612f91565b61188b565b6103c5600f5481565b60095461056d906001600160a01b031681565b6103c56702c68af0bb14000081565b6010546106899065ffffffffffff1681565b6104416107ca36600461307c565b611954565b600b5461056d9061010090046001600160a01b031681565b6103c56107f5366004613043565b600560209081526000928352604080842090915290825290205481565b6103c56312e687c081565b60105461062890600160601b900463ffffffff1681565b610441610842366004612f78565b61198f565b610441611a04565b6000805461085c906130f3565b80601f0160208091040260200160405190810160405280929190818152602001828054610888906130f3565b80156108d55780601f106108aa576101008083540402835291602001916108d5565b820191906000526020600020905b8154815290600101906020018083116108b857829003601f168201915b505050505081565b60006108ea338484611a4f565b5060015b92915050565b600b5460ff1661091f5760405162461bcd60e51b81526004016109169061312e565b60405180910390fd5b600b805460ff191690556109316116d7565b600a54808411156109845760405162461bcd60e51b815260206004820152601a60248201527f416d706c6966793a20494e53554646494349454e545f434153480000000000006044820152606401610916565b61098f863386611ab1565b831561099f5761099f8585611b77565b8115610a0c57604051633600d63960e21b81526001600160a01b0386169063d80358e4906109d99033908a9089908990899060040161315a565b600060405180830381600087803b1580156109f357600080fd5b505af1158015610a07573d6000803e3d6000fd5b505050505b6008546040516370a0823160e01b81523060048201526000916001600160a01b0316906370a082319060240160206040518083038186803b158015610a5057600080fd5b505afa158015610a64573d6000803e3d6000fd5b505050506040513d601f19601f82011682018060405250810190610a8891906131ae565b90506000610aaf670de0b6b3a7640000610aa98866038d7ea4c68000611cbd565b90611d3c565b90506000610abd8783611d7e565b90506000610ad585610acf868b611d7e565b90611ddd565b90506000806000610ae78d8686611e1f565b92509250925083851115610bd357600b54604051639aac2c5360e01b81526001600160a01b038f811660048301523060248301526044820185905261010090920490911690639aac2c5390606401602060405180830381600087803b158015610b4f57600080fd5b505af1158015610b63573d6000803e3d6000fd5b505050506040513d601f19601f82011682018060405250810190610b8791906131c7565b610bd35760405162461bcd60e51b815260206004820152601f60248201527f416d706c6966793a20494e53554646494349454e545f4c4951554944495459006044820152606401610916565b604080518c81526020810186905290810184905260608101839052608081018290526001600160a01b03808e1691908f169033907f33f3048bd4e6af45e53afb722adfd57dbde82da7e93e44db921fb4b8c6a70c4b9060a00160405180910390a45050505050505050610c44612042565b5050600b805460ff19166001179055505050565b6001600160a01b038316600090815260056020908152604080832033845290915281205460001914610d0c57604080518082018252601d81527f416d706c6966793a205452414e534645525f4e4f545f414c4c4f5745440000006020808301919091526001600160a01b0387166000908152600582528381203382529091529190912054610ce7918490612054565b6001600160a01b03851660009081526005602090815260408083203384529091529020555b610d1784848461208e565b5060019392505050565b600b5460ff16610d435760405162461bcd60e51b81526004016109169061312e565b600b805460ff19169055610d6381640d7957c4d06505436648e14061216c565b60138190556040518181527f1396dfcdb64fb7eb77fb84966f27b81afe14aa70b6e966c68d74af3302a9fe90906020015b60405180910390a150600b805460ff19166001179055565b600b5460ff16610dce5760405162461bcd60e51b81526004016109169061312e565b600b805460ff19169055610de061220f565b601480546001600160a01b0319166001600160a01b0383169081179091556040519081527f468b6598e7e810c65c9858b5f23a2d5b8692fb753b78a032232de4c6ed3cabbf90602001610d94565b6000610e386116d7565b600354600e54600a54600091610e5e9190600160701b90046001600160701b0316611d7e565b9050811580610e6b575080155b15610e8057670de0b6b3a76400009250505090565b6000610e9883610aa984670de0b6b3a7640000611cbd565b9050610ea481846122ed565b935050505090565b6009546001600160a01b031615610f055760405162461bcd60e51b815260206004820152601c60248201527f416d706c6966793a20464143544f52595f414c52454144595f534554000000006044820152606401610916565b600980546001600160a01b03191633179055565b6001600160a01b0381166000908152600d602090815260408083208151808301909252546001600160701b038082168352600160701b9091041691810182905290610f675750600092915050565b6020810151600e548251610f8e926001600160701b0390811692610aa99282169116611cbd565b9392505050565b6009546001600160a01b03163314610fe75760405162461bcd60e51b8152602060048201526015602482015274105b5c1b1a599e4e8815539055551213d492569151605a1b6044820152606401610916565b61105a86868080601f01602080910402602001604051908101604052809392919081815260200183838082843760009201919091525050604080516020601f8a0181900481028201810190925288815292508891508790819084018382808284376000920191909152506123fc92505050565b600880546001600160a01b039384166001600160a01b0319909116179055600b80549190921661010002610100600160a81b03199091161790555050670de0b6b3a7640000600f555050565b600b5460009060ff166110cb5760405162461bcd60e51b81526004016109169061312e565b600b805460ff191690556008546040516370a0823160e01b81523060048201526000916001600160a01b0316906370a082319060240160206040518083038186803b15801561111957600080fd5b505afa15801561112d573d6000803e3d6000fd5b505050506040513d601f19601f8201168201806040525081019061115191906131ae565b9050600061116a600a5483611ddd90919063ffffffff16565b9050611189611177610e2e565b610aa983670de0b6b3a7640000611cbd565b9250600354600014156111b1576111a2836103e8611ddd565b92506111b160006103e86124c2565b600083116112015760405162461bcd60e51b815260206004820152601960248201527f416d706c6966793a204d494e545f414d4f554e545f5a45524f000000000000006044820152606401610916565b61120b84846124c2565b60408051828152602081018590526001600160a01b0386169133917f2f00e3cdd69a77be7ed215ec7b2a36784dd158f921fca79ac29deffa353fe6ee910160405180910390a3505061125b612042565b600b805460ff19166001179055919050565b600061127e640100000000426131ff565b905090565b600b5460009060ff166112a85760405162461bcd60e51b81526004016109169061312e565b600b805460ff191690556112ba6116d7565b6008546040516370a0823160e01b81523060048201526000916001600160a01b0316906370a082319060240160206040518083038186803b1580156112fe57600080fd5b505afa158015611312573d6000803e3d6000fd5b505050506040513d601f19601f8201168201806040525081019061133691906131ae565b9050600061134f600a5483611ddd90919063ffffffff16565b9050600061136561135f87610f19565b83612552565b600b5460405163b2a02ff160e01b81526001600160a01b0388811660048301528981166024830152604482018490529293506101009091049091169063b2a02ff190606401602060405180830381600087803b1580156113c457600080fd5b505af11580156113d8573d6000803e3d6000fd5b505050506040513d601f19601f820116820180604052508101906113fc91906131ae565b9350600080600061140f89600087611e1f565b604080518b8152602081018a9052908101849052606081018390526080810182905292955090935091506001600160a01b03808a1691908b169033907fb0dbe18c6ffdf0da655dd690e77211d379205c497be44c64447c3f5f021b51679060a00160405180910390a4505050505050611486612042565b600b805460ff1916600117905592915050565b60006108ea338484612568565b600b5460ff166114c85760405162461bcd60e51b81526004016109169061312e565b600b805460ff191690556114ed816706f05b59d3b20000670dbd2fc137a3000061216c565b60128190556040518181527f7a550b1995ff63260fb313f12024e66e73bad425372e5af6b1e04cb3799ef38c90602001610d94565b600b5460009060ff166115475760405162461bcd60e51b81526004016109169061312e565b600b805460ff191690553060009081526004602052604090205461157f670de0b6b3a7640000610aa9611578610e2e565b8490611cbd565b9150600082116115d15760405162461bcd60e51b815260206004820152601b60248201527f416d706c6966793a2052454445454d5f414d4f554e545f5a45524f00000000006044820152606401610916565b600a548211156116235760405162461bcd60e51b815260206004820152601a60248201527f416d706c6966793a20494e53554646494349454e545f434153480000000000006044820152606401610916565b61162d30826125c1565b6116378383611b77565b60408051838152602081018390526001600160a01b0385169133917f3f693fff038bb8a046aa76d9516190ac7444f7d69cf952c4cbdc086fdef2d6fc910160405180910390a35061125b612042565b6001805461085c906130f3565b6116c3878787878787877ff6d86ed606f871fa1a557ac0ba607adce07767acf53f492fb215a1a4db4aea6f61264b565b6116ce878787612568565b50505050505050565b600e546001600160701b0380821691600160701b810490911690600160e01b900463ffffffff16600061170861126d565b90508063ffffffff168263ffffffff1614156117245750505050565b600e805463ffffffff808416600160e01b026001600160e01b03909216919091179091556010548383039160009161176b9165ffffffffffff9091169080851690611cbd16565b90506000611785670de0b6b3a7640000610aa98489611cbd565b90506117918682611d7e565b95506117b36117ac670de0b6b3a7640000610aa9858b611cbd565b8890611d7e565b96506117be87612836565b600e80546001600160701b0319166001600160701b03929092169190911790556117e786612836565b600e80546001600160701b0392909216600160701b02600160701b600160e01b031990921691909117905560408051828152602081018990529081018790527f875352fb3fadeb8c0be7cbbe8ff761b308fa7033470cd0287f02f3436fd76cb9906060015b60405180910390a150505050505050565b60006108ea33848461208e565b6118888161187783610f19565b600e546001600160701b0316612882565b50565b600b5460ff166118ad5760405162461bcd60e51b81526004016109169061312e565b600b805460ff19169055600a546008546040516370a0823160e01b815230600482015261194492849261193f926001600160a01b03909116906370a082319060240160206040518083038186803b15801561190757600080fd5b505afa15801561191b573d6000803e3d6000fd5b505050506040513d601f19601f82011682018060405250810190610acf91906131ae565b611b77565b50600b805460ff19166001179055565b611984878787878787877f6e71edae12b1b97f4d1f60370fef10105fa2faae0126114a169c64845d6126c961264b565b6116ce878787611a4f565b600b5460ff166119b15760405162461bcd60e51b81526004016109169061312e565b600b805460ff191690556119cf8160006702c68af0bb14000061216c565b60118190556040518181527f9d9cd27245b4e6b06dcf523ac57b6e851b934e199eee376313f906e94bfbfd5590602001610d94565b600b5460ff16611a265760405162461bcd60e51b81526004016109169061312e565b600b805460ff19169055611a386116d7565b611a40612042565b600b805460ff19166001179055565b6001600160a01b0383811660008181526005602090815260408083209487168084529482529182902085905590518481527f8c5be1e5ebec7d5bd14f71427d1e84f3dd0314c0f7b2291e5b200ac8c7c3b92591015b60405180910390a3505050565b6001600160a01b038084166000818152600c60209081526040808320948716808452949091529020549114801590611aeb57506000198114155b15611b715781811015611b405760405162461bcd60e51b815260206004820152601b60248201527f416d706c6966793a20424f52524f575f4e4f545f414c4c4f57454400000000006044820152606401610916565b611b4a8282613229565b6001600160a01b038086166000908152600c60209081526040808320938816835292905220555b50505050565b600854604080518082018252601981527f7472616e7366657228616464726573732c75696e74323536290000000000000060209182015281516001600160a01b0386811660248301526044808301879052845180840390910181526064909201845291810180516001600160e01b031663a9059cbb60e01b17905291516000938493921691611c0591613240565b6000604051808303816000865af19150503d8060008114611c42576040519150601f19603f3d011682016040523d82523d6000602084013e611c47565b606091505b5091509150818015611c71575080511580611c71575080806020019051810190611c7191906131c7565b611b715760405162461bcd60e51b815260206004820152601860248201527f416d706c6966793a205452414e534645525f4641494c454400000000000000006044820152606401610916565b600082611ccc575060006108ee565b6000611cd8838561325c565b905082611ce5858361327b565b14610f8e5760405162461bcd60e51b815260206004820152602160248201527f536166654d6174683a206d756c7469706c69636174696f6e206f766572666c6f6044820152607760f81b6064820152608401610916565b6000610f8e83836040518060400160405280601a81526020017f536166654d6174683a206469766973696f6e206279207a65726f000000000000815250612908565b600080611d8b838561328f565b905083811015610f8e5760405162461bcd60e51b815260206004820152601b60248201527f536166654d6174683a206164646974696f6e206f766572666c6f7700000000006044820152606401610916565b6000610f8e83836040518060400160405280601f81526020017f536166654d6174683a207375627472616374696f6e20756e646572666c6f7700815250612054565b6000806000611e2d86610f19565b925083851415611e53575050600e548190600160701b90046001600160701b0316612039565b600e546001600160701b031684861115611f13576001600160a01b0387166000908152600d6020526040812090611e8a8789613229565b9050611e968682611d7e565b9450611ea185612836565b82546001600160701b039182166001600160e01b031990911617600160701b8583168102919091178455600e54611edc929190041682611d7e565b9350611ee784612836565b600e806101000a8154816001600160701b0302191690836001600160701b031602179055505050612023565b6001600160a01b0387166000908152600d6020526040812090611f368888613229565b9050808611611f46576000611f50565b611f508187613229565b9450611f5b85612836565b82546001600160701b0319166001600160701b039190911617825584611f91578154600160701b600160e01b0319168255611fb4565b8154600160701b600160e01b031916600160701b6001600160701b038516021782555b6000611fc08787611ddd565b600e54600160701b90046001600160701b031695509050808511611fe5576000611fef565b611fef8186613229565b9450611ffa85612836565b600e806101000a8154816001600160701b0302191690836001600160701b031602179055505050505b6120378784836001600160701b0316612882565b505b93509350939050565b61204a612936565b6120526129eb565b565b600081848411156120785760405162461bcd60e51b81526004016109169190612e07565b5060006120858486613229565b95945050505050565b604080518082018252601a81527f416d706c6966793a205452414e534645525f544f4f5f484947480000000000006020808301919091526001600160a01b0386166000908152600490915291909120546120e9918390612054565b6001600160a01b0380851660009081526004602052604080822093909355908416815220546121189082611d7e565b6001600160a01b0380841660008181526004602052604090819020939093559151908516907fddf252ad1be2c89b69c2b068fc378daa952ba7f163c4a11628f55a4df523b3ef90611aa49085815260200190565b61217461220f565b818310156121bf5760405162461bcd60e51b8152602060048201526018602482015277416d706c6966793a20494e56414c49445f53455454494e4760401b6044820152606401610916565b8083111561220a5760405162461bcd60e51b8152602060048201526018602482015277416d706c6966793a20494e56414c49445f53455454494e4760401b6044820152606401610916565b505050565b600960009054906101000a90046001600160a01b03166001600160a01b031663f851a4406040518163ffffffff1660e01b815260040160206040518083038186803b15801561225d57600080fd5b505afa158015612271573d6000803e3d6000fd5b505050506040513d601f19601f8201168201806040525081019061229591906132a7565b6001600160a01b0316336001600160a01b0316146120525760405162461bcd60e51b8152602060048201526015602482015274105b5c1b1a599e4e8815539055551213d492569151605a1b6044820152606401610916565b600f54600090808411156123f357600061233261232b670de0b6b3a7640000610aa9601154612325878b611ddd90919063ffffffff16565b90611cbd565b8690611ddd565b9050600061234885610acf84610aa9838b611cbd565b90508061235a578593505050506108ee565b6009546040805163345ef94160e01b815290516000926001600160a01b03169163345ef941916004808301926020929190829003018186803b15801561239f57600080fd5b505afa1580156123b3573d6000803e3d6000fd5b505050506040513d601f19601f820116820180604052508101906123d791906132a7565b90506123e381836124c2565b5050600f81905591506108ee9050565b839150506108ee565b815161240f906000906020850190612d4b565b508051612423906001906020840190612d4b565b5050805160209182012060408051808201825260018152603160f81b9084015280517f8b73c3c69bb8fe3d512ecc4cf759cc79239f7b179b0ffacaa9a75d522b39400f81850152808201929092527fc89efdaa54c0f20c7adf612882df0950f5a951637e0307cdcb4c672f298b8bc660608301524660808301523060a0808401919091528151808403909101815260c090920190528051910120600655565b6003546124cf9082611d7e565b6003556001600160a01b0382166000908152600460205260409020546124f59082611d7e565b6001600160a01b0383166000818152600460205260408082209390935591519091907fddf252ad1be2c89b69c2b068fc378daa952ba7f163c4a11628f55a4df523b3ef906125469085815260200190565b60405180910390a35050565b60008183106125615781610f8e565b5090919050565b6001600160a01b038381166000818152600c602090815260408083209487168084529482529182902085905590518481527fc3c1215b41d54142382d54a05fb991007165ae91bcb1879bac8b290d9111aaf49101611aa4565b6001600160a01b0382166000908152600460205260409020546125e49082611ddd565b6001600160a01b03831660009081526004602052604090205560035461260a9082611ddd565b6003556040518181526000906001600160a01b038416907fddf252ad1be2c89b69c2b068fc378daa952ba7f163c4a11628f55a4df523b3ef90602001612546565b4285101561268e5760405162461bcd60e51b815260206004820152601060248201526f105b5c1b1a599e4e881156141254915160821b6044820152606401610916565b6001600160a01b0388166000908152600760205260408120805483918b918b918b9190866126bb836132c4565b909155506040805160208101969096526001600160a01b0394851690860152929091166060840152608083015260a082015260c0810187905260e00160405160208183030381529060405280519060200120905060006006548260405160200161273c92919061190160f01b81526002810192909252602282015260420190565b60408051601f198184030181528282528051602091820120600080855291840180845281905260ff8a169284019290925260608301889052608083018790529092509060019060a0016020604051602081039080840390855afa1580156127a7573d6000803e3d6000fd5b5050604051601f1901519150506001600160a01b038116158015906127dd57508a6001600160a01b0316816001600160a01b0316145b6128295760405162461bcd60e51b815260206004820152601a60248201527f416d706c6966793a20494e56414c49445f5349474e41545552450000000000006044820152606401610916565b5050505050505050505050565b6000600160701b821061287e5760405162461bcd60e51b815260206004820152601060248201526f20b6b83634b33c9d1029a0a32298989960811b6044820152606401610916565b5090565b6014546001600160a01b0316806128995750505050565b6040516305285d7f60e01b81526001600160a01b03858116600483015260248201859052604482018490528216906305285d7f90606401600060405180830381600087803b1580156128ea57600080fd5b505af11580156128fe573d6000803e3d6000fd5b5050505050505050565b600081836129295760405162461bcd60e51b81526004016109169190612e07565b506000612085848661327b565b6008546040516370a0823160e01b81523060048201526001600160a01b03909116906370a082319060240160206040518083038186803b15801561297957600080fd5b505afa15801561298d573d6000803e3d6000fd5b505050506040513d601f19601f820116820180604052508101906129b191906131ae565b600a8190556040519081527f8a0df8ef054fae2c3d2d19a7b322e864870cc9fd3cb07fb9526309c596244bf49060200160405180910390a1565b60125460135460105465ffffffffffff80821691600160301b810490911690600160601b900463ffffffff16600081612a2261126d565b03905063ffffffff811615612c0157612a3961126d565b6010600c6101000a81548163ffffffff021916908363ffffffff160217905550600083851015612aee576000670de0b6b3a764000063ffffffff84168887612a818a82613229565b612a9390670de0b6b3a764000061325c565b612a9d919061327b565b612aa7919061325c565b612ab1919061325c565b612abb919061327b565b9050670de0b6b3a76400008111612ae357612ade81670de0b6b3a7640000613229565b612ae6565b60005b915050612b5e565b6000670de0b6b3a764000063ffffffff84168887612b0c818b613229565b612b1e90670de0b6b3a764000061325c565b612b28919061327b565b612b32919061325c565b612b3c919061325c565b612b46919061327b565b9050612b5a81670de0b6b3a764000061328f565b9150505b670de0b6b3a7640000612b71828661325c565b612b7b919061327b565b93506407620d0700841115612b93576407620d070093505b6312e687c0841015612ba7576312e687c093505b601080546bffffffffffff0000000000001916600160301b65ffffffffffff8716021790556040518481527f713a98ffb7d769b8e33e2ee945ebb6acb7f397532688164d3ce1081f903c77bc9060200160405180910390a1505b600e54600a54600091600160701b90046001600160701b0316908290612c279083611d7e565b90508015612c515780612c4283670de0b6b3a764000061325c565b612c4c919061327b565b612c54565b60005b92505050868111612c7b5786612c6a828661325c565b612c74919061327b565b9450612d02565b6000612c8f88670de0b6b3a7640000613229565b612c998984613229565b612cab90670de0b6b3a764000061325c565b612cb5919061327b565b9050670de0b6b3a76400008582612cce60016005613229565b612cd8919061325c565b612cea90670de0b6b3a764000061328f565b612cf4919061325c565b612cfe919061327b565b9550505b6010805465ffffffffffff191665ffffffffffff87161790556040518581527f338541dc9083f6af6715482fb419e1483c1ae9097764fd68a5dc98109bd5a7889060200161184c565b828054612d57906130f3565b90600052602060002090601f016020900481019282612d795760008555612dbf565b82601f10612d9257805160ff1916838001178555612dbf565b82800160010185558215612dbf579182015b82811115612dbf578251825591602001919060010190612da4565b5061287e9291505b8082111561287e5760008155600101612dc7565b60005b83811015612df6578181015183820152602001612dde565b83811115611b715750506000910152565b6020815260008251806020840152612e26816040850160208701612ddb565b601f01601f19169190910160400192915050565b6001600160a01b038116811461188857600080fd5b60008060408385031215612e6257600080fd5b8235612e6d81612e3a565b946020939093013593505050565b60008083601f840112612e8d57600080fd5b50813567ffffffffffffffff811115612ea557600080fd5b602083019150836020828501011115612ebd57600080fd5b9250929050565b600080600080600060808688031215612edc57600080fd5b8535612ee781612e3a565b94506020860135612ef781612e3a565b935060408601359250606086013567ffffffffffffffff811115612f1a57600080fd5b612f2688828901612e7b565b969995985093965092949392505050565b600080600060608486031215612f4c57600080fd5b8335612f5781612e3a565b92506020840135612f6781612e3a565b929592945050506040919091013590565b600060208284031215612f8a57600080fd5b5035919050565b600060208284031215612fa357600080fd5b8135610f8e81612e3a565b60008060008060008060808789031215612fc757600080fd5b863567ffffffffffffffff80821115612fdf57600080fd5b612feb8a838b01612e7b565b9098509650602089013591508082111561300457600080fd5b5061301189828a01612e7b565b909550935050604087013561302581612e3a565b9150606087013561303581612e3a565b809150509295509295509295565b6000806040838503121561305657600080fd5b823561306181612e3a565b9150602083013561307181612e3a565b809150509250929050565b600080600080600080600060e0888a03121561309757600080fd5b87356130a281612e3a565b965060208801356130b281612e3a565b95506040880135945060608801359350608088013560ff811681146130d657600080fd5b9699959850939692959460a0840135945060c09093013592915050565b600181811c9082168061310757607f821691505b6020821081141561312857634e487b7160e01b600052602260045260246000fd5b50919050565b602080825260129082015271105b5c1b1a599e4e8814915153951154915160721b604082015260600190565b6001600160a01b038681168252851660208201526040810184905260806060820181905281018290526000828460a0840137600060a0848401015260a0601f19601f85011683010190509695505050505050565b6000602082840312156131c057600080fd5b5051919050565b6000602082840312156131d957600080fd5b81518015158114610f8e57600080fd5b634e487b7160e01b600052601260045260246000fd5b60008261320e5761320e6131e9565b500690565b634e487b7160e01b600052601160045260246000fd5b60008282101561323b5761323b613213565b500390565b60008251613252818460208701612ddb565b9190910192915050565b600081600019048311821515161561327657613276613213565b500290565b60008261328a5761328a6131e9565b500490565b600082198211156132a2576132a2613213565b500190565b6000602082840312156132b957600080fd5b8151610f8e81612e3a565b60006000198214156132d8576132d8613213565b506001019056fea264697066735822122070e271917a8fe89ab57ddcbd7e0bf280c963559732828e6c5470fa0cbf55b0b264736f6c63430008090033a264697066735822122098acce52e5c835112332b62399e8242a35acfe531a91e7c5653fe8d523fe4e9164736f6c63430008090033",
  "linkReferences": {},
  "deployedLinkReferences": {}
}