{
  "_format": "hh-sol-artifact-1",
  "contractName": "BDeployer",
  "sourceName": "contracts/BDeployer.sol",
  "abi": [
    {
      "inputs": [],
      "stateMutability": "nonpayable",
      "type": "constructor"
    },
    {
      "inputs": [
        {
          "internalType": "address",
          "name": "uniswapV2Pair",
          "type": "address"
        },
        {
          "internalType": "uint8",
          "name": "index",
          "type": "uint8"
        }
      ],
      "name": "deployBorrowable",
      "outputs": [
        {
          "internalType": "address",
          "name": "borrowable",
          "type": "address"
        }
      ],
      "stateMutability": "nonpayable",
      "type": "function"
    }
  ],
  "bytecode": "0x608060405234801561001057600080fd5b5061369c806100206000396000f3fe608060405234801561001057600080fd5b506004361061002b5760003560e01c806354bcd7ad14610030575b600080fd5b61004361003e366004610198565b61005f565b6040516001600160a01b03909116815260200160405180910390f35b600080604051806020016100729061018b565b601f1982820381018352601f9091011660408190526bffffffffffffffffffffffff1933606090811b8216602084015287901b1660348201526001600160f81b031960f886901b166048820152909150600090604901604051602081830303815290604052805190602001209050808251602084016000f592506101196040518060400160405280600b81526020016a2127a92927aba0a126229d60a91b81525084610121565b505092915050565b61016682826040516024016101379291906101e3565b60408051601f198184030181529190526020810180516001600160e01b031663319af33360e01b17905261016a565b5050565b80516a636f6e736f6c652e6c6f67602083016000808483855afa5050505050565b61341d8061024a83390190565b600080604083850312156101ab57600080fd5b82356001600160a01b03811681146101c257600080fd5b9150602083013560ff811681146101d857600080fd5b809150509250929050565b604081526000835180604084015260005b8181101561021157602081870181015160608684010152016101f4565b81811115610223576000606083860101525b506001600160a01b0393909316602083015250601f91909101601f19160160600191905056fe60806040526002805460ff19908116601217909155600b80549091166001179055600e80546001600160701b031916670de0b6b3a76400001790556200004b64010000000042620000f4565b600e80546001600160e01b0316600160e01b63ffffffff93909316929092029190911790556010805465ffffffffffff60301b191669bd014d800000000000001790556200009f64010000000042620000f4565b6010600c6101000a81548163ffffffff021916908363ffffffff16021790555067016345785d8a00006011556709b6e64a8ec600006012556486bd6db020601355348015620000ed57600080fd5b5062000117565b6000826200011257634e487b7160e01b600052601260045260246000fd5b500690565b6132f680620001276000396000f3fe608060405234801561001057600080fd5b50600436106103995760003560e01c806370a08231116101e9578063b7f1118a1161010f578063c914b437116100ad578063e07660001161007c578063e076600014610812578063e12b63061461081d578063fca7820b14610834578063fff6cae91461084757600080fd5b8063c914b437146107aa578063d505accf146107bc578063d8dfeb45146107cf578063dd62ed3e146107e757600080fd5b8063bc25cf77116100e9578063bc25cf771461076c578063be340e321461077f578063c45a015514610788578063c72f3fbb1461079b57600080fd5b8063b7f1118a14610739578063b95b92a31461074c578063ba9a7a561461076357600080fd5b806395a2251f11610187578063a6afed9511610156578063a6afed9514610702578063a9059cbb1461070a578063aa5af0fd1461071d578063ad7a672f1461073057600080fd5b806395a2251f146106c657806395d89b41146106d95780639e79b55c146106e1578063a0715719146106f457600080fd5b806386b9d81f116101c357806386b9d81f1461065d57806391b4274514610670578063926d845b146106a05780639292b032146106b357600080fd5b806370a0823114610600578063796b89b9146106205780637ecebe001461063d57600080fd5b806335542822116102ce5780634d73e9ba1161026c5780636a030c111161023b5780636a030c111461059c5780636a627842146105af5780636bd76d24146105c25780636f307dc3146105ed57600080fd5b80634d73e9ba14610547578063559572201461055a5780635b2b9d1a14610585578063685440651461058d57600080fd5b80634322b714116102a85780634322b714146104f8578063452ae95f1461050157806347bd37181461050d5780634a5d316c1461053f57600080fd5b806335542822146104d45780633644e515146104e75780633ba0b9a9146104f057600080fd5b80632374e8a91161033b57806327549a0b1161031557806327549a0b146104725780632d5231d31461048557806330adf81f1461048e578063313ce567146104b557600080fd5b80632374e8a91461044357806323b872dd14610452578063253c24f31461046557600080fd5b8063095ea7b311610377578063095ea7b3146103f957806318160ddd1461041c5780631aebf12f146104255780631e7dcc0d1461042e57600080fd5b806301f8c1c81461039e57806306fdde03146103d8578063075f4e7f146103ed575b600080fd5b6103c57ff6d86ed606f871fa1a557ac0ba607adce07767acf53f492fb215a1a4db4aea6f81565b6040519081526020015b60405180910390f35b6103e061084f565b6040516103cf9190612dea565b6103c5640d7957c4d081565b61040c610407366004612e32565b6108dd565b60405190151581526020016103cf565b6103c560035481565b6103c560125481565b61044161043c366004612ea7565b6108f4565b005b6103c56706f05b59d3b2000081565b61040c610460366004612f1a565b610c53565b6103c56505436648e14081565b610441610480366004612f5b565b610d1c565b6103c560135481565b6103c57f6e71edae12b1b97f4d1f60370fef10105fa2faae0126114a169c64845d6126c981565b6002546104c29060ff1681565b60405160ff90911681526020016103cf565b6104416104e2366004612f74565b610da7565b6103c560065481565b6103c5610e29565b6103c560115481565b6103c56407620d070081565b600e5461052790600160701b90046001600160701b031681565b6040516001600160701b0390911681526020016103cf565b610441610ea7565b6103c5610555366004612f74565b610f14565b60145461056d906001600160a01b031681565b6040516001600160a01b0390911681526020016103cf565b6103c5600581565b6103c5670dbd2fc137a3000081565b6104416105aa366004612f91565b610f90565b6103c56105bd366004612f74565b61109f565b6103c56105d0366004613026565b600c60209081526000928352604080842090915290825290205481565b60085461056d906001600160a01b031681565b6103c561060e366004612f74565b60046020526000908152604090205481565b610628611266565b60405163ffffffff90911681526020016103cf565b6103c561064b366004612f74565b60076020526000908152604090205481565b6103c561066b366004613026565b61127c565b60105461068990600160301b900465ffffffffffff1681565b60405165ffffffffffff90911681526020016103cf565b61040c6106ae366004612e32565b611492565b6104416106c1366004612f5b565b61149f565b6103c56106d4366004612f74565b61151b565b6103e061167a565b6104416106ef36600461305f565b611687565b6103c566038d7ea4c6800081565b6104416116cb565b61040c610718366004612e32565b611851565b600e54610527906001600160701b031681565b6103c5600a5481565b610441610747366004612f74565b61185e565b600e5461062890600160e01b900463ffffffff1681565b6103c56103e881565b61044161077a366004612f74565b61187f565b6103c5600f5481565b60095461056d906001600160a01b031681565b6103c56702c68af0bb14000081565b6010546106899065ffffffffffff1681565b6104416107ca36600461305f565b611948565b600b5461056d9061010090046001600160a01b031681565b6103c56107f5366004613026565b600560209081526000928352604080842090915290825290205481565b6103c56312e687c081565b60105461062890600160601b900463ffffffff1681565b610441610842366004612f5b565b611983565b6104416119f8565b6000805461085c906130d6565b80601f0160208091040260200160405190810160405280929190818152602001828054610888906130d6565b80156108d55780601f106108aa576101008083540402835291602001916108d5565b820191906000526020600020905b8154815290600101906020018083116108b857829003601f168201915b505050505081565b60006108ea338484611a43565b5060015b92915050565b600b5460ff1661091f5760405162461bcd60e51b815260040161091690613111565b60405180910390fd5b600b805460ff191690556109316116cb565b600a548084111561097f5760405162461bcd60e51b815260206004820152601860248201527708ad8cadee67440929ca6aa8c8c9286928a9ca8be8682a6960431b6044820152606401610916565b61098a863386611aa5565b831561099a5761099a8585611b6b565b8115610a075760405163e7027f3760e01b81526001600160a01b0386169063e7027f37906109d49033908a9089908990899060040161313b565b600060405180830381600087803b1580156109ee57600080fd5b505af1158015610a02573d6000803e3d6000fd5b505050505b6008546040516370a0823160e01b81523060048201526000916001600160a01b0316906370a082319060240160206040518083038186803b158015610a4b57600080fd5b505afa158015610a5f573d6000803e3d6000fd5b505050506040513d601f19601f82011682018060405250810190610a83919061318f565b90506000610aaa670de0b6b3a7640000610aa48866038d7ea4c68000611caa565b90611d29565b90506000610ab88783611d6b565b90506000610ad085610aca868b611d6b565b90611dca565b90506000806000610ae28d8686611e0c565b92509250925083851115610bce57600b54604051639aac2c5360e01b81526001600160a01b038f811660048301523060248301526044820185905261010090920490911690639aac2c5390606401602060405180830381600087803b158015610b4a57600080fd5b505af1158015610b5e573d6000803e3d6000fd5b505050506040513d601f19601f82011682018060405250810190610b8291906131a8565b610bce5760405162461bcd60e51b815260206004820152601d60248201527f456c656f733a20494e53554646494349454e545f4c49515549444954590000006044820152606401610916565b604080518c81526020810186905290810184905260608101839052608081018290526001600160a01b03808e1691908f169033907f33f3048bd4e6af45e53afb722adfd57dbde82da7e93e44db921fb4b8c6a70c4b9060a00160405180910390a45050505050505050610c3f61202f565b5050600b805460ff19166001179055505050565b6001600160a01b038316600090815260056020908152604080832033845290915281205460001914610d0757604080518082018252601b81527f456c656f733a205452414e534645525f4e4f545f414c4c4f57454400000000006020808301919091526001600160a01b0387166000908152600582528381203382529091529190912054610ce2918490612041565b6001600160a01b03851660009081526005602090815260408083203384529091529020555b610d1284848461207b565b5060019392505050565b600b5460ff16610d3e5760405162461bcd60e51b815260040161091690613111565b600b805460ff19169055610d5e81640d7957c4d06505436648e140612159565b60138190556040518181527f1396dfcdb64fb7eb77fb84966f27b81afe14aa70b6e966c68d74af3302a9fe90906020015b60405180910390a150600b805460ff19166001179055565b600b5460ff16610dc95760405162461bcd60e51b815260040161091690613111565b600b805460ff19169055610ddb6121f8565b601480546001600160a01b0319166001600160a01b0383169081179091556040519081527f468b6598e7e810c65c9858b5f23a2d5b8692fb753b78a032232de4c6ed3cabbf90602001610d8f565b6000610e336116cb565b600354600e54600a54600091610e599190600160701b90046001600160701b0316611d6b565b9050811580610e66575080155b15610e7b57670de0b6b3a76400009250505090565b6000610e9383610aa484670de0b6b3a7640000611caa565b9050610e9f81846122d4565b935050505090565b6009546001600160a01b031615610f005760405162461bcd60e51b815260206004820152601a60248201527f456c656f733a20464143544f52595f414c52454144595f5345540000000000006044820152606401610916565b600980546001600160a01b03191633179055565b6001600160a01b0381166000908152600d602090815260408083208151808301909252546001600160701b038082168352600160701b9091041691810182905290610f625750600092915050565b6020810151600e548251610f89926001600160701b0390811692610aa49282169116611caa565b9392505050565b6009546001600160a01b03163314610fe05760405162461bcd60e51b8152602060048201526013602482015272115b195bdcce8815539055551213d492569151606a1b6044820152606401610916565b61105386868080601f01602080910402602001604051908101604052809392919081815260200183838082843760009201919091525050604080516020601f8a0181900481028201810190925288815292508891508790819084018382808284376000920191909152506123e392505050565b600880546001600160a01b039384166001600160a01b0319909116179055600b80549190921661010002610100600160a81b03199091161790555050670de0b6b3a7640000600f555050565b600b5460009060ff166110c45760405162461bcd60e51b815260040161091690613111565b600b805460ff191690556008546040516370a0823160e01b81523060048201526000916001600160a01b0316906370a082319060240160206040518083038186803b15801561111257600080fd5b505afa158015611126573d6000803e3d6000fd5b505050506040513d601f19601f8201168201806040525081019061114a919061318f565b90506000611163600a5483611dca90919063ffffffff16565b9050611182611170610e29565b610aa483670de0b6b3a7640000611caa565b9250600354600014156111aa5761119b836103e8611dca565b92506111aa60006103e86124a9565b600083116111fa5760405162461bcd60e51b815260206004820152601760248201527f456c656f733a204d494e545f414d4f554e545f5a45524f0000000000000000006044820152606401610916565b61120484846124a9565b60408051828152602081018590526001600160a01b0386169133917f2f00e3cdd69a77be7ed215ec7b2a36784dd158f921fca79ac29deffa353fe6ee910160405180910390a3505061125461202f565b600b805460ff19166001179055919050565b6000611277640100000000426131e0565b905090565b600b5460009060ff166112a15760405162461bcd60e51b815260040161091690613111565b600b805460ff191690556112b36116cb565b6008546040516370a0823160e01b81523060048201526000916001600160a01b0316906370a082319060240160206040518083038186803b1580156112f757600080fd5b505afa15801561130b573d6000803e3d6000fd5b505050506040513d601f19601f8201168201806040525081019061132f919061318f565b90506000611348600a5483611dca90919063ffffffff16565b9050600061135e61135887610f14565b83612539565b600b5460405163b2a02ff160e01b81526001600160a01b0388811660048301528981166024830152604482018490529293506101009091049091169063b2a02ff190606401602060405180830381600087803b1580156113bd57600080fd5b505af11580156113d1573d6000803e3d6000fd5b505050506040513d601f19601f820116820180604052508101906113f5919061318f565b9350600080600061140889600087611e0c565b604080518b8152602081018a9052908101849052606081018390526080810182905292955090935091506001600160a01b03808a1691908b169033907fb0dbe18c6ffdf0da655dd690e77211d379205c497be44c64447c3f5f021b51679060a00160405180910390a450505050505061147f61202f565b600b805460ff1916600117905592915050565b60006108ea33848461254f565b600b5460ff166114c15760405162461bcd60e51b815260040161091690613111565b600b805460ff191690556114e6816706f05b59d3b20000670dbd2fc137a30000612159565b60128190556040518181527f7a550b1995ff63260fb313f12024e66e73bad425372e5af6b1e04cb3799ef38c90602001610d8f565b600b5460009060ff166115405760405162461bcd60e51b815260040161091690613111565b600b805460ff1916905530600090815260046020526040902054611578670de0b6b3a7640000610aa4611571610e29565b8490611caa565b9150600082116115ca5760405162461bcd60e51b815260206004820152601960248201527f456c656f733a2052454445454d5f414d4f554e545f5a45524f000000000000006044820152606401610916565b600a548211156116175760405162461bcd60e51b815260206004820152601860248201527708ad8cadee67440929ca6aa8c8c9286928a9ca8be8682a6960431b6044820152606401610916565b61162130826125a8565b61162b8383611b6b565b60408051838152602081018390526001600160a01b0385169133917f3f693fff038bb8a046aa76d9516190ac7444f7d69cf952c4cbdc086fdef2d6fc910160405180910390a35061125461202f565b6001805461085c906130d6565b6116b7878787878787877ff6d86ed606f871fa1a557ac0ba607adce07767acf53f492fb215a1a4db4aea6f612632565b6116c287878761254f565b50505050505050565b600e546001600160701b0380821691600160701b810490911690600160e01b900463ffffffff1660006116fc611266565b90508063ffffffff168263ffffffff1614156117185750505050565b600e805463ffffffff808416600160e01b026001600160e01b03909216919091179091556010548383039160009161175f9165ffffffffffff9091169080851690611caa16565b90506000611779670de0b6b3a7640000610aa48489611caa565b90506117858682611d6b565b95506117a76117a0670de0b6b3a7640000610aa4858b611caa565b8890611d6b565b96506117b28761281b565b600e80546001600160701b0319166001600160701b03929092169190911790556117db8661281b565b600e80546001600160701b0392909216600160701b02600160701b600160e01b031990921691909117905560408051828152602081018990529081018790527f875352fb3fadeb8c0be7cbbe8ff761b308fa7033470cd0287f02f3436fd76cb9906060015b60405180910390a150505050505050565b60006108ea33848461207b565b61187c8161186b83610f14565b600e546001600160701b0316612865565b50565b600b5460ff166118a15760405162461bcd60e51b815260040161091690613111565b600b805460ff19169055600a546008546040516370a0823160e01b8152306004820152611938928492611933926001600160a01b03909116906370a082319060240160206040518083038186803b1580156118fb57600080fd5b505afa15801561190f573d6000803e3d6000fd5b505050506040513d601f19601f82011682018060405250810190610aca919061318f565b611b6b565b50600b805460ff19166001179055565b611978878787878787877f6e71edae12b1b97f4d1f60370fef10105fa2faae0126114a169c64845d6126c9612632565b6116c2878787611a43565b600b5460ff166119a55760405162461bcd60e51b815260040161091690613111565b600b805460ff191690556119c38160006702c68af0bb140000612159565b60118190556040518181527f9d9cd27245b4e6b06dcf523ac57b6e851b934e199eee376313f906e94bfbfd5590602001610d8f565b600b5460ff16611a1a5760405162461bcd60e51b815260040161091690613111565b600b805460ff19169055611a2c6116cb565b611a3461202f565b600b805460ff19166001179055565b6001600160a01b0383811660008181526005602090815260408083209487168084529482529182902085905590518481527f8c5be1e5ebec7d5bd14f71427d1e84f3dd0314c0f7b2291e5b200ac8c7c3b92591015b60405180910390a3505050565b6001600160a01b038084166000818152600c60209081526040808320948716808452949091529020549114801590611adf57506000198114155b15611b655781811015611b345760405162461bcd60e51b815260206004820152601960248201527f456c656f733a20424f52524f575f4e4f545f414c4c4f574544000000000000006044820152606401610916565b611b3e828261320a565b6001600160a01b038086166000908152600c60209081526040808320938816835292905220555b50505050565b600854604080518082018252601981527f7472616e7366657228616464726573732c75696e74323536290000000000000060209182015281516001600160a01b0386811660248301526044808301879052845180840390910181526064909201845291810180516001600160e01b031663a9059cbb60e01b17905291516000938493921691611bf991613221565b6000604051808303816000865af19150503d8060008114611c36576040519150601f19603f3d011682016040523d82523d6000602084013e611c3b565b606091505b5091509150818015611c65575080511580611c65575080806020019051810190611c6591906131a8565b611b655760405162461bcd60e51b8152602060048201526016602482015275115b195bdcce881514905394d1915497d1905253115160521b6044820152606401610916565b600082611cb9575060006108ee565b6000611cc5838561323d565b905082611cd2858361325c565b14610f895760405162461bcd60e51b815260206004820152602160248201527f536166654d6174683a206d756c7469706c69636174696f6e206f766572666c6f6044820152607760f81b6064820152608401610916565b6000610f8983836040518060400160405280601a81526020017f536166654d6174683a206469766973696f6e206279207a65726f0000000000008152506128eb565b600080611d788385613270565b905083811015610f895760405162461bcd60e51b815260206004820152601b60248201527f536166654d6174683a206164646974696f6e206f766572666c6f7700000000006044820152606401610916565b6000610f8983836040518060400160405280601f81526020017f536166654d6174683a207375627472616374696f6e20756e646572666c6f7700815250612041565b6000806000611e1a86610f14565b925083851415611e40575050600e548190600160701b90046001600160701b0316612026565b600e546001600160701b031684861115611f00576001600160a01b0387166000908152600d6020526040812090611e77878961320a565b9050611e838682611d6b565b9450611e8e8561281b565b82546001600160701b039182166001600160e01b031990911617600160701b8583168102919091178455600e54611ec9929190041682611d6b565b9350611ed48461281b565b600e806101000a8154816001600160701b0302191690836001600160701b031602179055505050612010565b6001600160a01b0387166000908152600d6020526040812090611f23888861320a565b9050808611611f33576000611f3d565b611f3d818761320a565b9450611f488561281b565b82546001600160701b0319166001600160701b039190911617825584611f7e578154600160701b600160e01b0319168255611fa1565b8154600160701b600160e01b031916600160701b6001600160701b038516021782555b6000611fad8787611dca565b600e54600160701b90046001600160701b031695509050808511611fd2576000611fdc565b611fdc818661320a565b9450611fe78561281b565b600e806101000a8154816001600160701b0302191690836001600160701b031602179055505050505b6120248784836001600160701b0316612865565b505b93509350939050565b612037612919565b61203f6129ce565b565b600081848411156120655760405162461bcd60e51b81526004016109169190612dea565b506000612072848661320a565b95945050505050565b604080518082018252601881527f456c656f733a205452414e534645525f544f4f5f4849474800000000000000006020808301919091526001600160a01b0386166000908152600490915291909120546120d6918390612041565b6001600160a01b0380851660009081526004602052604080822093909355908416815220546121059082611d6b565b6001600160a01b0380841660008181526004602052604090819020939093559151908516907fddf252ad1be2c89b69c2b068fc378daa952ba7f163c4a11628f55a4df523b3ef90611a989085815260200190565b6121616121f8565b818310156121aa5760405162461bcd60e51b8152602060048201526016602482015275456c656f733a20494e56414c49445f53455454494e4760501b6044820152606401610916565b808311156121f35760405162461bcd60e51b8152602060048201526016602482015275456c656f733a20494e56414c49445f53455454494e4760501b6044820152606401610916565b505050565b600960009054906101000a90046001600160a01b03166001600160a01b031663f851a4406040518163ffffffff1660e01b815260040160206040518083038186803b15801561224657600080fd5b505afa15801561225a573d6000803e3d6000fd5b505050506040513d601f19601f8201168201806040525081019061227e9190613288565b6001600160a01b0316336001600160a01b03161461203f5760405162461bcd60e51b8152602060048201526013602482015272115b195bdcce8815539055551213d492569151606a1b6044820152606401610916565b600f54600090808411156123da576000612319612312670de0b6b3a7640000610aa460115461230c878b611dca90919063ffffffff16565b90611caa565b8690611dca565b9050600061232f85610aca84610aa4838b611caa565b905080612341578593505050506108ee565b6009546040805163345ef94160e01b815290516000926001600160a01b03169163345ef941916004808301926020929190829003018186803b15801561238657600080fd5b505afa15801561239a573d6000803e3d6000fd5b505050506040513d601f19601f820116820180604052508101906123be9190613288565b90506123ca81836124a9565b5050600f81905591506108ee9050565b839150506108ee565b81516123f6906000906020850190612d2e565b50805161240a906001906020840190612d2e565b5050805160209182012060408051808201825260018152603160f81b9084015280517f8b73c3c69bb8fe3d512ecc4cf759cc79239f7b179b0ffacaa9a75d522b39400f81850152808201929092527fc89efdaa54c0f20c7adf612882df0950f5a951637e0307cdcb4c672f298b8bc660608301524660808301523060a0808401919091528151808403909101815260c090920190528051910120600655565b6003546124b69082611d6b565b6003556001600160a01b0382166000908152600460205260409020546124dc9082611d6b565b6001600160a01b0383166000818152600460205260408082209390935591519091907fddf252ad1be2c89b69c2b068fc378daa952ba7f163c4a11628f55a4df523b3ef9061252d9085815260200190565b60405180910390a35050565b60008183106125485781610f89565b5090919050565b6001600160a01b038381166000818152600c602090815260408083209487168084529482529182902085905590518481527fc3c1215b41d54142382d54a05fb991007165ae91bcb1879bac8b290d9111aaf49101611a98565b6001600160a01b0382166000908152600460205260409020546125cb9082611dca565b6001600160a01b0383166000908152600460205260409020556003546125f19082611dca565b6003556040518181526000906001600160a01b038416907fddf252ad1be2c89b69c2b068fc378daa952ba7f163c4a11628f55a4df523b3ef9060200161252d565b428510156126735760405162461bcd60e51b815260206004820152600e60248201526d115b195bdcce881156141254915160921b6044820152606401610916565b6001600160a01b0388166000908152600760205260408120805483918b918b918b9190866126a0836132a5565b909155506040805160208101969096526001600160a01b0394851690860152929091166060840152608083015260a082015260c0810187905260e00160405160208183030381529060405280519060200120905060006006548260405160200161272192919061190160f01b81526002810192909252602282015260420190565b60408051601f198184030181528282528051602091820120600080855291840180845281905260ff8a169284019290925260608301889052608083018790529092509060019060a0016020604051602081039080840390855afa15801561278c573d6000803e3d6000fd5b5050604051601f1901519150506001600160a01b038116158015906127c257508a6001600160a01b0316816001600160a01b0316145b61280e5760405162461bcd60e51b815260206004820152601860248201527f456c656f733a20494e56414c49445f5349474e415455524500000000000000006044820152606401610916565b5050505050505050505050565b6000600160701b82106128615760405162461bcd60e51b815260206004820152600e60248201526d22b632b7b99d1029a0a32298989960911b6044820152606401610916565b5090565b6014546001600160a01b03168061287c5750505050565b6040516305285d7f60e01b81526001600160a01b03858116600483015260248201859052604482018490528216906305285d7f90606401600060405180830381600087803b1580156128cd57600080fd5b505af11580156128e1573d6000803e3d6000fd5b5050505050505050565b6000818361290c5760405162461bcd60e51b81526004016109169190612dea565b506000612072848661325c565b6008546040516370a0823160e01b81523060048201526001600160a01b03909116906370a082319060240160206040518083038186803b15801561295c57600080fd5b505afa158015612970573d6000803e3d6000fd5b505050506040513d601f19601f82011682018060405250810190612994919061318f565b600a8190556040519081527f8a0df8ef054fae2c3d2d19a7b322e864870cc9fd3cb07fb9526309c596244bf49060200160405180910390a1565b60125460135460105465ffffffffffff80821691600160301b810490911690600160601b900463ffffffff16600081612a05611266565b03905063ffffffff811615612be457612a1c611266565b6010600c6101000a81548163ffffffff021916908363ffffffff160217905550600083851015612ad1576000670de0b6b3a764000063ffffffff84168887612a648a8261320a565b612a7690670de0b6b3a764000061323d565b612a80919061325c565b612a8a919061323d565b612a94919061323d565b612a9e919061325c565b9050670de0b6b3a76400008111612ac657612ac181670de0b6b3a764000061320a565b612ac9565b60005b915050612b41565b6000670de0b6b3a764000063ffffffff84168887612aef818b61320a565b612b0190670de0b6b3a764000061323d565b612b0b919061325c565b612b15919061323d565b612b1f919061323d565b612b29919061325c565b9050612b3d81670de0b6b3a7640000613270565b9150505b670de0b6b3a7640000612b54828661323d565b612b5e919061325c565b93506407620d0700841115612b76576407620d070093505b6312e687c0841015612b8a576312e687c093505b601080546bffffffffffff0000000000001916600160301b65ffffffffffff8716021790556040518481527f713a98ffb7d769b8e33e2ee945ebb6acb7f397532688164d3ce1081f903c77bc9060200160405180910390a1505b600e54600a54600091600160701b90046001600160701b0316908290612c0a9083611d6b565b90508015612c345780612c2583670de0b6b3a764000061323d565b612c2f919061325c565b612c37565b60005b92505050868111612c5e5786612c4d828661323d565b612c57919061325c565b9450612ce5565b6000612c7288670de0b6b3a764000061320a565b612c7c898461320a565b612c8e90670de0b6b3a764000061323d565b612c98919061325c565b9050670de0b6b3a76400008582612cb16001600561320a565b612cbb919061323d565b612ccd90670de0b6b3a7640000613270565b612cd7919061323d565b612ce1919061325c565b9550505b6010805465ffffffffffff191665ffffffffffff87161790556040518581527f338541dc9083f6af6715482fb419e1483c1ae9097764fd68a5dc98109bd5a78890602001611840565b828054612d3a906130d6565b90600052602060002090601f016020900481019282612d5c5760008555612da2565b82601f10612d7557805160ff1916838001178555612da2565b82800160010185558215612da2579182015b82811115612da2578251825591602001919060010190612d87565b506128619291505b808211156128615760008155600101612daa565b60005b83811015612dd9578181015183820152602001612dc1565b83811115611b655750506000910152565b6020815260008251806020840152612e09816040850160208701612dbe565b601f01601f19169190910160400192915050565b6001600160a01b038116811461187c57600080fd5b60008060408385031215612e4557600080fd5b8235612e5081612e1d565b946020939093013593505050565b60008083601f840112612e7057600080fd5b50813567ffffffffffffffff811115612e8857600080fd5b602083019150836020828501011115612ea057600080fd5b9250929050565b600080600080600060808688031215612ebf57600080fd5b8535612eca81612e1d565b94506020860135612eda81612e1d565b935060408601359250606086013567ffffffffffffffff811115612efd57600080fd5b612f0988828901612e5e565b969995985093965092949392505050565b600080600060608486031215612f2f57600080fd5b8335612f3a81612e1d565b92506020840135612f4a81612e1d565b929592945050506040919091013590565b600060208284031215612f6d57600080fd5b5035919050565b600060208284031215612f8657600080fd5b8135610f8981612e1d565b60008060008060008060808789031215612faa57600080fd5b863567ffffffffffffffff80821115612fc257600080fd5b612fce8a838b01612e5e565b90985096506020890135915080821115612fe757600080fd5b50612ff489828a01612e5e565b909550935050604087013561300881612e1d565b9150606087013561301881612e1d565b809150509295509295509295565b6000806040838503121561303957600080fd5b823561304481612e1d565b9150602083013561305481612e1d565b809150509250929050565b600080600080600080600060e0888a03121561307a57600080fd5b873561308581612e1d565b9650602088013561309581612e1d565b95506040880135945060608801359350608088013560ff811681146130b957600080fd5b9699959850939692959460a0840135945060c09093013592915050565b600181811c908216806130ea57607f821691505b6020821081141561310b57634e487b7160e01b600052602260045260246000fd5b50919050565b60208082526010908201526f115b195bdcce8814915153951154915160821b604082015260600190565b6001600160a01b038681168252851660208201526040810184905260806060820181905281018290526000828460a0840137600060a0848401015260a0601f19601f85011683010190509695505050505050565b6000602082840312156131a157600080fd5b5051919050565b6000602082840312156131ba57600080fd5b81518015158114610f8957600080fd5b634e487b7160e01b600052601260045260246000fd5b6000826131ef576131ef6131ca565b500690565b634e487b7160e01b600052601160045260246000fd5b60008282101561321c5761321c6131f4565b500390565b60008251613233818460208701612dbe565b9190910192915050565b6000816000190483118215151615613257576132576131f4565b500290565b60008261326b5761326b6131ca565b500490565b60008219821115613283576132836131f4565b500190565b60006020828403121561329a57600080fd5b8151610f8981612e1d565b60006000198214156132b9576132b96131f4565b506001019056fea26469706673582212203d59560d9092096c6788d3f34dd71e9f3489cf9581b7ab81e6c8051792568e1b64736f6c63430008090033a2646970667358221220de076e19d9ba5663283e208bd6883f4373b30b784e0cd86cc540d695853bd08264736f6c63430008090033",
  "linkReferences": {},
  "deployedLinkReferences": {}
}