{
  "_format": "hh-sol-artifact-1",
  "contractName": "CDeployer",
  "sourceName": "contracts/CDeployer.sol",
  "abi": [
    {
      "inputs": [],
      "stateMutability": "nonpayable",
      "type": "constructor"
    },
    {
      "inputs": [
        {
          "internalType": "address",
          "name": "uniswapV2Pair",
          "type": "address"
        }
      ],
      "name": "deployCollateral",
      "outputs": [
        {
          "internalType": "address",
          "name": "collateral",
          "type": "address"
        }
      ],
      "stateMutability": "nonpayable",
      "type": "function"
    }
  ],
  "bytecode": "0x608060405234801561001057600080fd5b5061311c806100206000396000f3fe608060405234801561001057600080fd5b506004361061002b5760003560e01c80637924fedd14610030575b600080fd5b61004361003e3660046100eb565b61005f565b6040516001600160a01b03909116815260200160405180910390f35b60008060405180602001610072906100de565b601f1982820381018352601f9091011660408190526bffffffffffffffffffffffff1933606090811b8216602084015286901b166034820152909150600090604801604051602081830303815290604052805190602001209050808251602084016000f5949350505050565b612fcb8061011c83390190565b6000602082840312156100fd57600080fd5b81356001600160a01b038116811461011457600080fd5b939250505056fe60806040526002805460ff19908116601217909155600b805490911660011790556715f155637eba0c00600e55670e6ed27d66680000600f5534801561004457600080fd5b50612f77806100546000396000f3fe608060405234801561001057600080fd5b50600436106102695760003560e01c80637321b50111610151578063bb6ff386116100c3578063c548e3c511610087578063c548e3c514610541578063d490e7e014610554578063d505accf14610563578063daf8881814610576578063dd62ed3e14610589578063fff6cae9146105b457600080fd5b8063bb6ff38614610500578063bc25cf7714610513578063bc9bd12a146102af578063bd9a548b14610526578063c45a01551461052e57600080fd5b80639aac2c53116101155780639aac2c53146104a6578063a9059cbb146104b9578063ad7a672f146104cc578063afc8276c146104d5578063b2a02ff1146104e4578063ba9a7a56146104f757600080fd5b80637321b5011461044f5780637ecebe00146104625780638c765e941461048257806395a2251f1461048b57806395d89b411461049e57600080fd5b80633644e515116101ea5780635a0f03c6116101ae5780635a0f03c6146103bb5780636a627842146103e35780636e01be10146103f65780636f13cb83146104095780636f307dc31461041c57806370a082311461042f57600080fd5b80633644e5151461037c5780633a54a2ae146103855780633ba0b9a9146103985780634a5d316c146103a05780634fd42e17146103a857600080fd5b806323b872dd1161023157806323b872dd146102ea5780632fa5ae1b146102fd57806330adf81f1461032d578063313ce56714610354578063356c571f1461037357600080fd5b806306fdde031461026e578063095ea7b31461028c5780630fb60fef146102af57806318160ddd146102cc57806319f3400d146102d5575b600080fd5b6102766105bc565b60405161028391906128e5565b60405180910390f35b61029f61029a366004612930565b61064a565b6040519015158152602001610283565b6102be670de0b6b3a764000081565b604051908152602001610283565b6102be60035481565b6102e86102e33660046129a5565b610661565b005b61029f6102f8366004612a01565b610860565b600b546103159061010090046001600160a01b031681565b6040516001600160a01b039091168152602001610283565b6102be7f6e71edae12b1b97f4d1f60370fef10105fa2faae0126114a169c64845d6126c981565b6002546103619060ff1681565b60405160ff9091168152602001610283565b6102be600e5481565b6102be60065481565b600d54610315906001600160a01b031681565b6102be610929565b6102e8610976565b6102e86103b6366004612a42565b6109e3565b6103ce6103c9366004612a5b565b610a73565b60408051928352602083019190915201610283565b6102be6103f1366004612a5b565b610a8c565b61029f610404366004612930565b610c53565b6103ce610417366004612a78565b610dd6565b600854610315906001600160a01b031681565b6102be61043d366004612a5b565b60046020526000908152604090205481565b6103ce61045d366004612a5b565b610f45565b6102be610470366004612a5b565b60076020526000908152604090205481565b6102be600f5481565b6102be610499366004612a5b565b611120565b61027661127f565b61029f6104b4366004612a01565b61128c565b61029f6104c7366004612930565b611370565b6102be600a5481565b6102be670e92596fd629000081565b6102be6104f2366004612a01565b61137d565b6102be6103e881565b6102e861050e366004612a42565b611582565b6102e8610521366004612a5b565b6115fe565b6103ce6116cd565b600954610315906001600160a01b031681565b6102e861054f366004612aad565b611769565b6102be6715f15565d2c5f00081565b6102e8610571366004612b56565b6118ec565b600c54610315906001600160a01b031681565b6102be610597366004612bcd565b600560209081526000928352604080842090915290825290205481565b6102e8611930565b600080546105c990612c06565b80601f01602080910402602001604051908101604052809291908181526020018280546105f590612c06565b80156106425780601f1061061757610100808354040283529160200191610642565b820191906000526020600020905b81548152906001019060200180831161062557829003601f168201915b505050505081565b6000610657338484611973565b5060015b92915050565b600b5460ff1661068c5760405162461bcd60e51b815260040161068390612c3b565b60405180910390fd5b600b805460ff19169055600a548311156106e35760405162461bcd60e51b815260206004820152601860248201527708ad8cadee67440929ca6aa8c8c9286928a9ca8be8682a6960431b6044820152606401610683565b6106ed84846119d5565b801561075857604051631a9a0d3560e31b81526001600160a01b0385169063d4d069a890610725903390879087908790600401612c65565b600060405180830381600087803b15801561073f57600080fd5b505af1158015610753573d6000803e3d6000fd5b505050505b30600090815260046020526040812054906107976001610791610779610929565b61078b89670de0b6b3a7640000611b1a565b90611ba0565b90611be2565b9050808210156107f35760405162461bcd60e51b815260206004820152602160248201527f456c656f733a20494e53554646494349454e545f52454445454d5f544f4b454e6044820152605360f81b6064820152608401610683565b6107fd3083611c41565b60408051868152602081018490526001600160a01b0388169133917f3f693fff038bb8a046aa76d9516190ac7444f7d69cf952c4cbdc086fdef2d6fc910160405180910390a3505061084d611cc1565b5050600b805460ff191660011790555050565b6001600160a01b03831660009081526005602090815260408083203384529091528120546000191461091457604080518082018252601b81527f456c656f733a205452414e534645525f4e4f545f414c4c4f57454400000000006020808301919091526001600160a01b03871660009081526005825283812033825290915291909120546108ef918490611d76565b6001600160a01b03851660009081526005602090815260408083203384529091529020555b61091f848484611db0565b5060019392505050565b60006003546000148061093c5750600a54155b1561094e5750670de0b6b3a764000090565b61097160035461078b670de0b6b3a7640000600a54611b1a90919063ffffffff16565b905090565b6009546001600160a01b0316156109cf5760405162461bcd60e51b815260206004820152601a60248201527f456c656f733a20464143544f52595f414c52454144595f5345540000000000006044820152606401610683565b600980546001600160a01b03191633179055565b600b5460ff16610a055760405162461bcd60e51b815260040161068390612c3b565b600b805460ff19169055610a2a81670de0b6b3a7640000670e92596fd6290000611e16565b600f8190556040518181527f8a9bb9067f9ecb13a322b548e6df3dd1bd10a54698834dac43ed8f0e765bf94d906020015b60405180910390a150600b805460ff19166001179055565b600080610a838360001980610dd6565b91509150915091565b600b5460009060ff16610ab15760405162461bcd60e51b815260040161068390612c3b565b600b805460ff191690556008546040516370a0823160e01b81523060048201526000916001600160a01b0316906370a082319060240160206040518083038186803b158015610aff57600080fd5b505afa158015610b13573d6000803e3d6000fd5b505050506040513d601f19601f82011682018060405250810190610b379190612cad565b90506000610b50600a5483611eb090919063ffffffff16565b9050610b6f610b5d610929565b61078b83670de0b6b3a7640000611b1a565b925060035460001415610b9757610b88836103e8611eb0565b9250610b9760006103e8611ef2565b60008311610be75760405162461bcd60e51b815260206004820152601760248201527f456c656f733a204d494e545f414d4f554e545f5a45524f0000000000000000006044820152606401610683565b610bf18484611ef2565b60408051828152602081018590526001600160a01b0386169133917f2f00e3cdd69a77be7ed215ec7b2a36784dd158f921fca79ac29deffa353fe6ee910160405180910390a35050610c41611cc1565b600b805460ff19166001179055919050565b6001600160a01b03821660009081526004602052604081205480831115610c7e57600091505061065b565b6000610c8a8483612cdc565b90506000610cac670de0b6b3a764000061078b610ca5610929565b8590611b1a565b600b546040516326b9f4dd60e11b81526001600160a01b03898116600483015292935060009261010090920490911690634d73e9ba9060240160206040518083038186803b158015610cfd57600080fd5b505afa158015610d11573d6000803e3d6000fd5b505050506040513d601f19601f82011682018060405250810190610d359190612cad565b600c546040516326b9f4dd60e11b81526001600160a01b038a8116600483015292935060009290911690634d73e9ba9060240160206040518083038186803b158015610d8057600080fd5b505afa158015610d94573d6000803e3d6000fd5b505050506040513d601f19601f82011682018060405250810190610db89190612cad565b90506000610dc7848484611f64565b159a9950505050505050505050565b600080600019841415610e6957600b546040516326b9f4dd60e11b81526001600160a01b03878116600483015261010090920490911690634d73e9ba9060240160206040518083038186803b158015610e2e57600080fd5b505afa158015610e42573d6000803e3d6000fd5b505050506040513d601f19601f82011682018060405250810190610e669190612cad565b93505b600019831415610ef357600c546040516326b9f4dd60e11b81526001600160a01b03878116600483015290911690634d73e9ba9060240160206040518083038186803b158015610eb857600080fd5b505afa158015610ecc573d6000803e3d6000fd5b505050506040513d601f19601f82011682018060405250810190610ef09190612cad565b92505b6000610f2b670de0b6b3a764000061078b610f0c610929565b6001600160a01b038a1660009081526004602052604090205490611b1a565b9050610f38818686611f64565b9250925050935093915050565b600b546040516326b9f4dd60e11b81526001600160a01b0383811660048301526000928392839261010090920490911690634d73e9ba9060240160206040518083038186803b158015610f9757600080fd5b505afa158015610fab573d6000803e3d6000fd5b505050506040513d601f19601f82011682018060405250810190610fcf9190612cad565b600c546040516326b9f4dd60e11b81526001600160a01b03878116600483015292935060009290911690634d73e9ba9060240160206040518083038186803b15801561101a57600080fd5b505afa15801561102e573d6000803e3d6000fd5b505050506040513d601f19601f820116820180604052508101906110529190612cad565b9050600061106d670de0b6b3a764000061078b610f0c610929565b600d54600854604051630821a3e560e31b81526001600160a01b03918216600482015292935060009291169063410d1f2890602401604080518083038186803b1580156110b957600080fd5b505afa1580156110cd573d6000803e3d6000fd5b505050506040513d601f19601f820116820180604052508101906110f19190612d07565b50905060008061110083611f91565b91509150611111848787858561223c565b97509750505050505050915091565b600b5460009060ff166111455760405162461bcd60e51b815260040161068390612c3b565b600b805460ff191690553060009081526004602052604090205461117d670de0b6b3a764000061078b611176610929565b8490611b1a565b9150600082116111cf5760405162461bcd60e51b815260206004820152601960248201527f456c656f733a2052454445454d5f414d4f554e545f5a45524f000000000000006044820152606401610683565b600a5482111561121c5760405162461bcd60e51b815260206004820152601860248201527708ad8cadee67440929ca6aa8c8c9286928a9ca8be8682a6960431b6044820152606401610683565b6112263082611c41565b61123083836119d5565b60408051838152602081018390526001600160a01b0385169133917f3f693fff038bb8a046aa76d9516190ac7444f7d69cf952c4cbdc086fdef2d6fc910160405180910390a350610c41611cc1565b600180546105c990612c06565b600b54600c546000916001600160a01b0361010090910481169181169085168214806112c95750806001600160a01b0316856001600160a01b0316145b6113155760405162461bcd60e51b815260206004820152601960248201527f456c656f733a20494e56414c49445f424f52524f5741424c45000000000000006044820152606401610683565b6000826001600160a01b0316866001600160a01b0316146113385760001961133a565b845b90506000826001600160a01b0316876001600160a01b03161461135f57600019611361565b855b90506000610dc7898484610dd6565b6000610657338484611db0565b600b5460009061010090046001600160a01b03163314806113a85750600c546001600160a01b031633145b6113c45760405162461bcd60e51b815260040161068390612d48565b60006113cf84610a73565b915050600081116114225760405162461bcd60e51b815260206004820152601d60248201527f456c656f733a20494e53554646494349454e545f53484f525446414c4c0000006044820152606401610683565b600b5460009061010090046001600160a01b031633141561144d576114456116cd565b509050611459565b6114556116cd565b9150505b61148f611464610929565b61078b83611489670de0b6b3a764000061078b600f548b611b1a90919063ffffffff16565b90611b1a565b9250611500836040518060400160405280601b81526020017f456c656f733a204c49515549444154494e475f544f4f5f4d554348000000000081525060046000896001600160a01b03166001600160a01b0316815260200190815260200160002054611d769092919063ffffffff16565b6001600160a01b03808716600090815260046020526040808220939093559088168152205461152f9084611be2565b6001600160a01b038088166000818152600460205260409081902093909355915190871690600080516020612f22833981519152906115719087815260200190565b60405180910390a350509392505050565b600b5460ff166115a45760405162461bcd60e51b815260040161068390612c3b565b600b805460ff191690556115c981670de0b6b3a76400006715f15565d2c5f000611e16565b600e8190556040518181527fdff9a61839be6f6ce5ea77311cc351786a39a9f337c507ff35e7b358fd39c04390602001610a5b565b600b5460ff166116205760405162461bcd60e51b815260040161068390612c3b565b600b805460ff19169055600a546008546040516370a0823160e01b81523060048201526116bd9284926116b8926001600160a01b03909116906370a082319060240160206040518083038186803b15801561167a57600080fd5b505afa15801561168e573d6000803e3d6000fd5b505050506040513d601f19601f820116820180604052508101906116b29190612cad565b90611eb0565b6119d5565b50600b805460ff19166001179055565b600d5460085460405163022351bf60e51b81526001600160a01b0391821660048201526000928392839291169063446a37e0906024016040805180830381600087803b15801561171c57600080fd5b505af1158015611730573d6000803e3d6000fd5b505050506040513d601f19601f820116820180604052508101906117549190612d07565b50905061176081611f91565b92509250509091565b6009546001600160a01b031633146117935760405162461bcd60e51b815260040161068390612d48565b61180687878080601f01602080910402602001604051908101604052809392919081815260200183838082843760009201919091525050604080516020601f8b01819004810282018101909252898152925089915088908190840183828082843760009201919091525061232192505050565b600880546001600160a01b03199081166001600160a01b0386811691909117909255600b8054610100600160a81b03191661010086851602179055600c805490911683831617905560095460408051631d2a515760e11b815290519190921691633a54a2ae916004808301926020929190829003018186803b15801561188b57600080fd5b505afa15801561189f573d6000803e3d6000fd5b505050506040513d601f19601f820116820180604052508101906118c39190612d75565b600d80546001600160a01b0319166001600160a01b039290921691909117905550505050505050565b61191c878787878787877f6e71edae12b1b97f4d1f60370fef10105fa2faae0126114a169c64845d6126c96123e7565b611927878787611973565b50505050505050565b600b5460ff166119525760405162461bcd60e51b815260040161068390612c3b565b600b805460ff19169055611964611cc1565b600b805460ff19166001179055565b6001600160a01b0383811660008181526005602090815260408083209487168084529482529182902085905590518481527f8c5be1e5ebec7d5bd14f71427d1e84f3dd0314c0f7b2291e5b200ac8c7c3b92591015b60405180910390a3505050565b600854604080518082018252601981527f7472616e7366657228616464726573732c75696e74323536290000000000000060209182015281516001600160a01b0386811660248301526044808301879052845180840390910181526064909201845291810180516001600160e01b031663a9059cbb60e01b17905291516000938493921691611a6391612d92565b6000604051808303816000865af19150503d8060008114611aa0576040519150601f19603f3d011682016040523d82523d6000602084013e611aa5565b606091505b5091509150818015611acf575080511580611acf575080806020019051810190611acf9190612dae565b611b145760405162461bcd60e51b8152602060048201526016602482015275115b195bdcce881514905394d1915497d1905253115160521b6044820152606401610683565b50505050565b600082611b295750600061065b565b6000611b358385612dd0565b905082611b428583612e05565b14611b995760405162461bcd60e51b815260206004820152602160248201527f536166654d6174683a206d756c7469706c69636174696f6e206f766572666c6f6044820152607760f81b6064820152608401610683565b9392505050565b6000611b9983836040518060400160405280601a81526020017f536166654d6174683a206469766973696f6e206279207a65726f0000000000008152506125d0565b600080611bef8385612e19565b905083811015611b995760405162461bcd60e51b815260206004820152601b60248201527f536166654d6174683a206164646974696f6e206f766572666c6f7700000000006044820152606401610683565b6001600160a01b038216600090815260046020526040902054611c649082611eb0565b6001600160a01b038316600090815260046020526040902055600354611c8a9082611eb0565b6003556040518181526000906001600160a01b03841690600080516020612f22833981519152906020015b60405180910390a35050565b6008546040516370a0823160e01b81523060048201526001600160a01b03909116906370a082319060240160206040518083038186803b158015611d0457600080fd5b505afa158015611d18573d6000803e3d6000fd5b505050506040513d601f19601f82011682018060405250810190611d3c9190612cad565b600a8190556040519081527f8a0df8ef054fae2c3d2d19a7b322e864870cc9fd3cb07fb9526309c596244bf49060200160405180910390a1565b60008184841115611d9a5760405162461bcd60e51b815260040161068391906128e5565b506000611da78486612cdc565b95945050505050565b611dba8382610c53565b611e065760405162461bcd60e51b815260206004820152601d60248201527f456c656f733a20494e53554646494349454e545f4c49515549444954590000006044820152606401610683565b611e118383836125fe565b505050565b611e1e6126ca565b81831015611e675760405162461bcd60e51b8152602060048201526016602482015275456c656f733a20494e56414c49445f53455454494e4760501b6044820152606401610683565b80831115611e115760405162461bcd60e51b8152602060048201526016602482015275456c656f733a20494e56414c49445f53455454494e4760501b6044820152606401610683565b6000611b9983836040518060400160405280601f81526020017f536166654d6174683a207375627472616374696f6e20756e646572666c6f7700815250611d76565b600354611eff9082611be2565b6003556001600160a01b038216600090815260046020526040902054611f259082611be2565b6001600160a01b038316600081815260046020526040808220939093559151909190600080516020612f2283398151915290611cb59085815260200190565b600080600080611f726116cd565b91509150611f83878787858561223c565b935093505050935093915050565b600080600080600860009054906101000a90046001600160a01b03166001600160a01b0316630902f1ac6040518163ffffffff1660e01b815260040160606040518083038186803b158015611fe557600080fd5b505afa158015611ff9573d6000803e3d6000fd5b505050506040513d601f19601f8201168201806040525081019061201d9190612e48565b50915091506000600860009054906101000a90046001600160a01b03166001600160a01b03166318160ddd6040518163ffffffff1660e01b815260040160206040518083038186803b15801561207257600080fd5b505afa158015612086573d6000803e3d6000fd5b505050506040513d601f19601f820116820180604052508101906120aa9190612cad565b905060006120ca846120bb85612782565b6001600160e01b03169061279b565b905060006120ee6001600160e01b038084169061078b908b16640100000000611b1a565b9050600061210961210483640100000000611b1a565b6127b0565b9050600061213661211b886002612e8b565b6001600160701b031661078b87670de0b6b3a7640000611b1a565b90506000612163612148886002612e8b565b6001600160701b031661078b88670de0b6b3a7640000611b1a565b905061217864010000000061078b8486611b1a565b995061218d8361078b83640100000000611b1a565b985060648a116121df5760405162461bcd60e51b815260206004820152601e60248201527f456c656f733a2050524943455f43414c43554c4154494f4e5f4552524f5200006044820152606401610683565b6064891161222f5760405162461bcd60e51b815260206004820152601e60248201527f456c656f733a2050524943455f43414c43554c4154494f4e5f4552524f5200006044820152606401610683565b5050505050505050915091565b60008080612256670de0b6b3a764000061078b8988611b1a565b90506000612270670de0b6b3a764000061078b8988611b1a565b90508082101561227c57905b61229d670de0b6b3a764000061078b600e5485611b1a90919063ffffffff16565b600e549092506122b99061078b83670de0b6b3a7640000611b1a565b905060006122e2670de0b6b3a764000061078b600f546114898688611be290919063ffffffff16565b9050808a10612303576122f5818b612cdc565b600094509450505050612317565b600061230f8b83612cdc565b945094505050505b9550959350505050565b8151612334906000906020850190612820565b508051612348906001906020840190612820565b5050805160209182012060408051808201825260018152603160f81b9084015280517f8b73c3c69bb8fe3d512ecc4cf759cc79239f7b179b0ffacaa9a75d522b39400f81850152808201929092527fc89efdaa54c0f20c7adf612882df0950f5a951637e0307cdcb4c672f298b8bc660608301524660808301523060a0808401919091528151808403909101815260c090920190528051910120600655565b428510156124285760405162461bcd60e51b815260206004820152600e60248201526d115b195bdcce881156141254915160921b6044820152606401610683565b6001600160a01b0388166000908152600760205260408120805483918b918b918b91908661245583612eba565b909155506040805160208101969096526001600160a01b0394851690860152929091166060840152608083015260a082015260c0810187905260e0016040516020818303038152906040528051906020012090506000600654826040516020016124d692919061190160f01b81526002810192909252602282015260420190565b60408051601f198184030181528282528051602091820120600080855291840180845281905260ff8a169284019290925260608301889052608083018790529092509060019060a0016020604051602081039080840390855afa158015612541573d6000803e3d6000fd5b5050604051601f1901519150506001600160a01b0381161580159061257757508a6001600160a01b0316816001600160a01b0316145b6125c35760405162461bcd60e51b815260206004820152601860248201527f456c656f733a20494e56414c49445f5349474e415455524500000000000000006044820152606401610683565b5050505050505050505050565b600081836125f15760405162461bcd60e51b815260040161068391906128e5565b506000611da78486612e05565b604080518082018252601881527f456c656f733a205452414e534645525f544f4f5f4849474800000000000000006020808301919091526001600160a01b038616600090815260049091529190912054612659918390611d76565b6001600160a01b0380851660009081526004602052604080822093909355908416815220546126889082611be2565b6001600160a01b038084166000818152600460205260409081902093909355915190851690600080516020612f22833981519152906119c89085815260200190565b600960009054906101000a90046001600160a01b03166001600160a01b031663f851a4406040518163ffffffff1660e01b815260040160206040518083038186803b15801561271857600080fd5b505afa15801561272c573d6000803e3d6000fd5b505050506040513d601f19601f820116820180604052508101906127509190612d75565b6001600160a01b0316336001600160a01b0316146127805760405162461bcd60e51b815260040161068390612d48565b565b600061065b600160701b6001600160701b038416612ed5565b6000611b996001600160701b03831684612efb565b6000600382111561281157508060006127ca600283612e05565b6127d5906001612e19565b90505b8181101561280b579050806002816127f08186612e05565b6127fa9190612e19565b6128049190612e05565b90506127d8565b50919050565b811561281b575060015b919050565b82805461282c90612c06565b90600052602060002090601f01602090048101928261284e5760008555612894565b82601f1061286757805160ff1916838001178555612894565b82800160010185558215612894579182015b82811115612894578251825591602001919060010190612879565b506128a09291506128a4565b5090565b5b808211156128a057600081556001016128a5565b60005b838110156128d45781810151838201526020016128bc565b83811115611b145750506000910152565b60208152600082518060208401526129048160408501602087016128b9565b601f01601f19169190910160400192915050565b6001600160a01b038116811461292d57600080fd5b50565b6000806040838503121561294357600080fd5b823561294e81612918565b946020939093013593505050565b60008083601f84011261296e57600080fd5b50813567ffffffffffffffff81111561298657600080fd5b60208301915083602082850101111561299e57600080fd5b9250929050565b600080600080606085870312156129bb57600080fd5b84356129c681612918565b935060208501359250604085013567ffffffffffffffff8111156129e957600080fd5b6129f58782880161295c565b95989497509550505050565b600080600060608486031215612a1657600080fd5b8335612a2181612918565b92506020840135612a3181612918565b929592945050506040919091013590565b600060208284031215612a5457600080fd5b5035919050565b600060208284031215612a6d57600080fd5b8135611b9981612918565b600080600060608486031215612a8d57600080fd5b8335612a9881612918565b95602085013595506040909401359392505050565b600080600080600080600060a0888a031215612ac857600080fd5b873567ffffffffffffffff80821115612ae057600080fd5b612aec8b838c0161295c565b909950975060208a0135915080821115612b0557600080fd5b50612b128a828b0161295c565b9096509450506040880135612b2681612918565b92506060880135612b3681612918565b91506080880135612b4681612918565b8091505092959891949750929550565b600080600080600080600060e0888a031215612b7157600080fd5b8735612b7c81612918565b96506020880135612b8c81612918565b95506040880135945060608801359350608088013560ff81168114612bb057600080fd5b9699959850939692959460a0840135945060c09093013592915050565b60008060408385031215612be057600080fd5b8235612beb81612918565b91506020830135612bfb81612918565b809150509250929050565b600181811c90821680612c1a57607f821691505b6020821081141561280b57634e487b7160e01b600052602260045260246000fd5b60208082526010908201526f115b195bdcce8814915153951154915160821b604082015260600190565b6001600160a01b0385168152602081018490526060604082018190528101829052818360808301376000818301608090810191909152601f909201601f191601019392505050565b600060208284031215612cbf57600080fd5b5051919050565b634e487b7160e01b600052601160045260246000fd5b600082821015612cee57612cee612cc6565b500390565b805163ffffffff8116811461281b57600080fd5b60008060408385031215612d1a57600080fd5b82516001600160e01b0381168114612d3157600080fd5b9150612d3f60208401612cf3565b90509250929050565b602080825260139082015272115b195bdcce8815539055551213d492569151606a1b604082015260600190565b600060208284031215612d8757600080fd5b8151611b9981612918565b60008251612da48184602087016128b9565b9190910192915050565b600060208284031215612dc057600080fd5b81518015158114611b9957600080fd5b6000816000190483118215151615612dea57612dea612cc6565b500290565b634e487b7160e01b600052601260045260246000fd5b600082612e1457612e14612def565b500490565b60008219821115612e2c57612e2c612cc6565b500190565b80516001600160701b038116811461281b57600080fd5b600080600060608486031215612e5d57600080fd5b612e6684612e31565b9250612e7460208501612e31565b9150612e8260408501612cf3565b90509250925092565b60006001600160701b0380831681851681830481118215151615612eb157612eb1612cc6565b02949350505050565b6000600019821415612ece57612ece612cc6565b5060010190565b60006001600160e01b0382811684821681151582840482111615612eb157612eb1612cc6565b60006001600160e01b0383811680612f1557612f15612def565b9216919091049291505056feddf252ad1be2c89b69c2b068fc378daa952ba7f163c4a11628f55a4df523b3efa2646970667358221220b9a2d0111f1e0a2c29abf964fdad0a22f5938b138ac08c9b8a0e185e001e76af64736f6c63430008090033a2646970667358221220e5973abe2105095d6c4dcda4b7008333132b7202bc865020ee8a3d23e896c74664736f6c63430008090033",
  "linkReferences": {},
  "deployedLinkReferences": {}
}