{
  "_format": "hh-sol-artifact-1",
  "contractName": "Collateral",
  "sourceName": "contracts/Collateral.sol",
  "abi": [
    {
      "inputs": [],
      "stateMutability": "nonpayable",
      "type": "constructor"
    },
    {
      "anonymous": false,
      "inputs": [
        {
          "indexed": true,
          "internalType": "address",
          "name": "owner",
          "type": "address"
        },
        {
          "indexed": true,
          "internalType": "address",
          "name": "spender",
          "type": "address"
        },
        {
          "indexed": false,
          "internalType": "uint256",
          "name": "value",
          "type": "uint256"
        }
      ],
      "name": "Approval",
      "type": "event"
    },
    {
      "anonymous": false,
      "inputs": [
        {
          "indexed": true,
          "internalType": "address",
          "name": "sender",
          "type": "address"
        },
        {
          "indexed": true,
          "internalType": "address",
          "name": "minter",
          "type": "address"
        },
        {
          "indexed": false,
          "internalType": "uint256",
          "name": "mintAmount",
          "type": "uint256"
        },
        {
          "indexed": false,
          "internalType": "uint256",
          "name": "mintTokens",
          "type": "uint256"
        }
      ],
      "name": "Mint",
      "type": "event"
    },
    {
      "anonymous": false,
      "inputs": [
        {
          "indexed": false,
          "internalType": "uint256",
          "name": "newLiquidationIncentive",
          "type": "uint256"
        }
      ],
      "name": "NewLiquidationIncentive",
      "type": "event"
    },
    {
      "anonymous": false,
      "inputs": [
        {
          "indexed": false,
          "internalType": "uint256",
          "name": "newSafetyMarginSqrt",
          "type": "uint256"
        }
      ],
      "name": "NewSafetyMargin",
      "type": "event"
    },
    {
      "anonymous": false,
      "inputs": [
        {
          "indexed": true,
          "internalType": "address",
          "name": "sender",
          "type": "address"
        },
        {
          "indexed": true,
          "internalType": "address",
          "name": "redeemer",
          "type": "address"
        },
        {
          "indexed": false,
          "internalType": "uint256",
          "name": "redeemAmount",
          "type": "uint256"
        },
        {
          "indexed": false,
          "internalType": "uint256",
          "name": "redeemTokens",
          "type": "uint256"
        }
      ],
      "name": "Redeem",
      "type": "event"
    },
    {
      "anonymous": false,
      "inputs": [
        {
          "indexed": false,
          "internalType": "uint256",
          "name": "totalBalance",
          "type": "uint256"
        }
      ],
      "name": "Sync",
      "type": "event"
    },
    {
      "anonymous": false,
      "inputs": [
        {
          "indexed": true,
          "internalType": "address",
          "name": "from",
          "type": "address"
        },
        {
          "indexed": true,
          "internalType": "address",
          "name": "to",
          "type": "address"
        },
        {
          "indexed": false,
          "internalType": "uint256",
          "name": "value",
          "type": "uint256"
        }
      ],
      "name": "Transfer",
      "type": "event"
    },
    {
      "inputs": [],
      "name": "DOMAIN_SEPARATOR",
      "outputs": [
        {
          "internalType": "bytes32",
          "name": "",
          "type": "bytes32"
        }
      ],
      "stateMutability": "view",
      "type": "function"
    },
    {
      "inputs": [],
      "name": "LIQUIDATION_INCENTIVE_MAX",
      "outputs": [
        {
          "internalType": "uint256",
          "name": "",
          "type": "uint256"
        }
      ],
      "stateMutability": "view",
      "type": "function"
    },
    {
      "inputs": [],
      "name": "LIQUIDATION_INCENTIVE_MIN",
      "outputs": [
        {
          "internalType": "uint256",
          "name": "",
          "type": "uint256"
        }
      ],
      "stateMutability": "view",
      "type": "function"
    },
    {
      "inputs": [],
      "name": "MINIMUM_LIQUIDITY",
      "outputs": [
        {
          "internalType": "uint256",
          "name": "",
          "type": "uint256"
        }
      ],
      "stateMutability": "view",
      "type": "function"
    },
    {
      "inputs": [],
      "name": "PERMIT_TYPEHASH",
      "outputs": [
        {
          "internalType": "bytes32",
          "name": "",
          "type": "bytes32"
        }
      ],
      "stateMutability": "view",
      "type": "function"
    },
    {
      "inputs": [],
      "name": "SAFETY_MARGIN_SQRT_MAX",
      "outputs": [
        {
          "internalType": "uint256",
          "name": "",
          "type": "uint256"
        }
      ],
      "stateMutability": "view",
      "type": "function"
    },
    {
      "inputs": [],
      "name": "SAFETY_MARGIN_SQRT_MIN",
      "outputs": [
        {
          "internalType": "uint256",
          "name": "",
          "type": "uint256"
        }
      ],
      "stateMutability": "view",
      "type": "function"
    },
    {
      "inputs": [
        {
          "internalType": "string",
          "name": "_name",
          "type": "string"
        },
        {
          "internalType": "string",
          "name": "_symbol",
          "type": "string"
        },
        {
          "internalType": "address",
          "name": "_underlying",
          "type": "address"
        },
        {
          "internalType": "address",
          "name": "_borrowable0",
          "type": "address"
        },
        {
          "internalType": "address",
          "name": "_borrowable1",
          "type": "address"
        }
      ],
      "name": "_initialize",
      "outputs": [],
      "stateMutability": "nonpayable",
      "type": "function"
    },
    {
      "inputs": [],
      "name": "_setFactory",
      "outputs": [],
      "stateMutability": "nonpayable",
      "type": "function"
    },
    {
      "inputs": [
        {
          "internalType": "uint256",
          "name": "newLiquidationIncentive",
          "type": "uint256"
        }
      ],
      "name": "_setLiquidationIncentive",
      "outputs": [],
      "stateMutability": "nonpayable",
      "type": "function"
    },
    {
      "inputs": [
        {
          "internalType": "uint256",
          "name": "newSafetyMarginSqrt",
          "type": "uint256"
        }
      ],
      "name": "_setSafetyMarginSqrt",
      "outputs": [],
      "stateMutability": "nonpayable",
      "type": "function"
    },
    {
      "inputs": [
        {
          "internalType": "address",
          "name": "borrower",
          "type": "address"
        }
      ],
      "name": "accountLiquidity",
      "outputs": [
        {
          "internalType": "uint256",
          "name": "liquidity",
          "type": "uint256"
        },
        {
          "internalType": "uint256",
          "name": "shortfall",
          "type": "uint256"
        }
      ],
      "stateMutability": "nonpayable",
      "type": "function"
    },
    {
      "inputs": [
        {
          "internalType": "address",
          "name": "borrower",
          "type": "address"
        },
        {
          "internalType": "uint256",
          "name": "amount0",
          "type": "uint256"
        },
        {
          "internalType": "uint256",
          "name": "amount1",
          "type": "uint256"
        }
      ],
      "name": "accountLiquidityAmounts",
      "outputs": [
        {
          "internalType": "uint256",
          "name": "liquidity",
          "type": "uint256"
        },
        {
          "internalType": "uint256",
          "name": "shortfall",
          "type": "uint256"
        }
      ],
      "stateMutability": "nonpayable",
      "type": "function"
    },
    {
      "inputs": [
        {
          "internalType": "address",
          "name": "borrower",
          "type": "address"
        }
      ],
      "name": "accountLiquidityStale",
      "outputs": [
        {
          "internalType": "uint256",
          "name": "liquidity",
          "type": "uint256"
        },
        {
          "internalType": "uint256",
          "name": "shortfall",
          "type": "uint256"
        }
      ],
      "stateMutability": "view",
      "type": "function"
    },
    {
      "inputs": [
        {
          "internalType": "address",
          "name": "",
          "type": "address"
        },
        {
          "internalType": "address",
          "name": "",
          "type": "address"
        }
      ],
      "name": "allowance",
      "outputs": [
        {
          "internalType": "uint256",
          "name": "",
          "type": "uint256"
        }
      ],
      "stateMutability": "view",
      "type": "function"
    },
    {
      "inputs": [],
      "name": "amplifyPriceOracle",
      "outputs": [
        {
          "internalType": "address",
          "name": "",
          "type": "address"
        }
      ],
      "stateMutability": "view",
      "type": "function"
    },
    {
      "inputs": [
        {
          "internalType": "address",
          "name": "spender",
          "type": "address"
        },
        {
          "internalType": "uint256",
          "name": "value",
          "type": "uint256"
        }
      ],
      "name": "approve",
      "outputs": [
        {
          "internalType": "bool",
          "name": "",
          "type": "bool"
        }
      ],
      "stateMutability": "nonpayable",
      "type": "function"
    },
    {
      "inputs": [
        {
          "internalType": "address",
          "name": "",
          "type": "address"
        }
      ],
      "name": "balanceOf",
      "outputs": [
        {
          "internalType": "uint256",
          "name": "",
          "type": "uint256"
        }
      ],
      "stateMutability": "view",
      "type": "function"
    },
    {
      "inputs": [],
      "name": "borrowable0",
      "outputs": [
        {
          "internalType": "address",
          "name": "",
          "type": "address"
        }
      ],
      "stateMutability": "view",
      "type": "function"
    },
    {
      "inputs": [],
      "name": "borrowable1",
      "outputs": [
        {
          "internalType": "address",
          "name": "",
          "type": "address"
        }
      ],
      "stateMutability": "view",
      "type": "function"
    },
    {
      "inputs": [
        {
          "internalType": "address",
          "name": "borrower",
          "type": "address"
        },
        {
          "internalType": "address",
          "name": "borrowable",
          "type": "address"
        },
        {
          "internalType": "uint256",
          "name": "accountBorrows",
          "type": "uint256"
        }
      ],
      "name": "canBorrow",
      "outputs": [
        {
          "internalType": "bool",
          "name": "",
          "type": "bool"
        }
      ],
      "stateMutability": "nonpayable",
      "type": "function"
    },
    {
      "inputs": [],
      "name": "decimals",
      "outputs": [
        {
          "internalType": "uint8",
          "name": "",
          "type": "uint8"
        }
      ],
      "stateMutability": "view",
      "type": "function"
    },
    {
      "inputs": [],
      "name": "exchangeRate",
      "outputs": [
        {
          "internalType": "uint256",
          "name": "",
          "type": "uint256"
        }
      ],
      "stateMutability": "view",
      "type": "function"
    },
    {
      "inputs": [],
      "name": "factory",
      "outputs": [
        {
          "internalType": "address",
          "name": "",
          "type": "address"
        }
      ],
      "stateMutability": "view",
      "type": "function"
    },
    {
      "inputs": [
        {
          "internalType": "address",
          "name": "redeemer",
          "type": "address"
        },
        {
          "internalType": "uint256",
          "name": "redeemAmount",
          "type": "uint256"
        },
        {
          "internalType": "bytes",
          "name": "data",
          "type": "bytes"
        }
      ],
      "name": "flashRedeem",
      "outputs": [],
      "stateMutability": "nonpayable",
      "type": "function"
    },
    {
      "inputs": [],
      "name": "getPrices",
      "outputs": [
        {
          "internalType": "uint256",
          "name": "price0",
          "type": "uint256"
        },
        {
          "internalType": "uint256",
          "name": "price1",
          "type": "uint256"
        }
      ],
      "stateMutability": "nonpayable",
      "type": "function"
    },
    {
      "inputs": [],
      "name": "liquidationIncentive",
      "outputs": [
        {
          "internalType": "uint256",
          "name": "",
          "type": "uint256"
        }
      ],
      "stateMutability": "view",
      "type": "function"
    },
    {
      "inputs": [
        {
          "internalType": "address",
          "name": "minter",
          "type": "address"
        }
      ],
      "name": "mint",
      "outputs": [
        {
          "internalType": "uint256",
          "name": "mintTokens",
          "type": "uint256"
        }
      ],
      "stateMutability": "nonpayable",
      "type": "function"
    },
    {
      "inputs": [],
      "name": "name",
      "outputs": [
        {
          "internalType": "string",
          "name": "",
          "type": "string"
        }
      ],
      "stateMutability": "view",
      "type": "function"
    },
    {
      "inputs": [
        {
          "internalType": "address",
          "name": "",
          "type": "address"
        }
      ],
      "name": "nonces",
      "outputs": [
        {
          "internalType": "uint256",
          "name": "",
          "type": "uint256"
        }
      ],
      "stateMutability": "view",
      "type": "function"
    },
    {
      "inputs": [
        {
          "internalType": "address",
          "name": "owner",
          "type": "address"
        },
        {
          "internalType": "address",
          "name": "spender",
          "type": "address"
        },
        {
          "internalType": "uint256",
          "name": "value",
          "type": "uint256"
        },
        {
          "internalType": "uint256",
          "name": "deadline",
          "type": "uint256"
        },
        {
          "internalType": "uint8",
          "name": "v",
          "type": "uint8"
        },
        {
          "internalType": "bytes32",
          "name": "r",
          "type": "bytes32"
        },
        {
          "internalType": "bytes32",
          "name": "s",
          "type": "bytes32"
        }
      ],
      "name": "permit",
      "outputs": [],
      "stateMutability": "nonpayable",
      "type": "function"
    },
    {
      "inputs": [
        {
          "internalType": "address",
          "name": "redeemer",
          "type": "address"
        }
      ],
      "name": "redeem",
      "outputs": [
        {
          "internalType": "uint256",
          "name": "redeemAmount",
          "type": "uint256"
        }
      ],
      "stateMutability": "nonpayable",
      "type": "function"
    },
    {
      "inputs": [],
      "name": "safetyMarginSqrt",
      "outputs": [
        {
          "internalType": "uint256",
          "name": "",
          "type": "uint256"
        }
      ],
      "stateMutability": "view",
      "type": "function"
    },
    {
      "inputs": [
        {
          "internalType": "address",
          "name": "liquidator",
          "type": "address"
        },
        {
          "internalType": "address",
          "name": "borrower",
          "type": "address"
        },
        {
          "internalType": "uint256",
          "name": "repayAmount",
          "type": "uint256"
        }
      ],
      "name": "seize",
      "outputs": [
        {
          "internalType": "uint256",
          "name": "seizeTokens",
          "type": "uint256"
        }
      ],
      "stateMutability": "nonpayable",
      "type": "function"
    },
    {
      "inputs": [
        {
          "internalType": "address",
          "name": "to",
          "type": "address"
        }
      ],
      "name": "skim",
      "outputs": [],
      "stateMutability": "nonpayable",
      "type": "function"
    },
    {
      "inputs": [],
      "name": "symbol",
      "outputs": [
        {
          "internalType": "string",
          "name": "",
          "type": "string"
        }
      ],
      "stateMutability": "view",
      "type": "function"
    },
    {
      "inputs": [],
      "name": "sync",
      "outputs": [],
      "stateMutability": "nonpayable",
      "type": "function"
    },
    {
      "inputs": [
        {
          "internalType": "address",
          "name": "from",
          "type": "address"
        },
        {
          "internalType": "uint256",
          "name": "value",
          "type": "uint256"
        }
      ],
      "name": "tokensUnlocked",
      "outputs": [
        {
          "internalType": "bool",
          "name": "",
          "type": "bool"
        }
      ],
      "stateMutability": "nonpayable",
      "type": "function"
    },
    {
      "inputs": [],
      "name": "totalBalance",
      "outputs": [
        {
          "internalType": "uint256",
          "name": "",
          "type": "uint256"
        }
      ],
      "stateMutability": "view",
      "type": "function"
    },
    {
      "inputs": [],
      "name": "totalSupply",
      "outputs": [
        {
          "internalType": "uint256",
          "name": "",
          "type": "uint256"
        }
      ],
      "stateMutability": "view",
      "type": "function"
    },
    {
      "inputs": [
        {
          "internalType": "address",
          "name": "to",
          "type": "address"
        },
        {
          "internalType": "uint256",
          "name": "value",
          "type": "uint256"
        }
      ],
      "name": "transfer",
      "outputs": [
        {
          "internalType": "bool",
          "name": "",
          "type": "bool"
        }
      ],
      "stateMutability": "nonpayable",
      "type": "function"
    },
    {
      "inputs": [
        {
          "internalType": "address",
          "name": "from",
          "type": "address"
        },
        {
          "internalType": "address",
          "name": "to",
          "type": "address"
        },
        {
          "internalType": "uint256",
          "name": "value",
          "type": "uint256"
        }
      ],
      "name": "transferFrom",
      "outputs": [
        {
          "internalType": "bool",
          "name": "",
          "type": "bool"
        }
      ],
      "stateMutability": "nonpayable",
      "type": "function"
    },
    {
      "inputs": [],
      "name": "underlying",
      "outputs": [
        {
          "internalType": "address",
          "name": "",
          "type": "address"
        }
      ],
      "stateMutability": "view",
      "type": "function"
    }
  ],
  "bytecode": "0x60806040526002805460ff19908116601217909155600b805490911660011790556715f155637eba0c00600e55670e6ed27d66680000600f5534801561004457600080fd5b50612f94806100546000396000f3fe608060405234801561001057600080fd5b50600436106102695760003560e01c80637ecebe0011610151578063bb6ff386116100c3578063c548e3c511610087578063c548e3c514610541578063d490e7e014610554578063d505accf14610563578063daf8881814610576578063dd62ed3e14610589578063fff6cae9146105b457600080fd5b8063bb6ff38614610500578063bc25cf7714610513578063bc9bd12a146102af578063bd9a548b14610526578063c45a01551461052e57600080fd5b8063a330ae9211610115578063a330ae92146104a6578063a9059cbb146104b9578063ad7a672f146104cc578063afc8276c146104d5578063b2a02ff1146104e4578063ba9a7a56146104f757600080fd5b80637ecebe001461044f5780638c765e941461046f57806395a2251f1461047857806395d89b411461048b5780639aac2c531461049357600080fd5b80633644e515116101ea5780636a627842116101ae5780636a627842146103d05780636e01be10146103e35780636f13cb83146103f65780636f307dc31461040957806370a082311461041c5780637321b5011461043c57600080fd5b80633644e5151461037c5780633ba0b9a9146103855780634a5d316c1461038d5780634fd42e17146103955780635a0f03c6146103a857600080fd5b806323b872dd1161023157806323b872dd146102ea5780632fa5ae1b146102fd57806330adf81f1461032d578063313ce56714610354578063356c571f1461037357600080fd5b806306fdde031461026e578063095ea7b31461028c5780630fb60fef146102af57806318160ddd146102cc57806319f3400d146102d5575b600080fd5b6102766105bc565b60405161028391906128fe565b60405180910390f35b61029f61029a366004612949565b61064a565b6040519015158152602001610283565b6102be670de0b6b3a764000081565b604051908152602001610283565b6102be60035481565b6102e86102e33660046129be565b610661565b005b61029f6102f8366004612a1a565b610867565b600b546103159061010090046001600160a01b031681565b6040516001600160a01b039091168152602001610283565b6102be7f6e71edae12b1b97f4d1f60370fef10105fa2faae0126114a169c64845d6126c981565b6002546103619060ff1681565b60405160ff9091168152602001610283565b6102be600e5481565b6102be60065481565b6102be610930565b6102e861097d565b6102e86103a3366004612a5b565b6109ea565b6103bb6103b6366004612a74565b610a7a565b60408051928352602083019190915201610283565b6102be6103de366004612a74565b610a93565b61029f6103f1366004612949565b610c5a565b6103bb610404366004612a91565b610ddd565b600854610315906001600160a01b031681565b6102be61042a366004612a74565b60046020526000908152604090205481565b6103bb61044a366004612a74565b610f4c565b6102be61045d366004612a74565b60076020526000908152604090205481565b6102be600f5481565b6102be610486366004612a74565b611127565b61027661128b565b61029f6104a1366004612a1a565b611298565b600d54610315906001600160a01b031681565b61029f6104c7366004612949565b61137c565b6102be600a5481565b6102be670e92596fd629000081565b6102be6104f2366004612a1a565b611389565b6102be6103e881565b6102e861050e366004612a5b565b61158e565b6102e8610521366004612a74565b61160a565b6103bb6116d9565b600954610315906001600160a01b031681565b6102e861054f366004612ac6565b611775565b6102be6715f15565d2c5f00081565b6102e8610571366004612b6f565b6118f8565b600c54610315906001600160a01b031681565b6102be610597366004612be6565b600560209081526000928352604080842090915290825290205481565b6102e861193c565b600080546105c990612c1f565b80601f01602080910402602001604051908101604052809291908181526020018280546105f590612c1f565b80156106425780601f1061061757610100808354040283529160200191610642565b820191906000526020600020905b81548152906001019060200180831161062557829003601f168201915b505050505081565b600061065733848461197f565b5060015b92915050565b600b5460ff1661068c5760405162461bcd60e51b815260040161068390612c54565b60405180910390fd5b600b805460ff19169055600a548311156106e85760405162461bcd60e51b815260206004820152601a60248201527f416d706c6966793a20494e53554646494349454e545f434153480000000000006044820152606401610683565b6106f284846119e1565b801561075d57604051630988230d60e01b81526001600160a01b03851690630988230d9061072a903390879087908790600401612c80565b600060405180830381600087803b15801561074457600080fd5b505af1158015610758573d6000803e3d6000fd5b505050505b306000908152600460205260408120549061079c600161079661077e610930565b61079089670de0b6b3a7640000611b2d565b90611bb3565b90611bf5565b9050808210156107fa5760405162461bcd60e51b815260206004820152602360248201527f416d706c6966793a20494e53554646494349454e545f52454445454d5f544f4b604482015262454e5360e81b6064820152608401610683565b6108043083611c54565b60408051868152602081018490526001600160a01b0388169133917f3f693fff038bb8a046aa76d9516190ac7444f7d69cf952c4cbdc086fdef2d6fc910160405180910390a35050610854611cd4565b5050600b805460ff191660011790555050565b6001600160a01b03831660009081526005602090815260408083203384529091528120546000191461091b57604080518082018252601d81527f416d706c6966793a205452414e534645525f4e4f545f414c4c4f5745440000006020808301919091526001600160a01b03871660009081526005825283812033825290915291909120546108f6918490611d89565b6001600160a01b03851660009081526005602090815260408083203384529091529020555b610926848484611dc3565b5060019392505050565b6000600354600014806109435750600a54155b156109555750670de0b6b3a764000090565b610978600354610790670de0b6b3a7640000600a54611b2d90919063ffffffff16565b905090565b6009546001600160a01b0316156109d65760405162461bcd60e51b815260206004820152601c60248201527f416d706c6966793a20464143544f52595f414c52454144595f534554000000006044820152606401610683565b600980546001600160a01b03191633179055565b600b5460ff16610a0c5760405162461bcd60e51b815260040161068390612c54565b600b805460ff19169055610a3181670de0b6b3a7640000670e92596fd6290000611e29565b600f8190556040518181527f8a9bb9067f9ecb13a322b548e6df3dd1bd10a54698834dac43ed8f0e765bf94d906020015b60405180910390a150600b805460ff19166001179055565b600080610a8a8360001980610ddd565b91509150915091565b600b5460009060ff16610ab85760405162461bcd60e51b815260040161068390612c54565b600b805460ff191690556008546040516370a0823160e01b81523060048201526000916001600160a01b0316906370a082319060240160206040518083038186803b158015610b0657600080fd5b505afa158015610b1a573d6000803e3d6000fd5b505050506040513d601f19601f82011682018060405250810190610b3e9190612cc8565b90506000610b57600a5483611ec790919063ffffffff16565b9050610b76610b64610930565b61079083670de0b6b3a7640000611b2d565b925060035460001415610b9e57610b8f836103e8611ec7565b9250610b9e60006103e8611f09565b60008311610bee5760405162461bcd60e51b815260206004820152601960248201527f416d706c6966793a204d494e545f414d4f554e545f5a45524f000000000000006044820152606401610683565b610bf88484611f09565b60408051828152602081018590526001600160a01b0386169133917f2f00e3cdd69a77be7ed215ec7b2a36784dd158f921fca79ac29deffa353fe6ee910160405180910390a35050610c48611cd4565b600b805460ff19166001179055919050565b6001600160a01b03821660009081526004602052604081205480831115610c8557600091505061065b565b6000610c918483612cf7565b90506000610cb3670de0b6b3a7640000610790610cac610930565b8590611b2d565b600b546040516326b9f4dd60e11b81526001600160a01b03898116600483015292935060009261010090920490911690634d73e9ba9060240160206040518083038186803b158015610d0457600080fd5b505afa158015610d18573d6000803e3d6000fd5b505050506040513d601f19601f82011682018060405250810190610d3c9190612cc8565b600c546040516326b9f4dd60e11b81526001600160a01b038a8116600483015292935060009290911690634d73e9ba9060240160206040518083038186803b158015610d8757600080fd5b505afa158015610d9b573d6000803e3d6000fd5b505050506040513d601f19601f82011682018060405250810190610dbf9190612cc8565b90506000610dce848484611f7b565b159a9950505050505050505050565b600080600019841415610e7057600b546040516326b9f4dd60e11b81526001600160a01b03878116600483015261010090920490911690634d73e9ba9060240160206040518083038186803b158015610e3557600080fd5b505afa158015610e49573d6000803e3d6000fd5b505050506040513d601f19601f82011682018060405250810190610e6d9190612cc8565b93505b600019831415610efa57600c546040516326b9f4dd60e11b81526001600160a01b03878116600483015290911690634d73e9ba9060240160206040518083038186803b158015610ebf57600080fd5b505afa158015610ed3573d6000803e3d6000fd5b505050506040513d601f19601f82011682018060405250810190610ef79190612cc8565b92505b6000610f32670de0b6b3a7640000610790610f13610930565b6001600160a01b038a1660009081526004602052604090205490611b2d565b9050610f3f818686611f7b565b9250925050935093915050565b600b546040516326b9f4dd60e11b81526001600160a01b0383811660048301526000928392839261010090920490911690634d73e9ba9060240160206040518083038186803b158015610f9e57600080fd5b505afa158015610fb2573d6000803e3d6000fd5b505050506040513d601f19601f82011682018060405250810190610fd69190612cc8565b600c546040516326b9f4dd60e11b81526001600160a01b03878116600483015292935060009290911690634d73e9ba9060240160206040518083038186803b15801561102157600080fd5b505afa158015611035573d6000803e3d6000fd5b505050506040513d601f19601f820116820180604052508101906110599190612cc8565b90506000611074670de0b6b3a7640000610790610f13610930565b600d54600854604051630821a3e560e31b81526001600160a01b03918216600482015292935060009291169063410d1f2890602401604080518083038186803b1580156110c057600080fd5b505afa1580156110d4573d6000803e3d6000fd5b505050506040513d601f19601f820116820180604052508101906110f89190612d22565b50905060008061110783611fa8565b915091506111188487878585612253565b97509750505050505050915091565b600b5460009060ff1661114c5760405162461bcd60e51b815260040161068390612c54565b600b805460ff1916905530600090815260046020526040902054611184670de0b6b3a764000061079061117d610930565b8490611b2d565b9150600082116111d65760405162461bcd60e51b815260206004820152601b60248201527f416d706c6966793a2052454445454d5f414d4f554e545f5a45524f00000000006044820152606401610683565b600a548211156112285760405162461bcd60e51b815260206004820152601a60248201527f416d706c6966793a20494e53554646494349454e545f434153480000000000006044820152606401610683565b6112323082611c54565b61123c83836119e1565b60408051838152602081018390526001600160a01b0385169133917f3f693fff038bb8a046aa76d9516190ac7444f7d69cf952c4cbdc086fdef2d6fc910160405180910390a350610c48611cd4565b600180546105c990612c1f565b600b54600c546000916001600160a01b0361010090910481169181169085168214806112d55750806001600160a01b0316856001600160a01b0316145b6113215760405162461bcd60e51b815260206004820152601b60248201527f416d706c6966793a20494e56414c49445f424f52524f5741424c4500000000006044820152606401610683565b6000826001600160a01b0316866001600160a01b03161461134457600019611346565b845b90506000826001600160a01b0316876001600160a01b03161461136b5760001961136d565b855b90506000610dce898484610ddd565b6000610657338484611dc3565b600b5460009061010090046001600160a01b03163314806113b45750600c546001600160a01b031633145b6113d05760405162461bcd60e51b815260040161068390612d63565b60006113db84610a7a565b9150506000811161142e5760405162461bcd60e51b815260206004820152601f60248201527f416d706c6966793a20494e53554646494349454e545f53484f525446414c4c006044820152606401610683565b600b5460009061010090046001600160a01b0316331415611459576114516116d9565b509050611465565b6114616116d9565b9150505b61149b611470610930565b61079083611495670de0b6b3a7640000610790600f548b611b2d90919063ffffffff16565b90611b2d565b925061150c836040518060400160405280601d81526020017f416d706c6966793a204c49515549444154494e475f544f4f5f4d55434800000081525060046000896001600160a01b03166001600160a01b0316815260200190815260200160002054611d899092919063ffffffff16565b6001600160a01b03808716600090815260046020526040808220939093559088168152205461153b9084611bf5565b6001600160a01b038088166000818152600460205260409081902093909355915190871690600080516020612f3f8339815191529061157d9087815260200190565b60405180910390a350509392505050565b600b5460ff166115b05760405162461bcd60e51b815260040161068390612c54565b600b805460ff191690556115d581670de0b6b3a76400006715f15565d2c5f000611e29565b600e8190556040518181527fdff9a61839be6f6ce5ea77311cc351786a39a9f337c507ff35e7b358fd39c04390602001610a62565b600b5460ff1661162c5760405162461bcd60e51b815260040161068390612c54565b600b805460ff19169055600a546008546040516370a0823160e01b81523060048201526116c99284926116c4926001600160a01b03909116906370a082319060240160206040518083038186803b15801561168657600080fd5b505afa15801561169a573d6000803e3d6000fd5b505050506040513d601f19601f820116820180604052508101906116be9190612cc8565b90611ec7565b6119e1565b50600b805460ff19166001179055565b600d5460085460405163022351bf60e51b81526001600160a01b0391821660048201526000928392839291169063446a37e0906024016040805180830381600087803b15801561172857600080fd5b505af115801561173c573d6000803e3d6000fd5b505050506040513d601f19601f820116820180604052508101906117609190612d22565b50905061176c81611fa8565b92509250509091565b6009546001600160a01b0316331461179f5760405162461bcd60e51b815260040161068390612d63565b61181287878080601f01602080910402602001604051908101604052809392919081815260200183838082843760009201919091525050604080516020601f8b01819004810282018101909252898152925089915088908190840183828082843760009201919091525061233892505050565b600880546001600160a01b03199081166001600160a01b0386811691909117909255600b8054610100600160a81b03191661010086851602179055600c805490911683831617905560095460408051635198574960e11b81529051919092169163a330ae92916004808301926020929190829003018186803b15801561189757600080fd5b505afa1580156118ab573d6000803e3d6000fd5b505050506040513d601f19601f820116820180604052508101906118cf9190612d92565b600d80546001600160a01b0319166001600160a01b039290921691909117905550505050505050565b611928878787878787877f6e71edae12b1b97f4d1f60370fef10105fa2faae0126114a169c64845d6126c96123fe565b61193387878761197f565b50505050505050565b600b5460ff1661195e5760405162461bcd60e51b815260040161068390612c54565b600b805460ff19169055611970611cd4565b600b805460ff19166001179055565b6001600160a01b0383811660008181526005602090815260408083209487168084529482529182902085905590518481527f8c5be1e5ebec7d5bd14f71427d1e84f3dd0314c0f7b2291e5b200ac8c7c3b92591015b60405180910390a3505050565b600854604080518082018252601981527f7472616e7366657228616464726573732c75696e74323536290000000000000060209182015281516001600160a01b0386811660248301526044808301879052845180840390910181526064909201845291810180516001600160e01b031663a9059cbb60e01b17905291516000938493921691611a6f91612daf565b6000604051808303816000865af19150503d8060008114611aac576040519150601f19603f3d011682016040523d82523d6000602084013e611ab1565b606091505b5091509150818015611adb575080511580611adb575080806020019051810190611adb9190612dcb565b611b275760405162461bcd60e51b815260206004820152601860248201527f416d706c6966793a205452414e534645525f4641494c454400000000000000006044820152606401610683565b50505050565b600082611b3c5750600061065b565b6000611b488385612ded565b905082611b558583612e22565b14611bac5760405162461bcd60e51b815260206004820152602160248201527f536166654d6174683a206d756c7469706c69636174696f6e206f766572666c6f6044820152607760f81b6064820152608401610683565b9392505050565b6000611bac83836040518060400160405280601a81526020017f536166654d6174683a206469766973696f6e206279207a65726f0000000000008152506125e9565b600080611c028385612e36565b905083811015611bac5760405162461bcd60e51b815260206004820152601b60248201527f536166654d6174683a206164646974696f6e206f766572666c6f7700000000006044820152606401610683565b6001600160a01b038216600090815260046020526040902054611c779082611ec7565b6001600160a01b038316600090815260046020526040902055600354611c9d9082611ec7565b6003556040518181526000906001600160a01b03841690600080516020612f3f833981519152906020015b60405180910390a35050565b6008546040516370a0823160e01b81523060048201526001600160a01b03909116906370a082319060240160206040518083038186803b158015611d1757600080fd5b505afa158015611d2b573d6000803e3d6000fd5b505050506040513d601f19601f82011682018060405250810190611d4f9190612cc8565b600a8190556040519081527f8a0df8ef054fae2c3d2d19a7b322e864870cc9fd3cb07fb9526309c596244bf49060200160405180910390a1565b60008184841115611dad5760405162461bcd60e51b815260040161068391906128fe565b506000611dba8486612cf7565b95945050505050565b611dcd8382610c5a565b611e195760405162461bcd60e51b815260206004820152601f60248201527f416d706c6966793a20494e53554646494349454e545f4c4951554944495459006044820152606401610683565b611e24838383612617565b505050565b611e316126e3565b81831015611e7c5760405162461bcd60e51b8152602060048201526018602482015277416d706c6966793a20494e56414c49445f53455454494e4760401b6044820152606401610683565b80831115611e245760405162461bcd60e51b8152602060048201526018602482015277416d706c6966793a20494e56414c49445f53455454494e4760401b6044820152606401610683565b6000611bac83836040518060400160405280601f81526020017f536166654d6174683a207375627472616374696f6e20756e646572666c6f7700815250611d89565b600354611f169082611bf5565b6003556001600160a01b038216600090815260046020526040902054611f3c9082611bf5565b6001600160a01b038316600081815260046020526040808220939093559151909190600080516020612f3f83398151915290611cc89085815260200190565b600080600080611f896116d9565b91509150611f9a8787878585612253565b935093505050935093915050565b600080600080600860009054906101000a90046001600160a01b03166001600160a01b0316630902f1ac6040518163ffffffff1660e01b815260040160606040518083038186803b158015611ffc57600080fd5b505afa158015612010573d6000803e3d6000fd5b505050506040513d601f19601f820116820180604052508101906120349190612e65565b50915091506000600860009054906101000a90046001600160a01b03166001600160a01b03166318160ddd6040518163ffffffff1660e01b815260040160206040518083038186803b15801561208957600080fd5b505afa15801561209d573d6000803e3d6000fd5b505050506040513d601f19601f820116820180604052508101906120c19190612cc8565b905060006120e1846120d28561279b565b6001600160e01b0316906127b4565b905060006121056001600160e01b0380841690610790908b16640100000000611b2d565b9050600061212061211b83640100000000611b2d565b6127c9565b9050600061214d612132886002612ea8565b6001600160701b031661079087670de0b6b3a7640000611b2d565b9050600061217a61215f886002612ea8565b6001600160701b031661079088670de0b6b3a7640000611b2d565b905061218f6401000000006107908486611b2d565b99506121a48361079083640100000000611b2d565b985060648a116121f65760405162461bcd60e51b815260206004820181905260248201527f416d706c6966793a2050524943455f43414c43554c4154494f4e5f4552524f526044820152606401610683565b606489116122465760405162461bcd60e51b815260206004820181905260248201527f416d706c6966793a2050524943455f43414c43554c4154494f4e5f4552524f526044820152606401610683565b5050505050505050915091565b6000808061226d670de0b6b3a76400006107908988611b2d565b90506000612287670de0b6b3a76400006107908988611b2d565b90508082101561229357905b6122b4670de0b6b3a7640000610790600e5485611b2d90919063ffffffff16565b600e549092506122d09061079083670de0b6b3a7640000611b2d565b905060006122f9670de0b6b3a7640000610790600f546114958688611bf590919063ffffffff16565b9050808a1061231a5761230c818b612cf7565b60009450945050505061232e565b60006123268b83612cf7565b945094505050505b9550959350505050565b815161234b906000906020850190612839565b50805161235f906001906020840190612839565b5050805160209182012060408051808201825260018152603160f81b9084015280517f8b73c3c69bb8fe3d512ecc4cf759cc79239f7b179b0ffacaa9a75d522b39400f81850152808201929092527fc89efdaa54c0f20c7adf612882df0950f5a951637e0307cdcb4c672f298b8bc660608301524660808301523060a0808401919091528151808403909101815260c090920190528051910120600655565b428510156124415760405162461bcd60e51b815260206004820152601060248201526f105b5c1b1a599e4e881156141254915160821b6044820152606401610683565b6001600160a01b0388166000908152600760205260408120805483918b918b918b91908661246e83612ed7565b909155506040805160208101969096526001600160a01b0394851690860152929091166060840152608083015260a082015260c0810187905260e0016040516020818303038152906040528051906020012090506000600654826040516020016124ef92919061190160f01b81526002810192909252602282015260420190565b60408051601f198184030181528282528051602091820120600080855291840180845281905260ff8a169284019290925260608301889052608083018790529092509060019060a0016020604051602081039080840390855afa15801561255a573d6000803e3d6000fd5b5050604051601f1901519150506001600160a01b0381161580159061259057508a6001600160a01b0316816001600160a01b0316145b6125dc5760405162461bcd60e51b815260206004820152601a60248201527f416d706c6966793a20494e56414c49445f5349474e41545552450000000000006044820152606401610683565b5050505050505050505050565b6000818361260a5760405162461bcd60e51b815260040161068391906128fe565b506000611dba8486612e22565b604080518082018252601a81527f416d706c6966793a205452414e534645525f544f4f5f484947480000000000006020808301919091526001600160a01b038616600090815260049091529190912054612672918390611d89565b6001600160a01b0380851660009081526004602052604080822093909355908416815220546126a19082611bf5565b6001600160a01b038084166000818152600460205260409081902093909355915190851690600080516020612f3f833981519152906119d49085815260200190565b600960009054906101000a90046001600160a01b03166001600160a01b031663f851a4406040518163ffffffff1660e01b815260040160206040518083038186803b15801561273157600080fd5b505afa158015612745573d6000803e3d6000fd5b505050506040513d601f19601f820116820180604052508101906127699190612d92565b6001600160a01b0316336001600160a01b0316146127995760405162461bcd60e51b815260040161068390612d63565b565b600061065b600160701b6001600160701b038416612ef2565b6000611bac6001600160701b03831684612f18565b6000600382111561282a57508060006127e3600283612e22565b6127ee906001612e36565b90505b81811015612824579050806002816128098186612e22565b6128139190612e36565b61281d9190612e22565b90506127f1565b50919050565b8115612834575060015b919050565b82805461284590612c1f565b90600052602060002090601f01602090048101928261286757600085556128ad565b82601f1061288057805160ff19168380011785556128ad565b828001600101855582156128ad579182015b828111156128ad578251825591602001919060010190612892565b506128b99291506128bd565b5090565b5b808211156128b957600081556001016128be565b60005b838110156128ed5781810151838201526020016128d5565b83811115611b275750506000910152565b602081526000825180602084015261291d8160408501602087016128d2565b601f01601f19169190910160400192915050565b6001600160a01b038116811461294657600080fd5b50565b6000806040838503121561295c57600080fd5b823561296781612931565b946020939093013593505050565b60008083601f84011261298757600080fd5b50813567ffffffffffffffff81111561299f57600080fd5b6020830191508360208285010111156129b757600080fd5b9250929050565b600080600080606085870312156129d457600080fd5b84356129df81612931565b935060208501359250604085013567ffffffffffffffff811115612a0257600080fd5b612a0e87828801612975565b95989497509550505050565b600080600060608486031215612a2f57600080fd5b8335612a3a81612931565b92506020840135612a4a81612931565b929592945050506040919091013590565b600060208284031215612a6d57600080fd5b5035919050565b600060208284031215612a8657600080fd5b8135611bac81612931565b600080600060608486031215612aa657600080fd5b8335612ab181612931565b95602085013595506040909401359392505050565b600080600080600080600060a0888a031215612ae157600080fd5b873567ffffffffffffffff80821115612af957600080fd5b612b058b838c01612975565b909950975060208a0135915080821115612b1e57600080fd5b50612b2b8a828b01612975565b9096509450506040880135612b3f81612931565b92506060880135612b4f81612931565b91506080880135612b5f81612931565b8091505092959891949750929550565b600080600080600080600060e0888a031215612b8a57600080fd5b8735612b9581612931565b96506020880135612ba581612931565b95506040880135945060608801359350608088013560ff81168114612bc957600080fd5b9699959850939692959460a0840135945060c09093013592915050565b60008060408385031215612bf957600080fd5b8235612c0481612931565b91506020830135612c1481612931565b809150509250929050565b600181811c90821680612c3357607f821691505b6020821081141561282457634e487b7160e01b600052602260045260246000fd5b602080825260129082015271105b5c1b1a599e4e8814915153951154915160721b604082015260600190565b6001600160a01b0385168152602081018490526060604082018190528101829052818360808301376000818301608090810191909152601f909201601f191601019392505050565b600060208284031215612cda57600080fd5b5051919050565b634e487b7160e01b600052601160045260246000fd5b600082821015612d0957612d09612ce1565b500390565b805163ffffffff8116811461283457600080fd5b60008060408385031215612d3557600080fd5b82516001600160e01b0381168114612d4c57600080fd5b9150612d5a60208401612d0e565b90509250929050565b602080825260159082015274105b5c1b1a599e4e8815539055551213d492569151605a1b604082015260600190565b600060208284031215612da457600080fd5b8151611bac81612931565b60008251612dc18184602087016128d2565b9190910192915050565b600060208284031215612ddd57600080fd5b81518015158114611bac57600080fd5b6000816000190483118215151615612e0757612e07612ce1565b500290565b634e487b7160e01b600052601260045260246000fd5b600082612e3157612e31612e0c565b500490565b60008219821115612e4957612e49612ce1565b500190565b80516001600160701b038116811461283457600080fd5b600080600060608486031215612e7a57600080fd5b612e8384612e4e565b9250612e9160208501612e4e565b9150612e9f60408501612d0e565b90509250925092565b60006001600160701b0380831681851681830481118215151615612ece57612ece612ce1565b02949350505050565b6000600019821415612eeb57612eeb612ce1565b5060010190565b60006001600160e01b0382811684821681151582840482111615612ece57612ece612ce1565b60006001600160e01b0383811680612f3257612f32612e0c565b9216919091049291505056feddf252ad1be2c89b69c2b068fc378daa952ba7f163c4a11628f55a4df523b3efa2646970667358221220d1886dc80a9e15e357b7cbda52f51717f62bb8f906748cf0e11486792c4c6f6964736f6c63430008090033",
  "linkReferences": {},
  "deployedLinkReferences": {}
}