{
  "_format": "hh-sol-artifact-1",
  "contractName": "Factory",
  "sourceName": "contracts/Factory.sol",
  "abi": [
    {
      "inputs": [
        {
          "internalType": "address",
          "name": "_admin",
          "type": "address"
        },
        {
          "internalType": "address",
          "name": "_reservesAdmin",
          "type": "address"
        },
        {
          "internalType": "contract IBDeployer",
          "name": "_bDeployer",
          "type": "address"
        },
        {
          "internalType": "contract ICDeployer",
          "name": "_cDeployer",
          "type": "address"
        },
        {
          "internalType": "contract IEleosPriceOracle",
          "name": "_eleosPriceOracle",
          "type": "address"
        }
      ],
      "stateMutability": "nonpayable",
      "type": "constructor"
    },
    {
      "anonymous": false,
      "inputs": [
        {
          "indexed": true,
          "internalType": "address",
          "name": "uniswapV2Pair",
          "type": "address"
        },
        {
          "indexed": true,
          "internalType": "address",
          "name": "token0",
          "type": "address"
        },
        {
          "indexed": true,
          "internalType": "address",
          "name": "token1",
          "type": "address"
        },
        {
          "indexed": false,
          "internalType": "address",
          "name": "collateral",
          "type": "address"
        },
        {
          "indexed": false,
          "internalType": "address",
          "name": "borrowable0",
          "type": "address"
        },
        {
          "indexed": false,
          "internalType": "address",
          "name": "borrowable1",
          "type": "address"
        },
        {
          "indexed": false,
          "internalType": "uint256",
          "name": "lendingPoolId",
          "type": "uint256"
        }
      ],
      "name": "LendingPoolInitialized",
      "type": "event"
    },
    {
      "anonymous": false,
      "inputs": [
        {
          "indexed": false,
          "internalType": "address",
          "name": "oldAdmin",
          "type": "address"
        },
        {
          "indexed": false,
          "internalType": "address",
          "name": "newAdmin",
          "type": "address"
        }
      ],
      "name": "NewAdmin",
      "type": "event"
    },
    {
      "anonymous": false,
      "inputs": [
        {
          "indexed": false,
          "internalType": "address",
          "name": "oldPendingAdmin",
          "type": "address"
        },
        {
          "indexed": false,
          "internalType": "address",
          "name": "newPendingAdmin",
          "type": "address"
        }
      ],
      "name": "NewPendingAdmin",
      "type": "event"
    },
    {
      "anonymous": false,
      "inputs": [
        {
          "indexed": false,
          "internalType": "address",
          "name": "oldReservesAdmin",
          "type": "address"
        },
        {
          "indexed": false,
          "internalType": "address",
          "name": "newReservesAdmin",
          "type": "address"
        }
      ],
      "name": "NewReservesAdmin",
      "type": "event"
    },
    {
      "anonymous": false,
      "inputs": [
        {
          "indexed": false,
          "internalType": "address",
          "name": "oldReservesManager",
          "type": "address"
        },
        {
          "indexed": false,
          "internalType": "address",
          "name": "newReservesManager",
          "type": "address"
        }
      ],
      "name": "NewReservesManager",
      "type": "event"
    },
    {
      "anonymous": false,
      "inputs": [
        {
          "indexed": false,
          "internalType": "address",
          "name": "oldReservesPendingAdmin",
          "type": "address"
        },
        {
          "indexed": false,
          "internalType": "address",
          "name": "newReservesPendingAdmin",
          "type": "address"
        }
      ],
      "name": "NewReservesPendingAdmin",
      "type": "event"
    },
    {
      "inputs": [],
      "name": "_acceptAdmin",
      "outputs": [],
      "stateMutability": "nonpayable",
      "type": "function"
    },
    {
      "inputs": [],
      "name": "_acceptReservesAdmin",
      "outputs": [],
      "stateMutability": "nonpayable",
      "type": "function"
    },
    {
      "inputs": [
        {
          "internalType": "address",
          "name": "newPendingAdmin",
          "type": "address"
        }
      ],
      "name": "_setPendingAdmin",
      "outputs": [],
      "stateMutability": "nonpayable",
      "type": "function"
    },
    {
      "inputs": [
        {
          "internalType": "address",
          "name": "newReservesManager",
          "type": "address"
        }
      ],
      "name": "_setReservesManager",
      "outputs": [],
      "stateMutability": "nonpayable",
      "type": "function"
    },
    {
      "inputs": [
        {
          "internalType": "address",
          "name": "newReservesPendingAdmin",
          "type": "address"
        }
      ],
      "name": "_setReservesPendingAdmin",
      "outputs": [],
      "stateMutability": "nonpayable",
      "type": "function"
    },
    {
      "inputs": [],
      "name": "admin",
      "outputs": [
        {
          "internalType": "address",
          "name": "",
          "type": "address"
        }
      ],
      "stateMutability": "view",
      "type": "function"
    },
    {
      "inputs": [
        {
          "internalType": "uint256",
          "name": "",
          "type": "uint256"
        }
      ],
      "name": "allLendingPools",
      "outputs": [
        {
          "internalType": "address",
          "name": "",
          "type": "address"
        }
      ],
      "stateMutability": "view",
      "type": "function"
    },
    {
      "inputs": [],
      "name": "allLendingPoolsLength",
      "outputs": [
        {
          "internalType": "uint256",
          "name": "",
          "type": "uint256"
        }
      ],
      "stateMutability": "view",
      "type": "function"
    },
    {
      "inputs": [],
      "name": "bDeployer",
      "outputs": [
        {
          "internalType": "contract IBDeployer",
          "name": "",
          "type": "address"
        }
      ],
      "stateMutability": "view",
      "type": "function"
    },
    {
      "inputs": [],
      "name": "cDeployer",
      "outputs": [
        {
          "internalType": "contract ICDeployer",
          "name": "",
          "type": "address"
        }
      ],
      "stateMutability": "view",
      "type": "function"
    },
    {
      "inputs": [
        {
          "internalType": "address",
          "name": "uniswapV2Pair",
          "type": "address"
        }
      ],
      "name": "createBorrowable0",
      "outputs": [
        {
          "internalType": "address",
          "name": "borrowable0",
          "type": "address"
        }
      ],
      "stateMutability": "nonpayable",
      "type": "function"
    },
    {
      "inputs": [
        {
          "internalType": "address",
          "name": "uniswapV2Pair",
          "type": "address"
        }
      ],
      "name": "createBorrowable1",
      "outputs": [
        {
          "internalType": "address",
          "name": "borrowable1",
          "type": "address"
        }
      ],
      "stateMutability": "nonpayable",
      "type": "function"
    },
    {
      "inputs": [
        {
          "internalType": "address",
          "name": "uniswapV2Pair",
          "type": "address"
        }
      ],
      "name": "createCollateral",
      "outputs": [
        {
          "internalType": "address",
          "name": "collateral",
          "type": "address"
        }
      ],
      "stateMutability": "nonpayable",
      "type": "function"
    },
    {
      "inputs": [],
      "name": "eleosPriceOracle",
      "outputs": [
        {
          "internalType": "contract IEleosPriceOracle",
          "name": "",
          "type": "address"
        }
      ],
      "stateMutability": "view",
      "type": "function"
    },
    {
      "inputs": [
        {
          "internalType": "address",
          "name": "",
          "type": "address"
        }
      ],
      "name": "getLendingPool",
      "outputs": [
        {
          "internalType": "bool",
          "name": "initialized",
          "type": "bool"
        },
        {
          "internalType": "uint24",
          "name": "lendingPoolId",
          "type": "uint24"
        },
        {
          "internalType": "address",
          "name": "collateral",
          "type": "address"
        },
        {
          "internalType": "address",
          "name": "borrowable0",
          "type": "address"
        },
        {
          "internalType": "address",
          "name": "borrowable1",
          "type": "address"
        }
      ],
      "stateMutability": "view",
      "type": "function"
    },
    {
      "inputs": [
        {
          "internalType": "address",
          "name": "uniswapV2Pair",
          "type": "address"
        }
      ],
      "name": "initializeLendingPool",
      "outputs": [],
      "stateMutability": "nonpayable",
      "type": "function"
    },
    {
      "inputs": [],
      "name": "pendingAdmin",
      "outputs": [
        {
          "internalType": "address",
          "name": "",
          "type": "address"
        }
      ],
      "stateMutability": "view",
      "type": "function"
    },
    {
      "inputs": [],
      "name": "reservesAdmin",
      "outputs": [
        {
          "internalType": "address",
          "name": "",
          "type": "address"
        }
      ],
      "stateMutability": "view",
      "type": "function"
    },
    {
      "inputs": [],
      "name": "reservesManager",
      "outputs": [
        {
          "internalType": "address",
          "name": "",
          "type": "address"
        }
      ],
      "stateMutability": "view",
      "type": "function"
    },
    {
      "inputs": [],
      "name": "reservesPendingAdmin",
      "outputs": [
        {
          "internalType": "address",
          "name": "",
          "type": "address"
        }
      ],
      "stateMutability": "view",
      "type": "function"
    }
  ],
  "bytecode": "0x60806040523480156200001157600080fd5b506040516200158e3803806200158e833981016040819052620000349162000126565b600080546001600160a01b03199081166001600160a01b03888116918217845560028054841689831617905560078054841688831617905560088054841687831617905560098054909316908516179091556040805192835260208301919091527ff9ffabca9c8276e99321725bcb43fb076a6c66a54b7f21c4e8146d8519b417dc910160405180910390a160408051600081526001600160a01b03861660208201527fa328ba21363a99cbf330243928bb26a15acf20bf43166ef838e67ff5d84d4ae7910160405180910390a15050505050620001a6565b6001600160a01b03811681146200012357600080fd5b50565b600080600080600060a086880312156200013f57600080fd5b85516200014c816200010d565b60208701519095506200015f816200010d565b604087015190945062000172816200010d565b606087015190935062000185816200010d565b608087015190925062000198816200010d565b809150509295509295909350565b6113d880620001b66000396000f3fe608060405234801561001057600080fd5b506004361061012c5760003560e01c80639e1348e3116100ad578063d407112711610071578063d4071127146102de578063db5a2690146102f1578063e9c714f214610304578063eb5ab75f1461030c578063f851a4401461031f57600080fd5b80639e1348e31461027f578063b1ccc03e14610292578063b658ca75146102a5578063b71d1a0c146102b8578063cbed6d71146102cb57600080fd5b806349a78838116100f457806349a788381461022b578063714c02061461023e5780637a4660d51461024f578063822d73b214610262578063998c077d1461027557600080fd5b80630572bf5f1461013157806323c6145d146101c757806326782247146101f2578063345ef941146102055780633a54a2ae14610218575b600080fd5b61018661013f3660046111fd565b60056020526000908152604090208054600182015460029092015460ff82169262ffffff610100840416926001600160a01b03640100000000909104811692918116911685565b60408051951515865262ffffff90941660208601526001600160a01b03928316938501939093528116606084015216608082015260a0015b60405180910390f35b6101da6101d53660046111fd565b610332565b6040516001600160a01b0390911681526020016101be565b6001546101da906001600160a01b031681565b6004546101da906001600160a01b031681565b6009546101da906001600160a01b031681565b6101da6102393660046111fd565b6104a4565b6006546040519081526020016101be565b6008546101da906001600160a01b031681565b6002546101da906001600160a01b031681565b61027d610605565b005b6003546101da906001600160a01b031681565b61027d6102a03660046111fd565b6106e0565b61027d6102b33660046111fd565b610764565b61027d6102c63660046111fd565b610c68565b6101da6102d93660046111fd565b610cec565b6101da6102ec366004611221565b610e4d565b6007546101da906001600160a01b031681565b61027d610e77565b61027d61031a3660046111fd565b610f4a565b6000546101da906001600160a01b031681565b600061033d82610fce565b50506001600160a01b03828116600090815260056020526040902054640100000000900416156103885760405162461bcd60e51b815260040161037f9061123a565b60405180910390fd5b600854604051637924fedd60e01b81526001600160a01b03848116600483015290911690637924fedd90602401602060405180830381600087803b1580156103cf57600080fd5b505af11580156103e3573d6000803e3d6000fd5b505050506040513d601f19601f820116820180604052508101906104079190611269565b9050806001600160a01b0316634a5d316c6040518163ffffffff1660e01b8152600401600060405180830381600087803b15801561044457600080fd5b505af1158015610458573d6000803e3d6000fd5b50505050610465826110bc565b6001600160a01b039182166000908152600560205260409020805492821664010000000002640100000000600160c01b03199093169290921790915590565b60006104af82610fce565b50506001600160a01b0382811660009081526005602052604090206001015416156104ec5760405162461bcd60e51b815260040161037f9061123a565b6007546040516354bcd7ad60e01b81526001600160a01b03848116600483015260006024830152909116906354bcd7ad90604401602060405180830381600087803b15801561053a57600080fd5b505af115801561054e573d6000803e3d6000fd5b505050506040513d601f19601f820116820180604052508101906105729190611269565b9050806001600160a01b0316634a5d316c6040518163ffffffff1660e01b8152600401600060405180830381600087803b1580156105af57600080fd5b505af11580156105c3573d6000803e3d6000fd5b505050506105d0826110bc565b6001600160a01b03918216600090815260056020526040902060010180546001600160a01b0319169282169290921790915590565b6003546001600160a01b0316331461062f5760405162461bcd60e51b815260040161037f90611286565b60028054600380546001600160a01b038082166001600160a01b031980861682179096559490911690915560408051919092168082526020820184905292917fa328ba21363a99cbf330243928bb26a15acf20bf43166ef838e67ff5d84d4ae7910160405180910390a1604080516001600160a01b0383168152600060208201527f01d5e27ed5584d16c62ba1a14cfde0783f979d4797a3fc41342aff17d8ef5b4191015b60405180910390a15050565b6002546001600160a01b0316331461070a5760405162461bcd60e51b815260040161037f90611286565b600380546001600160a01b038381166001600160a01b031983168117909355604080519190921680825260208201939093527f01d5e27ed5584d16c62ba1a14cfde0783f979d4797a3fc41342aff17d8ef5b4191016106d4565b60008061077083610fce565b6001600160a01b03808616600090815260056020908152604091829020825160a081018452815460ff8116158015835262ffffff61010083041694830194909452640100000000900485169381019390935260018101548416606084015260020154909216608082015292945090925061082c5760405162461bcd60e51b815260206004820152601a60248201527f456c656f733a20414c52454144595f494e495449414c495a4544000000000000604482015260640161037f565b60408101516001600160a01b03166108925760405162461bcd60e51b815260206004820152602360248201527f456c656f733a20434f4c4c41544552414c495a41424c455f4e4f545f4352454160448201526215115160ea1b606482015260840161037f565b60608101516001600160a01b03166108ec5760405162461bcd60e51b815260206004820152601e60248201527f456c656f733a20424f52524f5741424c45305f4e4f545f435245415445440000604482015260640161037f565b60808101516001600160a01b03166109465760405162461bcd60e51b815260206004820152601e60248201527f456c656f733a20424f52524f5741424c45315f4e4f545f435245415445440000604482015260640161037f565b600954604051630d3c450160e11b81526001600160a01b0386811660048301526000921690631a788a029060240160c06040518083038186803b15801561098c57600080fd5b505afa1580156109a0573d6000803e3d6000fd5b505050506040513d601f19601f820116820180604052508101906109c491906112dc565b9550505050505080610a305760095460405163189acdbd60e31b81526001600160a01b0387811660048301529091169063c4d66de890602401600060405180830381600087803b158015610a1757600080fd5b505af1158015610a2b573d6000803e3d6000fd5b505050505b60408083015160608401516080850151925163c548e3c560e01b815260a06004820152601060a48201526f115b195bdcc810dbdb1b185d195c985b60821b60c482015260e06024820152600660e48201526563454c454f5360d01b6101048201526001600160a01b03898116604483015291821660648201529281166084840152169063c548e3c59061012401600060405180830381600087803b158015610ad757600080fd5b505af1158015610aeb573d6000803e3d6000fd5b5050505081606001516001600160a01b0316636a030c118584604001516040518363ffffffff1660e01b8152600401610b25929190611342565b600060405180830381600087803b158015610b3f57600080fd5b505af1158015610b53573d6000803e3d6000fd5b5050505081608001516001600160a01b0316636a030c118484604001516040518363ffffffff1660e01b8152600401610b8d929190611342565b600060405180830381600087803b158015610ba757600080fd5b505af1158015610bbb573d6000803e3d6000fd5b5050506001600160a01b03808716600081815260056020908152604091829020805460ff1916600117905586820151606088015160808901519289015193518a87169750958b16957f4c3ab495dc8ebd1b2f3232d7632e54411bc7e4d111475e7fbbd5547d9a28c49594610c5994916001600160a01b03948516815292841660208401529216604082015262ffffff91909116606082015260800190565b60405180910390a45050505050565b6000546001600160a01b03163314610c925760405162461bcd60e51b815260040161037f90611286565b600180546001600160a01b038381166001600160a01b031983168117909355604080519190921680825260208201939093527fca4f2f25d0898edd99413412fb94012f9e54ec8142f9b093e7720646a95b16a991016106d4565b6000610cf782610fce565b50506001600160a01b038281166000908152600560205260409020600201541615610d345760405162461bcd60e51b815260040161037f9061123a565b6007546040516354bcd7ad60e01b81526001600160a01b03848116600483015260016024830152909116906354bcd7ad90604401602060405180830381600087803b158015610d8257600080fd5b505af1158015610d96573d6000803e3d6000fd5b505050506040513d601f19601f82011682018060405250810190610dba9190611269565b9050806001600160a01b0316634a5d316c6040518163ffffffff1660e01b8152600401600060405180830381600087803b158015610df757600080fd5b505af1158015610e0b573d6000803e3d6000fd5b50505050610e18826110bc565b6001600160a01b03918216600090815260056020526040902060020180546001600160a01b0319169282169290921790915590565b60068181548110610e5d57600080fd5b6000918252602090912001546001600160a01b0316905081565b6001546001600160a01b03163314610ea15760405162461bcd60e51b815260040161037f90611286565b60008054600180546001600160a01b038082166001600160a01b031980861682179096559490911690915560408051919092168082526020820184905292917ff9ffabca9c8276e99321725bcb43fb076a6c66a54b7f21c4e8146d8519b417dc910160405180910390a1604080516001600160a01b0383168152600060208201527fca4f2f25d0898edd99413412fb94012f9e54ec8142f9b093e7720646a95b16a991016106d4565b6002546001600160a01b03163314610f745760405162461bcd60e51b815260040161037f90611286565b600480546001600160a01b038381166001600160a01b031983168117909355604080519190921680825260208201939093527f324bacfad26225895fcf55780481bec4ce49013c92500fa1c25626ff43fbf66191016106d4565b600080826001600160a01b0316630dfe16816040518163ffffffff1660e01b815260040160206040518083038186803b15801561100a57600080fd5b505afa15801561101e573d6000803e3d6000fd5b505050506040513d601f19601f820116820180604052508101906110429190611269565b9150826001600160a01b031663d21220a76040518163ffffffff1660e01b815260040160206040518083038186803b15801561107d57600080fd5b505afa158015611091573d6000803e3d6000fd5b505050506040513d601f19601f820116820180604052508101906110b59190611269565b9050915091565b6001600160a01b038116600090815260056020526040902054610100900462ffffff16156110e75750565b60068054600180820183557ff652222313e28459528d920b65115c16c04f3efc82aaedc97be59f3f377c0d3f90910180546001600160a01b03199081166001600160a01b039586169081179092556040805160a0810182526000808252955462ffffff9081166020808401918252838501898152606085018a8152608086018b8152988b52600590925294909820925183549151945163ffffffff1990921690151563ffffff00191617610100949092169390930217640100000000600160c01b0319166401000000009288169290920291909117815593519284018054821693861693909317909255516002909201805490911691909216179055565b6001600160a01b03811681146111fa57600080fd5b50565b60006020828403121561120f57600080fd5b813561121a816111e5565b9392505050565b60006020828403121561123357600080fd5b5035919050565b602080825260159082015274456c656f733a20414c52454144595f45584953545360581b604082015260600190565b60006020828403121561127b57600080fd5b815161121a816111e5565b602080825260139082015272115b195bdcce8815539055551213d492569151606a1b604082015260600190565b805163ffffffff811681146112c757600080fd5b919050565b805180151581146112c757600080fd5b60008060008060008060c087890312156112f557600080fd5b865195506020870151945061130c604088016112b3565b935061131a606088016112b3565b9250611328608088016112cc565b915061133660a088016112cc565b90509295509295509295565b60808082526010908201526f456c656f7320426f72726f7761626c6560801b60a082015260c0602082018190526006908201526562454c454f5360d01b60e08201526001600160a01b03928316604082015291166060820152610100019056fea26469706673582212207157d69965b244cbe92c9373e0bfb9098effaa8840431a1e7b23af4ea000e26664736f6c63430008090033",
  "linkReferences": {},
  "deployedLinkReferences": {}
}