{
  "_format": "hh-sol-artifact-1",
  "contractName": "EleosPriceOracle",
  "sourceName": "contracts/EleosPriceOracle.sol",
  "abi": [
    {
      "inputs": [],
      "stateMutability": "nonpayable",
      "type": "constructor"
    },
    {
      "anonymous": false,
      "inputs": [
        {
          "indexed": true,
          "internalType": "address",
          "name": "pair",
          "type": "address"
        },
        {
          "indexed": false,
          "internalType": "uint256",
          "name": "priceCumulative",
          "type": "uint256"
        },
        {
          "indexed": false,
          "internalType": "uint32",
          "name": "blockTimestamp",
          "type": "uint32"
        },
        {
          "indexed": false,
          "internalType": "bool",
          "name": "latestIsSlotA",
          "type": "bool"
        }
      ],
      "name": "PriceUpdate",
      "type": "event"
    },
    {
      "inputs": [],
      "name": "MIN_T",
      "outputs": [
        {
          "internalType": "uint32",
          "name": "",
          "type": "uint32"
        }
      ],
      "stateMutability": "view",
      "type": "function"
    },
    {
      "inputs": [],
      "name": "getBlockTimestamp",
      "outputs": [
        {
          "internalType": "uint32",
          "name": "",
          "type": "uint32"
        }
      ],
      "stateMutability": "view",
      "type": "function"
    },
    {
      "inputs": [
        {
          "internalType": "address",
          "name": "",
          "type": "address"
        }
      ],
      "name": "getPair",
      "outputs": [
        {
          "internalType": "uint256",
          "name": "priceCumulativeSlotA",
          "type": "uint256"
        },
        {
          "internalType": "uint256",
          "name": "priceCumulativeSlotB",
          "type": "uint256"
        },
        {
          "internalType": "uint32",
          "name": "lastUpdateSlotA",
          "type": "uint32"
        },
        {
          "internalType": "uint32",
          "name": "lastUpdateSlotB",
          "type": "uint32"
        },
        {
          "internalType": "bool",
          "name": "latestIsSlotA",
          "type": "bool"
        },
        {
          "internalType": "bool",
          "name": "initialized",
          "type": "bool"
        }
      ],
      "stateMutability": "view",
      "type": "function"
    },
    {
      "inputs": [
        {
          "internalType": "address",
          "name": "uniswapV2Pair",
          "type": "address"
        }
      ],
      "name": "getResult",
      "outputs": [
        {
          "internalType": "uint224",
          "name": "price",
          "type": "uint224"
        },
        {
          "internalType": "uint32",
          "name": "T",
          "type": "uint32"
        }
      ],
      "stateMutability": "nonpayable",
      "type": "function"
    },
    {
      "inputs": [
        {
          "internalType": "address",
          "name": "uniswapV2Pair",
          "type": "address"
        }
      ],
      "name": "getResultStale",
      "outputs": [
        {
          "internalType": "uint224",
          "name": "price",
          "type": "uint224"
        },
        {
          "internalType": "uint32",
          "name": "T",
          "type": "uint32"
        }
      ],
      "stateMutability": "view",
      "type": "function"
    },
    {
      "inputs": [
        {
          "internalType": "address",
          "name": "uniswapV2Pair",
          "type": "address"
        }
      ],
      "name": "initialize",
      "outputs": [],
      "stateMutability": "nonpayable",
      "type": "function"
    }
  ],
  "bytecode": "0x608060405234801561001057600080fd5b50610ac7806100206000396000f3fe608060405234801561001057600080fd5b50600436106100625760003560e01c80631a788a0214610067578063410d1f28146100ff578063446a37e014610136578063796b89b914610149578063c4d66de814610166578063f51b55311461017b575b600080fd5b6100bf610075366004610886565b60006020819052908152604090208054600182015460029092015490919063ffffffff8082169164010000000081049091169060ff600160401b8204811691600160481b90041686565b60408051968752602087019590955263ffffffff938416948601949094529116606084015215156080830152151560a082015260c0015b60405180910390f35b61011261010d366004610886565b610184565b604080516001600160e01b03909316835263ffffffff9091166020830152016100f6565b610112610144366004610886565b61033a565b61015161053d565b60405163ffffffff90911681526020016100f6565b610179610174366004610886565b610553565b005b6101516104b081565b6001600160a01b038116600090815260208181526040808320815160c081018352815481526001820154938101939093526002015463ffffffff808216928401929092526401000000008104909116606083015260ff600160401b8204811615156080840152600160481b90910416151560a082018190528291906102245760405162461bcd60e51b815260040161021b906108af565b60405180910390fd5b6001600160a01b03841660009081526020819052604081209061024561053d565b90506000836080015161025c578360600151610262565b83604001515b9050600061026f8861068d565b90506000856080015161028657856040015161028c565b85606001515b9250856080015161029e5785516102a4565b85602001515b90506102b08385610906565b96506104b063ffffffff8816101561030a5760405162461bcd60e51b815260206004820152601b60248201527f456c656f7350726963654f7261636c653a204e4f545f52454144590000000000604482015260640161021b565b61032d63ffffffff881661031e838561092b565b6103289190610958565b6107e3565b9750505050505050915091565b6001600160a01b038116600090815260208181526040808320815160c081018352815481526001820154938101939093526002015463ffffffff808216928401929092526401000000008104909116606083015260ff600160401b8204811615156080840152600160481b90910416151560a082018190528291906103d15760405162461bcd60e51b815260040161021b906108af565b6001600160a01b0384166000908152602081905260408120906103f261053d565b90506000836080015161040957836060015161040f565b83604001515b9050600061041c8861068d565b905060006104b061042d8486610906565b63ffffffff161061052057856080015161044b57856020015161044e565b85515b9050856080015115610488576001850182905560028501805467ffffffff00000000191664010000000063ffffffff8716021790556104a3565b81855560028501805463ffffffff191663ffffffff86161790555b608086015160028601805468ff000000000000000019169115600160401b81029290921790556040805184815263ffffffff87166020820152908101919091526001600160a01b038a16907fc58c63744da19faddae8e37958053493f49d71b8f78d4facf6002cd1c2618fcf9060600160405180910390a2610533565b856080015161028657856040015161028c565b6102b08385610906565b600061054e6401000000004261096c565b905090565b6001600160a01b03811660009081526020819052604090206002810154600160481b900460ff16156105d55760405162461bcd60e51b815260206004820152602560248201527f456c656f7350726963654f7261636c653a20414c52454144595f494e49544941604482015264131256915160da1b606482015260840161021b565b60006105e08361068d565b905060006105ec61053d565b828455600180850184905560028501805467ffffffffffffffff191663ffffffff841690811764010000000082021769ffff000000000000000019166901010000000000000000179091556040805186815260208101929092528101919091529091506001600160a01b038516907fc58c63744da19faddae8e37958053493f49d71b8f78d4facf6002cd1c2618fcf9060600160405180910390a250505050565b6000816001600160a01b0316635909c0d56040518163ffffffff1660e01b815260040160206040518083038186803b1580156106c857600080fd5b505afa1580156106dc573d6000803e3d6000fd5b505050506040513d601f19601f820116820180604052508101906107009190610980565b90506000806000846001600160a01b0316630902f1ac6040518163ffffffff1660e01b815260040160606040518083038186803b15801561074057600080fd5b505afa158015610754573d6000803e3d6000fd5b505050506040513d601f19601f8201168201806040525081019061077891906109b5565b925092509250600061079c8461078d8561084b565b6001600160e01b03169061086a565b90506000826107a961053d565b6107b39190610906565b90506107ce63ffffffff82166001600160e01b038416610a05565b6107d89087610a24565b979650505050505050565b60006001600160e01b038211156108475760405162461bcd60e51b815260206004820152602260248201527f456c656f7350726963654f7261636c653a2055494e543232345f4f564552464c6044820152614f5760f01b606482015260840161021b565b5090565b6000610864600160701b6001600160701b038416610a3c565b92915050565b600061087f6001600160701b03831684610a6b565b9392505050565b60006020828403121561089857600080fd5b81356001600160a01b038116811461087f57600080fd5b60208082526021908201527f456c656f7350726963654f7261636c653a204e4f545f494e495449414c495a456040820152601160fa1b606082015260800190565b634e487b7160e01b600052601160045260246000fd5b600063ffffffff83811690831681811015610923576109236108f0565b039392505050565b60008282101561093d5761093d6108f0565b500390565b634e487b7160e01b600052601260045260246000fd5b60008261096757610967610942565b500490565b60008261097b5761097b610942565b500690565b60006020828403121561099257600080fd5b5051919050565b80516001600160701b03811681146109b057600080fd5b919050565b6000806000606084860312156109ca57600080fd5b6109d384610999565b92506109e160208501610999565b9150604084015163ffffffff811681146109fa57600080fd5b809150509250925092565b6000816000190483118215151615610a1f57610a1f6108f0565b500290565b60008219821115610a3757610a376108f0565b500190565b60006001600160e01b0382811684821681151582840482111615610a6257610a626108f0565b02949350505050565b60006001600160e01b0383811680610a8557610a85610942565b9216919091049291505056fea2646970667358221220384ebe1b91fc34b3cfe9bf970c7606917bf31f7c65a8b4bcf1b3ddccc4c0888464736f6c63430008090033",
  "linkReferences": {},
  "deployedLinkReferences": {}
}