{
  "_format": "hh-sol-artifact-1",
  "contractName": "FarmingPool",
  "sourceName": "contracts/FarmingPool.sol",
  "abi": [
    {
      "inputs": [
        {
          "internalType": "address",
          "name": "imx_",
          "type": "address"
        },
        {
          "internalType": "address",
          "name": "claimable_",
          "type": "address"
        },
        {
          "internalType": "address",
          "name": "borrowable_",
          "type": "address"
        },
        {
          "internalType": "address",
          "name": "vester_",
          "type": "address"
        }
      ],
      "stateMutability": "nonpayable",
      "type": "constructor"
    },
    {
      "anonymous": false,
      "inputs": [
        {
          "indexed": false,
          "internalType": "uint256",
          "name": "epochBegin",
          "type": "uint256"
        },
        {
          "indexed": false,
          "internalType": "uint256",
          "name": "epochAmount",
          "type": "uint256"
        }
      ],
      "name": "Advance",
      "type": "event"
    },
    {
      "anonymous": false,
      "inputs": [
        {
          "indexed": true,
          "internalType": "address",
          "name": "account",
          "type": "address"
        },
        {
          "indexed": false,
          "internalType": "uint256",
          "name": "amount",
          "type": "uint256"
        }
      ],
      "name": "Claim",
      "type": "event"
    },
    {
      "anonymous": false,
      "inputs": [
        {
          "indexed": true,
          "internalType": "address",
          "name": "account",
          "type": "address"
        },
        {
          "indexed": false,
          "internalType": "uint256",
          "name": "shares",
          "type": "uint256"
        },
        {
          "indexed": false,
          "internalType": "uint256",
          "name": "totalShares",
          "type": "uint256"
        }
      ],
      "name": "EditRecipient",
      "type": "event"
    },
    {
      "anonymous": false,
      "inputs": [
        {
          "indexed": true,
          "internalType": "address",
          "name": "account",
          "type": "address"
        },
        {
          "indexed": false,
          "internalType": "uint256",
          "name": "lastShareIndex",
          "type": "uint256"
        },
        {
          "indexed": false,
          "internalType": "uint256",
          "name": "credit",
          "type": "uint256"
        }
      ],
      "name": "UpdateCredit",
      "type": "event"
    },
    {
      "anonymous": false,
      "inputs": [
        {
          "indexed": false,
          "internalType": "uint256",
          "name": "shareIndex",
          "type": "uint256"
        }
      ],
      "name": "UpdateShareIndex",
      "type": "event"
    },
    {
      "inputs": [],
      "name": "advance",
      "outputs": [],
      "stateMutability": "nonpayable",
      "type": "function"
    },
    {
      "inputs": [],
      "name": "borrowable",
      "outputs": [
        {
          "internalType": "address",
          "name": "",
          "type": "address"
        }
      ],
      "stateMutability": "view",
      "type": "function"
    },
    {
      "inputs": [],
      "name": "claim",
      "outputs": [
        {
          "internalType": "uint256",
          "name": "amount",
          "type": "uint256"
        }
      ],
      "stateMutability": "nonpayable",
      "type": "function"
    },
    {
      "inputs": [
        {
          "internalType": "address",
          "name": "account",
          "type": "address"
        }
      ],
      "name": "claimAccount",
      "outputs": [
        {
          "internalType": "uint256",
          "name": "amount",
          "type": "uint256"
        }
      ],
      "stateMutability": "nonpayable",
      "type": "function"
    },
    {
      "inputs": [],
      "name": "claimable",
      "outputs": [
        {
          "internalType": "address",
          "name": "",
          "type": "address"
        }
      ],
      "stateMutability": "view",
      "type": "function"
    },
    {
      "inputs": [],
      "name": "epochAmount",
      "outputs": [
        {
          "internalType": "uint256",
          "name": "",
          "type": "uint256"
        }
      ],
      "stateMutability": "view",
      "type": "function"
    },
    {
      "inputs": [],
      "name": "epochBegin",
      "outputs": [
        {
          "internalType": "uint256",
          "name": "",
          "type": "uint256"
        }
      ],
      "stateMutability": "view",
      "type": "function"
    },
    {
      "inputs": [],
      "name": "getBlockTimestamp",
      "outputs": [
        {
          "internalType": "uint256",
          "name": "",
          "type": "uint256"
        }
      ],
      "stateMutability": "view",
      "type": "function"
    },
    {
      "inputs": [],
      "name": "imx",
      "outputs": [
        {
          "internalType": "address",
          "name": "",
          "type": "address"
        }
      ],
      "stateMutability": "view",
      "type": "function"
    },
    {
      "inputs": [],
      "name": "lastUpdate",
      "outputs": [
        {
          "internalType": "uint256",
          "name": "",
          "type": "uint256"
        }
      ],
      "stateMutability": "view",
      "type": "function"
    },
    {
      "inputs": [
        {
          "internalType": "address",
          "name": "",
          "type": "address"
        }
      ],
      "name": "recipients",
      "outputs": [
        {
          "internalType": "uint256",
          "name": "shares",
          "type": "uint256"
        },
        {
          "internalType": "uint256",
          "name": "lastShareIndex",
          "type": "uint256"
        },
        {
          "internalType": "uint256",
          "name": "credit",
          "type": "uint256"
        }
      ],
      "stateMutability": "view",
      "type": "function"
    },
    {
      "inputs": [],
      "name": "segmentLength",
      "outputs": [
        {
          "internalType": "uint256",
          "name": "",
          "type": "uint256"
        }
      ],
      "stateMutability": "view",
      "type": "function"
    },
    {
      "inputs": [],
      "name": "shareIndex",
      "outputs": [
        {
          "internalType": "uint256",
          "name": "",
          "type": "uint256"
        }
      ],
      "stateMutability": "view",
      "type": "function"
    },
    {
      "inputs": [],
      "name": "totalShares",
      "outputs": [
        {
          "internalType": "uint256",
          "name": "",
          "type": "uint256"
        }
      ],
      "stateMutability": "view",
      "type": "function"
    },
    {
      "inputs": [
        {
          "internalType": "address",
          "name": "borrower",
          "type": "address"
        },
        {
          "internalType": "uint256",
          "name": "borrowBalance",
          "type": "uint256"
        },
        {
          "internalType": "uint256",
          "name": "borrowIndex",
          "type": "uint256"
        }
      ],
      "name": "trackBorrow",
      "outputs": [],
      "stateMutability": "nonpayable",
      "type": "function"
    },
    {
      "inputs": [
        {
          "internalType": "address",
          "name": "account",
          "type": "address"
        }
      ],
      "name": "updateCredit",
      "outputs": [
        {
          "internalType": "uint256",
          "name": "credit",
          "type": "uint256"
        }
      ],
      "stateMutability": "nonpayable",
      "type": "function"
    },
    {
      "inputs": [],
      "name": "updateShareIndex",
      "outputs": [
        {
          "internalType": "uint256",
          "name": "_shareIndex",
          "type": "uint256"
        }
      ],
      "stateMutability": "nonpayable",
      "type": "function"
    },
    {
      "inputs": [],
      "name": "vestingBegin",
      "outputs": [
        {
          "internalType": "uint256",
          "name": "",
          "type": "uint256"
        }
      ],
      "stateMutability": "view",
      "type": "function"
    }
  ],
  "bytecode": "0x6101206040526003805460ff191660011790553480156200001f57600080fd5b50604051620013033803806200130383398101604081905262000042916200033b565b6001600160a01b0380851660805280841660a05282811660c0526040805163e29bc68b60e01b8152905160009284169163e29bc68b916004808301926020929190829003018186803b1580156200009857600080fd5b505afa158015620000ad573d6000803e3d6000fd5b505050506040513d601f19601f82011682018060405250810190620000d3919062000398565b90508060e08181525050620001f8826001600160a01b031663e2d6870a6040518163ffffffff1660e01b815260040160206040518083038186803b1580156200011b57600080fd5b505afa15801562000130573d6000803e3d6000fd5b505050506040513d601f19601f8201168201806040525081019062000156919062000398565b620001e483856001600160a01b03166384a1931f6040518163ffffffff1660e01b815260040160206040518083038186803b1580156200019557600080fd5b505afa158015620001aa573d6000803e3d6000fd5b505050506040513d601f19601f82011682018060405250810190620001d0919062000398565b6200020860201b620008061790919060201c565b6200025960201b6200084f1790919060201c565b6101005250620004539350505050565b60006200025283836040518060400160405280601f81526020017f536166654d6174683a207375627472616374696f6e20756e646572666c6f7700815250620002a360201b60201c565b9392505050565b60006200025283836040518060400160405280601a81526020017f536166654d6174683a206469766973696f6e206279207a65726f000000000000815250620002eb60201b60201c565b60008184841115620002d35760405162461bcd60e51b8152600401620002ca9190620003b2565b60405180910390fd5b506000620002e284866200040a565b95945050505050565b600081836200030f5760405162461bcd60e51b8152600401620002ca9190620003b2565b506000620002e2848662000430565b80516001600160a01b03811681146200033657600080fd5b919050565b600080600080608085870312156200035257600080fd5b6200035d856200031e565b93506200036d602086016200031e565b92506200037d604086016200031e565b91506200038d606086016200031e565b905092959194509250565b600060208284031215620003ab57600080fd5b5051919050565b600060208083528351808285015260005b81811015620003e157858101830151858201604001528201620003c3565b81811115620003f4576000604083870101525b50601f01601f1916929092016040019392505050565b6000828210156200042b57634e487b7160e01b600052601160045260246000fd5b500390565b6000826200044e57634e487b7160e01b600052601260045260246000fd5b500490565b60805160a05160c05160e05161010051610e25620004de6000396000818161020e01528181610493015281816104e40152818161052a01528181610667015261077f01526000818161023e01528181610629015261074f01526000818161026501526102e40152600081816101cd015261069f0152600081816101350152610b460152610e256000f3fe608060405234801561001057600080fd5b50600436106101165760003560e01c8063b260187d116100a2578063d01b671711610071578063d01b671714610230578063e29bc68b14610239578063e99a6ac714610260578063ea105ac714610287578063eb8203121461028f57600080fd5b8063b260187d146101ef578063c0463711146101f7578063c56ad1ad14610200578063d013666e1461020957600080fd5b806345c08718116100e957806345c08718146101945780634e71d92d146101a75780637429d95a146101af578063796b89b9146101c2578063af38d757146101c857600080fd5b806305285d7f1461011b5780630f08025f146101305780632f5ee99b146101745780633a98ef391461018b575b600080fd5b61012e610129366004610c59565b6102d9565b005b6101577f000000000000000000000000000000000000000000000000000000000000000081565b6040516001600160a01b0390911681526020015b60405180910390f35b61017d60045481565b60405190815260200161016b565b61017d60015481565b61017d6101a2366004610c8c565b610382565b61017d61044c565b61017d6101bd366004610c8c565b61045c565b4261017d565b6101577f000000000000000000000000000000000000000000000000000000000000000081565b61017d61046d565b61017d60065481565b61017d60025481565b61017d7f000000000000000000000000000000000000000000000000000000000000000081565b61017d60055481565b61017d7f000000000000000000000000000000000000000000000000000000000000000081565b6101577f000000000000000000000000000000000000000000000000000000000000000081565b61012e6105d1565b6102be61029d366004610c8c565b60006020819052908152604090208054600182015460029092015490919083565b6040805193845260208401929092529082015260600161016b565b336001600160a01b037f000000000000000000000000000000000000000000000000000000000000000016146103565760405162461bcd60e51b815260206004820152601960248201527f4661726d696e67506f6f6c3a20554e415554484f52495a45440000000000000060448201526064015b60405180910390fd5b60006103708261036a85600160601b610891565b9061084f565b905061037c8482610910565b50505050565b60008061038d61046d565b90508061039d5750600092915050565b6001600160a01b038316600090815260208190526040902080546001820154600160a01b916103d7916103d1908690610806565b90610891565b6103e19190610cd3565b81600201546103f09190610ce7565b600182018390556002820181905560408051848152602081018390529194506001600160a01b038616917ff7240857a4f83123f14a7bc3f77cd32d0ae71ede635c92ebdcc14d5ea8ed018a910160405180910390a25050919050565b6000610457336109c4565b905090565b6000610467826109c4565b92915050565b600060015460001415610481575060025490565b60045461048f575060025490565b60007f00000000000000000000000000000000000000000000000000000000000000006004546104bf9190610ce7565b90504260006104ce82846109d7565b90506000600654826104e09190610cff565b90507f000000000000000000000000000000000000000000000000000000000000000081111561051257610512610d16565b806105235760025494505050505090565b600061055e7f000000000000000000000000000000000000000000000000000000000000000061036a8460055461089190919063ffffffff16565b905061058960025461058360015461036a600160a01b8661089190919063ffffffff16565b906109ed565b600281905560068490556040518181529096507f8cae7c5b456d193882de6985578f406aefb641501192211706c5aa0a32612fec9060200160405180910390a1505050505090565b60035460ff1661061c5760405162461bcd60e51b8152602060048201526016602482015275111a5cdd1c9a589d5d1bdc8e8814915153951154915160521b604482015260640161034d565b6003805460ff19169055427f000000000000000000000000000000000000000000000000000000000000000081101561065557506107f7565b600454801580159061068f575061068c7f000000000000000000000000000000000000000000000000000000000000000082610ce7565b82105b1561069b5750506107f7565b60007f00000000000000000000000000000000000000000000000000000000000000006001600160a01b0316634e71d92d6040518163ffffffff1660e01b8152600401602060405180830381600087803b1580156106f857600080fd5b505af115801561070c573d6000803e3d6000fd5b505050506040513d601f19601f820116820180604052508101906107309190610d2c565b90508061073f575050506107f7565b61074761046d565b5060006107747f000000000000000000000000000000000000000000000000000000000000000085610cff565b90506107aa6107a3827f0000000000000000000000000000000000000000000000000000000000000000610a4c565b8590610806565b60048190556005839055600681905560408051918252602082018490527f80ed4614ab2b2c5fd2e6f2f0bb3c55b8bac2a16aee9296e0275b2214ebee6571910160405180910390a1505050505b6003805460ff19166001179055565b600061084883836040518060400160405280601f81526020017f536166654d6174683a207375627472616374696f6e20756e646572666c6f7700815250610a8e565b9392505050565b600061084883836040518060400160405280601a81526020017f536166654d6174683a206469766973696f6e206279207a65726f000000000000815250610ac8565b6000826108a057506000610467565b60006108ac8385610d45565b9050826108b98583610cd3565b146108485760405162461bcd60e51b815260206004820152602160248201527f536166654d6174683a206d756c7469706c69636174696f6e206f766572666c6f6044820152607760f81b606482015260840161034d565b61091982610382565b506001600160a01b0382166000908152602081905260408120805490918184116109585761095361094a8584610cff565b60015490610806565b61096e565b61096e6109658386610cff565b600154906109ed565b600181905584845560408051868152602081018390529192506001600160a01b038716917fff3664f5f2f8f85ecd8d30ef2aa6773d8a8448219c7421dcbb67957fb3fafba1910160405180910390a25050505050565b60006109ce6105d1565b61046782610af6565b60008183106109e65781610848565b5090919050565b6000806109fa8385610ce7565b9050838110156108485760405162461bcd60e51b815260206004820152601b60248201527f536166654d6174683a206164646974696f6e206f766572666c6f770000000000604482015260640161034d565b600061084883836040518060400160405280601881526020017f536166654d6174683a206d6f64756c6f206279207a65726f0000000000000000815250610c0e565b60008184841115610ab25760405162461bcd60e51b815260040161034d9190610d64565b506000610abf8486610cff565b95945050505050565b60008183610ae95760405162461bcd60e51b815260040161034d9190610d64565b506000610abf8486610cd3565b6000610b0182610382565b90508015610c09576001600160a01b03828116600081815260208190526040808220600201919091555163a9059cbb60e01b81526004810191909152602481018390527f00000000000000000000000000000000000000000000000000000000000000009091169063a9059cbb90604401602060405180830381600087803b158015610b8c57600080fd5b505af1158015610ba0573d6000803e3d6000fd5b505050506040513d601f19601f82011682018060405250810190610bc49190610db9565b50816001600160a01b03167f47cee97cb7acd717b3c0aa1435d004cd5b3c8c57d70dbceb4e4458bbd60e39d482604051610c0091815260200190565b60405180910390a25b919050565b60008183610c2f5760405162461bcd60e51b815260040161034d9190610d64565b50610c3a8385610ddb565b949350505050565b80356001600160a01b0381168114610c0957600080fd5b600080600060608486031215610c6e57600080fd5b610c7784610c42565b95602085013595506040909401359392505050565b600060208284031215610c9e57600080fd5b61084882610c42565b634e487b7160e01b600052601260045260246000fd5b634e487b7160e01b600052601160045260246000fd5b600082610ce257610ce2610ca7565b500490565b60008219821115610cfa57610cfa610cbd565b500190565b600082821015610d1157610d11610cbd565b500390565b634e487b7160e01b600052600160045260246000fd5b600060208284031215610d3e57600080fd5b5051919050565b6000816000190483118215151615610d5f57610d5f610cbd565b500290565b600060208083528351808285015260005b81811015610d9157858101830151858201604001528201610d75565b81811115610da3576000604083870101525b50601f01601f1916929092016040019392505050565b600060208284031215610dcb57600080fd5b8151801515811461084857600080fd5b600082610dea57610dea610ca7565b50069056fea26469706673582212203d2a6059fc6b11681b87894c415a17ac041924d3dbba81961e33eb24fcc7474464736f6c63430008090033",
  "linkReferences": {},
  "deployedLinkReferences": {}
}