{
  "_format": "hh-sol-artifact-1",
  "contractName": "PoolToken",
  "sourceName": "contracts/PoolToken.sol",
  "abi": [
    {
      "anonymous": false,
      "inputs": [
        {
          "indexed": true,
          "internalType": "address",
          "name": "owner",
          "type": "address"
        },
        {
          "indexed": true,
          "internalType": "address",
          "name": "spender",
          "type": "address"
        },
        {
          "indexed": false,
          "internalType": "uint256",
          "name": "value",
          "type": "uint256"
        }
      ],
      "name": "Approval",
      "type": "event"
    },
    {
      "anonymous": false,
      "inputs": [
        {
          "indexed": true,
          "internalType": "address",
          "name": "sender",
          "type": "address"
        },
        {
          "indexed": true,
          "internalType": "address",
          "name": "minter",
          "type": "address"
        },
        {
          "indexed": false,
          "internalType": "uint256",
          "name": "mintAmount",
          "type": "uint256"
        },
        {
          "indexed": false,
          "internalType": "uint256",
          "name": "mintTokens",
          "type": "uint256"
        }
      ],
      "name": "Mint",
      "type": "event"
    },
    {
      "anonymous": false,
      "inputs": [
        {
          "indexed": true,
          "internalType": "address",
          "name": "sender",
          "type": "address"
        },
        {
          "indexed": true,
          "internalType": "address",
          "name": "redeemer",
          "type": "address"
        },
        {
          "indexed": false,
          "internalType": "uint256",
          "name": "redeemAmount",
          "type": "uint256"
        },
        {
          "indexed": false,
          "internalType": "uint256",
          "name": "redeemTokens",
          "type": "uint256"
        }
      ],
      "name": "Redeem",
      "type": "event"
    },
    {
      "anonymous": false,
      "inputs": [
        {
          "indexed": false,
          "internalType": "uint256",
          "name": "totalBalance",
          "type": "uint256"
        }
      ],
      "name": "Sync",
      "type": "event"
    },
    {
      "anonymous": false,
      "inputs": [
        {
          "indexed": true,
          "internalType": "address",
          "name": "from",
          "type": "address"
        },
        {
          "indexed": true,
          "internalType": "address",
          "name": "to",
          "type": "address"
        },
        {
          "indexed": false,
          "internalType": "uint256",
          "name": "value",
          "type": "uint256"
        }
      ],
      "name": "Transfer",
      "type": "event"
    },
    {
      "inputs": [],
      "name": "DOMAIN_SEPARATOR",
      "outputs": [
        {
          "internalType": "bytes32",
          "name": "",
          "type": "bytes32"
        }
      ],
      "stateMutability": "view",
      "type": "function"
    },
    {
      "inputs": [],
      "name": "MINIMUM_LIQUIDITY",
      "outputs": [
        {
          "internalType": "uint256",
          "name": "",
          "type": "uint256"
        }
      ],
      "stateMutability": "view",
      "type": "function"
    },
    {
      "inputs": [],
      "name": "PERMIT_TYPEHASH",
      "outputs": [
        {
          "internalType": "bytes32",
          "name": "",
          "type": "bytes32"
        }
      ],
      "stateMutability": "view",
      "type": "function"
    },
    {
      "inputs": [],
      "name": "_setFactory",
      "outputs": [],
      "stateMutability": "nonpayable",
      "type": "function"
    },
    {
      "inputs": [
        {
          "internalType": "address",
          "name": "",
          "type": "address"
        },
        {
          "internalType": "address",
          "name": "",
          "type": "address"
        }
      ],
      "name": "allowance",
      "outputs": [
        {
          "internalType": "uint256",
          "name": "",
          "type": "uint256"
        }
      ],
      "stateMutability": "view",
      "type": "function"
    },
    {
      "inputs": [
        {
          "internalType": "address",
          "name": "spender",
          "type": "address"
        },
        {
          "internalType": "uint256",
          "name": "value",
          "type": "uint256"
        }
      ],
      "name": "approve",
      "outputs": [
        {
          "internalType": "bool",
          "name": "",
          "type": "bool"
        }
      ],
      "stateMutability": "nonpayable",
      "type": "function"
    },
    {
      "inputs": [
        {
          "internalType": "address",
          "name": "",
          "type": "address"
        }
      ],
      "name": "balanceOf",
      "outputs": [
        {
          "internalType": "uint256",
          "name": "",
          "type": "uint256"
        }
      ],
      "stateMutability": "view",
      "type": "function"
    },
    {
      "inputs": [],
      "name": "decimals",
      "outputs": [
        {
          "internalType": "uint8",
          "name": "",
          "type": "uint8"
        }
      ],
      "stateMutability": "view",
      "type": "function"
    },
    {
      "inputs": [],
      "name": "exchangeRate",
      "outputs": [
        {
          "internalType": "uint256",
          "name": "",
          "type": "uint256"
        }
      ],
      "stateMutability": "nonpayable",
      "type": "function"
    },
    {
      "inputs": [],
      "name": "factory",
      "outputs": [
        {
          "internalType": "address",
          "name": "",
          "type": "address"
        }
      ],
      "stateMutability": "view",
      "type": "function"
    },
    {
      "inputs": [
        {
          "internalType": "address",
          "name": "minter",
          "type": "address"
        }
      ],
      "name": "mint",
      "outputs": [
        {
          "internalType": "uint256",
          "name": "mintTokens",
          "type": "uint256"
        }
      ],
      "stateMutability": "nonpayable",
      "type": "function"
    },
    {
      "inputs": [],
      "name": "name",
      "outputs": [
        {
          "internalType": "string",
          "name": "",
          "type": "string"
        }
      ],
      "stateMutability": "view",
      "type": "function"
    },
    {
      "inputs": [
        {
          "internalType": "address",
          "name": "",
          "type": "address"
        }
      ],
      "name": "nonces",
      "outputs": [
        {
          "internalType": "uint256",
          "name": "",
          "type": "uint256"
        }
      ],
      "stateMutability": "view",
      "type": "function"
    },
    {
      "inputs": [
        {
          "internalType": "address",
          "name": "owner",
          "type": "address"
        },
        {
          "internalType": "address",
          "name": "spender",
          "type": "address"
        },
        {
          "internalType": "uint256",
          "name": "value",
          "type": "uint256"
        },
        {
          "internalType": "uint256",
          "name": "deadline",
          "type": "uint256"
        },
        {
          "internalType": "uint8",
          "name": "v",
          "type": "uint8"
        },
        {
          "internalType": "bytes32",
          "name": "r",
          "type": "bytes32"
        },
        {
          "internalType": "bytes32",
          "name": "s",
          "type": "bytes32"
        }
      ],
      "name": "permit",
      "outputs": [],
      "stateMutability": "nonpayable",
      "type": "function"
    },
    {
      "inputs": [
        {
          "internalType": "address",
          "name": "redeemer",
          "type": "address"
        }
      ],
      "name": "redeem",
      "outputs": [
        {
          "internalType": "uint256",
          "name": "redeemAmount",
          "type": "uint256"
        }
      ],
      "stateMutability": "nonpayable",
      "type": "function"
    },
    {
      "inputs": [
        {
          "internalType": "address",
          "name": "to",
          "type": "address"
        }
      ],
      "name": "skim",
      "outputs": [],
      "stateMutability": "nonpayable",
      "type": "function"
    },
    {
      "inputs": [],
      "name": "symbol",
      "outputs": [
        {
          "internalType": "string",
          "name": "",
          "type": "string"
        }
      ],
      "stateMutability": "view",
      "type": "function"
    },
    {
      "inputs": [],
      "name": "sync",
      "outputs": [],
      "stateMutability": "nonpayable",
      "type": "function"
    },
    {
      "inputs": [],
      "name": "totalBalance",
      "outputs": [
        {
          "internalType": "uint256",
          "name": "",
          "type": "uint256"
        }
      ],
      "stateMutability": "view",
      "type": "function"
    },
    {
      "inputs": [],
      "name": "totalSupply",
      "outputs": [
        {
          "internalType": "uint256",
          "name": "",
          "type": "uint256"
        }
      ],
      "stateMutability": "view",
      "type": "function"
    },
    {
      "inputs": [
        {
          "internalType": "address",
          "name": "to",
          "type": "address"
        },
        {
          "internalType": "uint256",
          "name": "value",
          "type": "uint256"
        }
      ],
      "name": "transfer",
      "outputs": [
        {
          "internalType": "bool",
          "name": "",
          "type": "bool"
        }
      ],
      "stateMutability": "nonpayable",
      "type": "function"
    },
    {
      "inputs": [
        {
          "internalType": "address",
          "name": "from",
          "type": "address"
        },
        {
          "internalType": "address",
          "name": "to",
          "type": "address"
        },
        {
          "internalType": "uint256",
          "name": "value",
          "type": "uint256"
        }
      ],
      "name": "transferFrom",
      "outputs": [
        {
          "internalType": "bool",
          "name": "",
          "type": "bool"
        }
      ],
      "stateMutability": "nonpayable",
      "type": "function"
    },
    {
      "inputs": [],
      "name": "underlying",
      "outputs": [
        {
          "internalType": "address",
          "name": "",
          "type": "address"
        }
      ],
      "stateMutability": "view",
      "type": "function"
    }
  ],
  "bytecode": "0x60806040526002805460ff19908116601217909155600b8054909116600117905534801561002c57600080fd5b506115538061003c6000396000f3fe608060405234801561001057600080fd5b506004361061014d5760003560e01c806370a08231116100c3578063ba9a7a561161007c578063ba9a7a56146102d3578063bc25cf77146102dc578063c45a0155146102ef578063d505accf14610302578063dd62ed3e14610315578063fff6cae91461034057600080fd5b806370a082311461025c5780637ecebe001461027c57806395a2251f1461029c57806395d89b41146102af578063a9059cbb146102b7578063ad7a672f146102ca57600080fd5b8063313ce56711610115578063313ce567146101e45780633644e515146102035780633ba0b9a91461020c5780634a5d316c146102145780636a6278421461021e5780636f307dc31461023157600080fd5b806306fdde0314610152578063095ea7b31461017057806318160ddd1461019357806323b872dd146101aa57806330adf81f146101bd575b600080fd5b61015a610348565b604051610167919061124a565b60405180910390f35b61018361017e366004611299565b6103d6565b6040519015158152602001610167565b61019c60035481565b604051908152602001610167565b6101836101b83660046112c3565b6103ed565b61019c7f6e71edae12b1b97f4d1f60370fef10105fa2faae0126114a169c64845d6126c981565b6002546101f19060ff1681565b60405160ff9091168152602001610167565b61019c60065481565b61019c6104b6565b61021c610503565b005b61019c61022c3660046112ff565b610575565b600854610244906001600160a01b031681565b6040516001600160a01b039091168152602001610167565b61019c61026a3660046112ff565b60046020526000908152604090205481565b61019c61028a3660046112ff565b60076020526000908152604090205481565b61019c6102aa3660046112ff565b61073c565b61015a6108a0565b6101836102c5366004611299565b6108ad565b61019c600a5481565b61019c6103e881565b61021c6102ea3660046112ff565b6108ba565b600954610244906001600160a01b031681565b61021c61031036600461131a565b610989565b61019c61032336600461138d565b600560209081526000928352604080842090915290825290205481565b61021c6109cd565b60008054610355906113c0565b80601f0160208091040260200160405190810160405280929190818152602001828054610381906113c0565b80156103ce5780601f106103a3576101008083540402835291602001916103ce565b820191906000526020600020905b8154815290600101906020018083116103b157829003601f168201915b505050505081565b60006103e3338484610a10565b5060015b92915050565b6001600160a01b0383166000908152600560209081526040808320338452909152812054600019146104a157604080518082018252601b81527f456c656f733a205452414e534645525f4e4f545f414c4c4f57454400000000006020808301919091526001600160a01b038716600090815260058252838120338252909152919091205461047c918490610a72565b6001600160a01b03851660009081526005602090815260408083203384529091529020555b6104ac848484610aac565b5060019392505050565b600354600a54600091908115806104cb575080155b156104e057670de0b6b3a76400009250505090565b6104fc826104f683670de0b6b3a7640000610b8a565b90610c10565b9250505090565b6009546001600160a01b0316156105615760405162461bcd60e51b815260206004820152601a60248201527f456c656f733a20464143544f52595f414c52454144595f53455400000000000060448201526064015b60405180910390fd5b600980546001600160a01b03191633179055565b600b5460009060ff1661059a5760405162461bcd60e51b8152600401610558906113fb565b600b805460ff191690556008546040516370a0823160e01b81523060048201526000916001600160a01b0316906370a082319060240160206040518083038186803b1580156105e857600080fd5b505afa1580156105fc573d6000803e3d6000fd5b505050506040513d601f19601f820116820180604052508101906106209190611425565b90506000610639600a5483610c5290919063ffffffff16565b90506106586106466104b6565b6104f683670de0b6b3a7640000610b8a565b92506003546000141561068057610671836103e8610c52565b925061068060006103e8610c94565b600083116106d05760405162461bcd60e51b815260206004820152601760248201527f456c656f733a204d494e545f414d4f554e545f5a45524f0000000000000000006044820152606401610558565b6106da8484610c94565b60408051828152602081018590526001600160a01b0386169133917f2f00e3cdd69a77be7ed215ec7b2a36784dd158f921fca79ac29deffa353fe6ee910160405180910390a3505061072a610d24565b600b805460ff19166001179055919050565b600b5460009060ff166107615760405162461bcd60e51b8152600401610558906113fb565b600b805460ff1916905530600090815260046020526040902054610799670de0b6b3a76400006104f66107926104b6565b8490610b8a565b9150600082116107eb5760405162461bcd60e51b815260206004820152601960248201527f456c656f733a2052454445454d5f414d4f554e545f5a45524f000000000000006044820152606401610558565b600a5482111561083d5760405162461bcd60e51b815260206004820152601860248201527f456c656f733a20494e53554646494349454e545f4341534800000000000000006044820152606401610558565b6108473082610dd9565b6108518383610e63565b60408051838152602081018390526001600160a01b0385169133917f3f693fff038bb8a046aa76d9516190ac7444f7d69cf952c4cbdc086fdef2d6fc910160405180910390a35061072a610d24565b60018054610355906113c0565b60006103e3338484610aac565b600b5460ff166108dc5760405162461bcd60e51b8152600401610558906113fb565b600b805460ff19169055600a546008546040516370a0823160e01b8152306004820152610979928492610974926001600160a01b03909116906370a082319060240160206040518083038186803b15801561093657600080fd5b505afa15801561094a573d6000803e3d6000fd5b505050506040513d601f19601f8201168201806040525081019061096e9190611425565b90610c52565b610e63565b50600b805460ff19166001179055565b6109b9878787878787877f6e71edae12b1b97f4d1f60370fef10105fa2faae0126114a169c64845d6126c9610fa8565b6109c4878787610a10565b50505050505050565b600b5460ff166109ef5760405162461bcd60e51b8152600401610558906113fb565b600b805460ff19169055610a01610d24565b600b805460ff19166001179055565b6001600160a01b0383811660008181526005602090815260408083209487168084529482529182902085905590518481527f8c5be1e5ebec7d5bd14f71427d1e84f3dd0314c0f7b2291e5b200ac8c7c3b92591015b60405180910390a3505050565b60008184841115610a965760405162461bcd60e51b8152600401610558919061124a565b506000610aa38486611454565b95945050505050565b604080518082018252601881527f456c656f733a205452414e534645525f544f4f5f4849474800000000000000006020808301919091526001600160a01b038616600090815260049091529190912054610b07918390610a72565b6001600160a01b038085166000908152600460205260408082209390935590841681522054610b369082611191565b6001600160a01b0380841660008181526004602052604090819020939093559151908516907fddf252ad1be2c89b69c2b068fc378daa952ba7f163c4a11628f55a4df523b3ef90610a659085815260200190565b600082610b99575060006103e7565b6000610ba5838561146b565b905082610bb2858361148a565b14610c095760405162461bcd60e51b815260206004820152602160248201527f536166654d6174683a206d756c7469706c69636174696f6e206f766572666c6f6044820152607760f81b6064820152608401610558565b9392505050565b6000610c0983836040518060400160405280601a81526020017f536166654d6174683a206469766973696f6e206279207a65726f0000000000008152506111f0565b6000610c0983836040518060400160405280601f81526020017f536166654d6174683a207375627472616374696f6e20756e646572666c6f7700815250610a72565b600354610ca19082611191565b6003556001600160a01b038216600090815260046020526040902054610cc79082611191565b6001600160a01b0383166000818152600460205260408082209390935591519091907fddf252ad1be2c89b69c2b068fc378daa952ba7f163c4a11628f55a4df523b3ef90610d189085815260200190565b60405180910390a35050565b6008546040516370a0823160e01b81523060048201526001600160a01b03909116906370a082319060240160206040518083038186803b158015610d6757600080fd5b505afa158015610d7b573d6000803e3d6000fd5b505050506040513d601f19601f82011682018060405250810190610d9f9190611425565b600a8190556040519081527f8a0df8ef054fae2c3d2d19a7b322e864870cc9fd3cb07fb9526309c596244bf49060200160405180910390a1565b6001600160a01b038216600090815260046020526040902054610dfc9082610c52565b6001600160a01b038316600090815260046020526040902055600354610e229082610c52565b6003556040518181526000906001600160a01b038416907fddf252ad1be2c89b69c2b068fc378daa952ba7f163c4a11628f55a4df523b3ef90602001610d18565b600854604080518082018252601981527f7472616e7366657228616464726573732c75696e74323536290000000000000060209182015281516001600160a01b0386811660248301526044808301879052845180840390910181526064909201845291810180516001600160e01b031663a9059cbb60e01b17905291516000938493921691610ef1916114ac565b6000604051808303816000865af19150503d8060008114610f2e576040519150601f19603f3d011682016040523d82523d6000602084013e610f33565b606091505b5091509150818015610f5d575080511580610f5d575080806020019051810190610f5d91906114c8565b610fa25760405162461bcd60e51b8152602060048201526016602482015275115b195bdcce881514905394d1915497d1905253115160521b6044820152606401610558565b50505050565b42851015610fe95760405162461bcd60e51b815260206004820152600e60248201526d115b195bdcce881156141254915160921b6044820152606401610558565b6001600160a01b0388166000908152600760205260408120805483918b918b918b919086611016836114ea565b909155506040805160208101969096526001600160a01b0394851690860152929091166060840152608083015260a082015260c0810187905260e00160405160208183030381529060405280519060200120905060006006548260405160200161109792919061190160f01b81526002810192909252602282015260420190565b60408051601f198184030181528282528051602091820120600080855291840180845281905260ff8a169284019290925260608301889052608083018790529092509060019060a0016020604051602081039080840390855afa158015611102573d6000803e3d6000fd5b5050604051601f1901519150506001600160a01b0381161580159061113857508a6001600160a01b0316816001600160a01b0316145b6111845760405162461bcd60e51b815260206004820152601860248201527f456c656f733a20494e56414c49445f5349474e415455524500000000000000006044820152606401610558565b5050505050505050505050565b60008061119e8385611505565b905083811015610c095760405162461bcd60e51b815260206004820152601b60248201527f536166654d6174683a206164646974696f6e206f766572666c6f7700000000006044820152606401610558565b600081836112115760405162461bcd60e51b8152600401610558919061124a565b506000610aa3848661148a565b60005b83811015611239578181015183820152602001611221565b83811115610fa25750506000910152565b602081526000825180602084015261126981604085016020870161121e565b601f01601f19169190910160400192915050565b80356001600160a01b038116811461129457600080fd5b919050565b600080604083850312156112ac57600080fd5b6112b58361127d565b946020939093013593505050565b6000806000606084860312156112d857600080fd5b6112e18461127d565b92506112ef6020850161127d565b9150604084013590509250925092565b60006020828403121561131157600080fd5b610c098261127d565b600080600080600080600060e0888a03121561133557600080fd5b61133e8861127d565b965061134c6020890161127d565b95506040880135945060608801359350608088013560ff8116811461137057600080fd5b9699959850939692959460a0840135945060c09093013592915050565b600080604083850312156113a057600080fd5b6113a98361127d565b91506113b76020840161127d565b90509250929050565b600181811c908216806113d457607f821691505b602082108114156113f557634e487b7160e01b600052602260045260246000fd5b50919050565b60208082526010908201526f115b195bdcce8814915153951154915160821b604082015260600190565b60006020828403121561143757600080fd5b5051919050565b634e487b7160e01b600052601160045260246000fd5b6000828210156114665761146661143e565b500390565b60008160001904831182151516156114855761148561143e565b500290565b6000826114a757634e487b7160e01b600052601260045260246000fd5b500490565b600082516114be81846020870161121e565b9190910192915050565b6000602082840312156114da57600080fd5b81518015158114610c0957600080fd5b60006000198214156114fe576114fe61143e565b5060010190565b600082198211156115185761151861143e565b50019056fea26469706673582212206f1fdc48fb668c45684f443f40129fecdb39d2eb0e3e26d0179ecc60e64fc1ff64736f6c63430008090033",
  "linkReferences": {},
  "deployedLinkReferences": {}
}