{
  "_format": "hh-sol-artifact-1",
  "contractName": "StakedLPToken01",
  "sourceName": "contracts/StakedLPToken01.sol",
  "abi": [
    {
      "anonymous": false,
      "inputs": [
        {
          "indexed": true,
          "internalType": "address",
          "name": "owner",
          "type": "address"
        },
        {
          "indexed": true,
          "internalType": "address",
          "name": "spender",
          "type": "address"
        },
        {
          "indexed": false,
          "internalType": "uint256",
          "name": "value",
          "type": "uint256"
        }
      ],
      "name": "Approval",
      "type": "event"
    },
    {
      "anonymous": false,
      "inputs": [
        {
          "indexed": true,
          "internalType": "address",
          "name": "sender",
          "type": "address"
        },
        {
          "indexed": true,
          "internalType": "address",
          "name": "minter",
          "type": "address"
        },
        {
          "indexed": false,
          "internalType": "uint256",
          "name": "mintAmount",
          "type": "uint256"
        },
        {
          "indexed": false,
          "internalType": "uint256",
          "name": "mintTokens",
          "type": "uint256"
        }
      ],
      "name": "Mint",
      "type": "event"
    },
    {
      "anonymous": false,
      "inputs": [
        {
          "indexed": true,
          "internalType": "address",
          "name": "sender",
          "type": "address"
        },
        {
          "indexed": true,
          "internalType": "address",
          "name": "redeemer",
          "type": "address"
        },
        {
          "indexed": false,
          "internalType": "uint256",
          "name": "redeemAmount",
          "type": "uint256"
        },
        {
          "indexed": false,
          "internalType": "uint256",
          "name": "redeemTokens",
          "type": "uint256"
        }
      ],
      "name": "Redeem",
      "type": "event"
    },
    {
      "anonymous": false,
      "inputs": [
        {
          "indexed": true,
          "internalType": "address",
          "name": "caller",
          "type": "address"
        },
        {
          "indexed": false,
          "internalType": "uint256",
          "name": "reward",
          "type": "uint256"
        },
        {
          "indexed": false,
          "internalType": "uint256",
          "name": "bounty",
          "type": "uint256"
        }
      ],
      "name": "Reinvest",
      "type": "event"
    },
    {
      "anonymous": false,
      "inputs": [
        {
          "indexed": false,
          "internalType": "uint256",
          "name": "totalBalance",
          "type": "uint256"
        }
      ],
      "name": "Sync",
      "type": "event"
    },
    {
      "anonymous": false,
      "inputs": [
        {
          "indexed": true,
          "internalType": "address",
          "name": "from",
          "type": "address"
        },
        {
          "indexed": true,
          "internalType": "address",
          "name": "to",
          "type": "address"
        },
        {
          "indexed": false,
          "internalType": "uint256",
          "name": "value",
          "type": "uint256"
        }
      ],
      "name": "Transfer",
      "type": "event"
    },
    {
      "inputs": [],
      "name": "DOMAIN_SEPARATOR",
      "outputs": [
        {
          "internalType": "bytes32",
          "name": "",
          "type": "bytes32"
        }
      ],
      "stateMutability": "view",
      "type": "function"
    },
    {
      "inputs": [],
      "name": "MINIMUM_LIQUIDITY",
      "outputs": [
        {
          "internalType": "uint256",
          "name": "",
          "type": "uint256"
        }
      ],
      "stateMutability": "view",
      "type": "function"
    },
    {
      "inputs": [],
      "name": "PERMIT_TYPEHASH",
      "outputs": [
        {
          "internalType": "bytes32",
          "name": "",
          "type": "bytes32"
        }
      ],
      "stateMutability": "view",
      "type": "function"
    },
    {
      "inputs": [],
      "name": "REINVEST_BOUNTY",
      "outputs": [
        {
          "internalType": "uint256",
          "name": "",
          "type": "uint256"
        }
      ],
      "stateMutability": "view",
      "type": "function"
    },
    {
      "inputs": [],
      "name": "WETH",
      "outputs": [
        {
          "internalType": "address",
          "name": "",
          "type": "address"
        }
      ],
      "stateMutability": "view",
      "type": "function"
    },
    {
      "inputs": [
        {
          "internalType": "address",
          "name": "_stakingRewards",
          "type": "address"
        },
        {
          "internalType": "address",
          "name": "_underlying",
          "type": "address"
        },
        {
          "internalType": "address",
          "name": "_rewardsToken",
          "type": "address"
        },
        {
          "internalType": "address",
          "name": "_token0",
          "type": "address"
        },
        {
          "internalType": "address",
          "name": "_token1",
          "type": "address"
        },
        {
          "internalType": "address",
          "name": "_router",
          "type": "address"
        },
        {
          "internalType": "address",
          "name": "_WETH",
          "type": "address"
        }
      ],
      "name": "_initialize",
      "outputs": [],
      "stateMutability": "nonpayable",
      "type": "function"
    },
    {
      "inputs": [],
      "name": "_setFactory",
      "outputs": [],
      "stateMutability": "nonpayable",
      "type": "function"
    },
    {
      "inputs": [
        {
          "internalType": "address",
          "name": "",
          "type": "address"
        },
        {
          "internalType": "address",
          "name": "",
          "type": "address"
        }
      ],
      "name": "allowance",
      "outputs": [
        {
          "internalType": "uint256",
          "name": "",
          "type": "uint256"
        }
      ],
      "stateMutability": "view",
      "type": "function"
    },
    {
      "inputs": [
        {
          "internalType": "address",
          "name": "spender",
          "type": "address"
        },
        {
          "internalType": "uint256",
          "name": "value",
          "type": "uint256"
        }
      ],
      "name": "approve",
      "outputs": [
        {
          "internalType": "bool",
          "name": "",
          "type": "bool"
        }
      ],
      "stateMutability": "nonpayable",
      "type": "function"
    },
    {
      "inputs": [
        {
          "internalType": "address",
          "name": "",
          "type": "address"
        }
      ],
      "name": "balanceOf",
      "outputs": [
        {
          "internalType": "uint256",
          "name": "",
          "type": "uint256"
        }
      ],
      "stateMutability": "view",
      "type": "function"
    },
    {
      "inputs": [],
      "name": "decimals",
      "outputs": [
        {
          "internalType": "uint8",
          "name": "",
          "type": "uint8"
        }
      ],
      "stateMutability": "view",
      "type": "function"
    },
    {
      "inputs": [],
      "name": "exchangeRate",
      "outputs": [
        {
          "internalType": "uint256",
          "name": "",
          "type": "uint256"
        }
      ],
      "stateMutability": "nonpayable",
      "type": "function"
    },
    {
      "inputs": [],
      "name": "factory",
      "outputs": [
        {
          "internalType": "address",
          "name": "",
          "type": "address"
        }
      ],
      "stateMutability": "view",
      "type": "function"
    },
    {
      "inputs": [],
      "name": "getReserves",
      "outputs": [
        {
          "internalType": "uint112",
          "name": "reserve0",
          "type": "uint112"
        },
        {
          "internalType": "uint112",
          "name": "reserve1",
          "type": "uint112"
        },
        {
          "internalType": "uint32",
          "name": "blockTimestampLast",
          "type": "uint32"
        }
      ],
      "stateMutability": "view",
      "type": "function"
    },
    {
      "inputs": [],
      "name": "isStakedLPToken",
      "outputs": [
        {
          "internalType": "bool",
          "name": "",
          "type": "bool"
        }
      ],
      "stateMutability": "view",
      "type": "function"
    },
    {
      "inputs": [
        {
          "internalType": "address",
          "name": "minter",
          "type": "address"
        }
      ],
      "name": "mint",
      "outputs": [
        {
          "internalType": "uint256",
          "name": "mintTokens",
          "type": "uint256"
        }
      ],
      "stateMutability": "nonpayable",
      "type": "function"
    },
    {
      "inputs": [],
      "name": "name",
      "outputs": [
        {
          "internalType": "string",
          "name": "",
          "type": "string"
        }
      ],
      "stateMutability": "view",
      "type": "function"
    },
    {
      "inputs": [
        {
          "internalType": "address",
          "name": "",
          "type": "address"
        }
      ],
      "name": "nonces",
      "outputs": [
        {
          "internalType": "uint256",
          "name": "",
          "type": "uint256"
        }
      ],
      "stateMutability": "view",
      "type": "function"
    },
    {
      "inputs": [
        {
          "internalType": "address",
          "name": "owner",
          "type": "address"
        },
        {
          "internalType": "address",
          "name": "spender",
          "type": "address"
        },
        {
          "internalType": "uint256",
          "name": "value",
          "type": "uint256"
        },
        {
          "internalType": "uint256",
          "name": "deadline",
          "type": "uint256"
        },
        {
          "internalType": "uint8",
          "name": "v",
          "type": "uint8"
        },
        {
          "internalType": "bytes32",
          "name": "r",
          "type": "bytes32"
        },
        {
          "internalType": "bytes32",
          "name": "s",
          "type": "bytes32"
        }
      ],
      "name": "permit",
      "outputs": [],
      "stateMutability": "nonpayable",
      "type": "function"
    },
    {
      "inputs": [],
      "name": "price0CumulativeLast",
      "outputs": [
        {
          "internalType": "uint256",
          "name": "",
          "type": "uint256"
        }
      ],
      "stateMutability": "view",
      "type": "function"
    },
    {
      "inputs": [],
      "name": "price1CumulativeLast",
      "outputs": [
        {
          "internalType": "uint256",
          "name": "",
          "type": "uint256"
        }
      ],
      "stateMutability": "view",
      "type": "function"
    },
    {
      "inputs": [
        {
          "internalType": "address",
          "name": "redeemer",
          "type": "address"
        }
      ],
      "name": "redeem",
      "outputs": [
        {
          "internalType": "uint256",
          "name": "redeemAmount",
          "type": "uint256"
        }
      ],
      "stateMutability": "nonpayable",
      "type": "function"
    },
    {
      "inputs": [],
      "name": "reinvest",
      "outputs": [],
      "stateMutability": "nonpayable",
      "type": "function"
    },
    {
      "inputs": [],
      "name": "rewardsToken",
      "outputs": [
        {
          "internalType": "address",
          "name": "",
          "type": "address"
        }
      ],
      "stateMutability": "view",
      "type": "function"
    },
    {
      "inputs": [],
      "name": "router",
      "outputs": [
        {
          "internalType": "address",
          "name": "",
          "type": "address"
        }
      ],
      "stateMutability": "view",
      "type": "function"
    },
    {
      "inputs": [
        {
          "internalType": "address",
          "name": "to",
          "type": "address"
        }
      ],
      "name": "skim",
      "outputs": [],
      "stateMutability": "nonpayable",
      "type": "function"
    },
    {
      "inputs": [],
      "name": "stakingRewards",
      "outputs": [
        {
          "internalType": "address",
          "name": "",
          "type": "address"
        }
      ],
      "stateMutability": "view",
      "type": "function"
    },
    {
      "inputs": [],
      "name": "symbol",
      "outputs": [
        {
          "internalType": "string",
          "name": "",
          "type": "string"
        }
      ],
      "stateMutability": "view",
      "type": "function"
    },
    {
      "inputs": [],
      "name": "sync",
      "outputs": [],
      "stateMutability": "nonpayable",
      "type": "function"
    },
    {
      "inputs": [],
      "name": "token0",
      "outputs": [
        {
          "internalType": "address",
          "name": "",
          "type": "address"
        }
      ],
      "stateMutability": "view",
      "type": "function"
    },
    {
      "inputs": [],
      "name": "token1",
      "outputs": [
        {
          "internalType": "address",
          "name": "",
          "type": "address"
        }
      ],
      "stateMutability": "view",
      "type": "function"
    },
    {
      "inputs": [],
      "name": "totalBalance",
      "outputs": [
        {
          "internalType": "uint256",
          "name": "",
          "type": "uint256"
        }
      ],
      "stateMutability": "view",
      "type": "function"
    },
    {
      "inputs": [],
      "name": "totalSupply",
      "outputs": [
        {
          "internalType": "uint256",
          "name": "",
          "type": "uint256"
        }
      ],
      "stateMutability": "view",
      "type": "function"
    },
    {
      "inputs": [
        {
          "internalType": "address",
          "name": "to",
          "type": "address"
        },
        {
          "internalType": "uint256",
          "name": "value",
          "type": "uint256"
        }
      ],
      "name": "transfer",
      "outputs": [
        {
          "internalType": "bool",
          "name": "",
          "type": "bool"
        }
      ],
      "stateMutability": "nonpayable",
      "type": "function"
    },
    {
      "inputs": [
        {
          "internalType": "address",
          "name": "from",
          "type": "address"
        },
        {
          "internalType": "address",
          "name": "to",
          "type": "address"
        },
        {
          "internalType": "uint256",
          "name": "value",
          "type": "uint256"
        }
      ],
      "name": "transferFrom",
      "outputs": [
        {
          "internalType": "bool",
          "name": "",
          "type": "bool"
        }
      ],
      "stateMutability": "nonpayable",
      "type": "function"
    },
    {
      "inputs": [],
      "name": "underlying",
      "outputs": [
        {
          "internalType": "address",
          "name": "",
          "type": "address"
        }
      ],
      "stateMutability": "view",
      "type": "function"
    }
  ],
  "bytecode": "0x60806040526002805460ff19908116601217909155600b8054909116600117905534801561002c57600080fd5b506129ee8061003c6000396000f3fe608060405234801561001057600080fd5b506004361061021c5760003560e01c80636f307dc311610125578063bc25cf77116100ad578063d505accf1161007c578063d505accf146104a2578063dd62ed3e146104b5578063f887ea40146104e0578063fdb5a03e146104f3578063fff6cae9146104fb57600080fd5b8063bc25cf7714610456578063c45a015514610469578063d1af0c7d1461047c578063d21220a71461048f57600080fd5b806395d89b41116100f457806395d89b4114610416578063a9059cbb1461041e578063ad5c464814610431578063ad7a672f14610444578063ba9a7a561461044d57600080fd5b80636f307dc3146103b057806370a08231146103c35780637ecebe00146103e357806395a2251f1461040357600080fd5b80633644e515116101a85780635909c0d5116101775780635909c0d5146103675780635a3d54931461036f57806364b87a70146103775780636a6278421461038f5780636c2a3bc5146103a257600080fd5b80633644e515146103395780633ba0b9a914610342578063439e27401461034a5780634a5d316c1461035f57600080fd5b80630dfe1681116101ef5780630dfe16811461029e57806318160ddd146102c957806323b872dd146102e057806330adf81f146102f3578063313ce5671461031a57600080fd5b806306fdde03146102215780630902f1ac1461023f578063095ea7b3146102735780630a64106314610296575b600080fd5b610229610503565b6040516102369190612464565b60405180910390f35b610247610591565b604080516001600160701b03948516815293909216602084015263ffffffff1690820152606001610236565b6102866102813660046124ae565b61077e565b6040519015158152602001610236565b610286600181565b600f546102b1906001600160a01b031681565b6040516001600160a01b039091168152602001610236565b6102d260035481565b604051908152602001610236565b6102866102ee3660046124d8565b610795565b6102d27f6e71edae12b1b97f4d1f60370fef10105fa2faae0126114a169c64845d6126c981565b6002546103279060ff1681565b60405160ff9091168152602001610236565b6102d260065481565b6102d261085e565b61035d610358366004612514565b6108a5565b005b61035d610a33565b6102d2610aa0565b6102d2610b22565b600b546102b19061010090046001600160a01b031681565b6102d261039d36600461259a565b610b67565b6102d266470de4df82000081565b6008546102b1906001600160a01b031681565b6102d26103d136600461259a565b60046020526000908152604090205481565b6102d26103f136600461259a565b60076020526000908152604090205481565b6102d261041136600461259a565b610d1d565b610229610eee565b61028661042c3660046124ae565b610efb565b600e546102b1906001600160a01b031681565b6102d2600a5481565b6102d26103e881565b61035d61046436600461259a565b610f08565b6009546102b1906001600160a01b031681565b600c546102b1906001600160a01b031681565b6010546102b1906001600160a01b031681565b61035d6104b03660046125b5565b610fd7565b6102d26104c3366004612628565b600560209081526000928352604080842090915290825290205481565b600d546102b1906001600160a01b031681565b61035d611012565b61035d611443565b600080546105109061265b565b80601f016020809104026020016040519081016040528092919081815260200182805461053c9061265b565b80156105895780601f1061055e57610100808354040283529160200191610589565b820191906000526020600020905b81548152906001019060200180831161056c57829003601f168201915b505050505081565b6000806000600860009054906101000a90046001600160a01b03166001600160a01b0316630902f1ac6040518163ffffffff1660e01b815260040160606040518083038186803b1580156105e457600080fd5b505afa1580156105f8573d6000803e3d6000fd5b505050506040513d601f19601f8201168201806040525081019061061c91906126a7565b600354929550909350915061063057909192565b600a54600854604080516318160ddd60e01b815290516000926001600160a01b0316916318160ddd916004808301926020929190829003018186803b15801561067857600080fd5b505afa15801561068c573d6000803e3d6000fd5b505050506040513d601f19601f820116820180604052508101906106b091906126f7565b90506106d76106d2826106cc856001600160701b038a16611477565b906114fd565b61153f565b94506106f36106d2826106cc856001600160701b038916611477565b93506064856001600160701b031611801561071757506064846001600160701b0316115b6107775760405162461bcd60e51b815260206004820152602660248201527f5374616b65644c50546f6b656e30313a20494e53554646494349454e545f524560448201526553455256455360d01b60648201526084015b60405180910390fd5b5050909192565b600061078b338484611598565b5060015b92915050565b6001600160a01b03831660009081526005602090815260408083203384529091528120546000191461084957604080518082018252601b81527f456c656f733a205452414e534645525f4e4f545f414c4c4f57454400000000006020808301919091526001600160a01b03871660009081526005825283812033825290915291909120546108249184906115fa565b6001600160a01b03851660009081526005602090815260408083203384529091529020555b610854848484611634565b5060019392505050565b600354600a5460009190811580610873575080155b1561088857670de0b6b3a76400009250505090565b61089e826106cc83670de0b6b3a7640000611477565b9250505090565b6009546001600160a01b03161561090a5760405162461bcd60e51b8152602060048201526024808201527f5374616b65644c50546f6b656e30313a20464143544f52595f414c524541445960448201526317d4d15560e21b606482015260840161076e565b600980546001600160a01b03191633179055604080518082018252601181527029ba30b5b2b2102ab734b9bbb0b8102b1960791b6020808301919091528251808401909352600b83526a29aa25a216aaa72496ab1960a91b9083015261096f91611712565b600b8054610100600160a81b0319166101006001600160a01b038a81169190910291909117909155600880546001600160a01b031990811689841617909155600c80548216888416908117909155600f80548316888516179055601080548316878516179055600d80548316868516179055600e80549092169284169290921790556109fe90836000196117d8565b610a146001600160a01b038216836000196117d8565b610a2a6001600160a01b038716886000196117d8565b50505050505050565b6009546001600160a01b031615610a8c5760405162461bcd60e51b815260206004820152601a60248201527f456c656f733a20464143544f52595f414c52454144595f534554000000000000604482015260640161076e565b600980546001600160a01b03191633179055565b60085460408051635909c0d560e01b815290516000926001600160a01b031691635909c0d5916004808301926020929190829003018186803b158015610ae557600080fd5b505afa158015610af9573d6000803e3d6000fd5b505050506040513d601f19601f82011682018060405250810190610b1d91906126f7565b905090565b60085460408051635a3d549360e01b815290516000926001600160a01b031691635a3d5493916004808301926020929190829003018186803b158015610ae557600080fd5b600b5460009060ff16610b8c5760405162461bcd60e51b815260040161076e90612710565b600b805460ff19169055600854600090610bae906001600160a01b03166118e2565b600b5460405163534a7e1d60e11b81526004810183905291925061010090046001600160a01b03169063a694fc3a90602401600060405180830381600087803b158015610bfa57600080fd5b505af1158015610c0e573d6000803e3d6000fd5b50505050610c2f610c1d61085e565b6106cc83670de0b6b3a7640000611477565b915060035460001415610c5757610c48826103e861195c565b9150610c5760006103e861199e565b60008211610cb15760405162461bcd60e51b815260206004820152602160248201527f5374616b65644c50546f6b656e30313a204d494e545f414d4f554e545f5a45526044820152604f60f81b606482015260840161076e565b610cbb838361199e565b60408051828152602081018490526001600160a01b0385169133917f2f00e3cdd69a77be7ed215ec7b2a36784dd158f921fca79ac29deffa353fe6ee91015b60405180910390a350610d0b611a2e565b600b805460ff19166001179055919050565b600b5460009060ff16610d425760405162461bcd60e51b815260040161076e90612710565b600b805460ff1916905530600090815260046020526040902054610d7a670de0b6b3a76400006106cc610d7361085e565b8490611477565b915060008211610dd85760405162461bcd60e51b815260206004820152602360248201527f5374616b65644c50546f6b656e30313a2052454445454d5f414d4f554e545f5a60448201526245524f60e81b606482015260840161076e565b600a54821115610e355760405162461bcd60e51b815260206004820152602260248201527f5374616b65644c50546f6b656e30313a20494e53554646494349454e545f43416044820152610a6960f31b606482015260840161076e565b610e3f3082611ae7565b600b54604051632e1a7d4d60e01b8152600481018490526101009091046001600160a01b031690632e1a7d4d90602401600060405180830381600087803b158015610e8957600080fd5b505af1158015610e9d573d6000803e3d6000fd5b50505050610eab8383611b71565b60408051838152602081018390526001600160a01b0385169133917f3f693fff038bb8a046aa76d9516190ac7444f7d69cf952c4cbdc086fdef2d6fc9101610cfa565b600180546105109061265b565b600061078b338484611634565b600b5460ff16610f2a5760405162461bcd60e51b815260040161076e90612710565b600b805460ff19169055600a546008546040516370a0823160e01b8152306004820152610fc7928492610fc2926001600160a01b03909116906370a082319060240160206040518083038186803b158015610f8457600080fd5b505afa158015610f98573d6000803e3d6000fd5b505050506040513d601f19601f82011682018060405250810190610fbc91906126f7565b9061195c565b611b71565b50600b805460ff19166001179055565b611007878787878787877f6e71edae12b1b97f4d1f60370fef10105fa2faae0126114a169c64845d6126c9611cb6565b610a2a878787611598565b600b5460ff166110345760405162461bcd60e51b815260040161076e90612710565b600b805460ff1916905533321461104a57600080fd5b600b60019054906101000a90046001600160a01b03166001600160a01b0316633d18b9126040518163ffffffff1660e01b8152600401600060405180830381600087803b15801561109a57600080fd5b505af11580156110ae573d6000803e3d6000fd5b5050600c54600092506110ca91506001600160a01b03166118e2565b9050806110d7575061142c565b6000670de0b6b3a76400006110f38366470de4df820000611477565b6110fd9190612750565b600c54909150611117906001600160a01b03163383611e9f565b600c54600f5460009182916001600160a01b039081169116148061114b5750600c546010546001600160a01b039081169116145b1561119e57600c54600f546001600160a01b0390811691161461118057601054600f546001600160a01b039182169116611194565b600f546010546001600160a01b0391821691165b909250905061125e565b600c54600e546111c4916001600160a01b0390811691166111bf878761195c565b611fa3565b600e54600f546001600160a01b03908116911614806111f35750600e546010546001600160a01b039081169116145b1561122857600e54600f546001600160a01b0390811691161461118057601054600f546001600160a01b039182169116611194565b600e54600f54611248916001600160a01b0390811691166111bf826118e2565b5050600f546010546001600160a01b0391821691165b6000611272836001600160a01b03166118e2565b90506000811161128457611284612772565b600080600860009054906101000a90046001600160a01b03166001600160a01b0316630902f1ac6040518163ffffffff1660e01b815260040160606040518083038186803b1580156112d557600080fd5b505afa1580156112e9573d6000803e3d6000fd5b505050506040513d601f19601f8201168201806040525081019061130d91906126a7565b50600f546001600160701b039283169450911691506000906001600160a01b0387811691161461133d578161133f565b825b9050600061134d85836120c5565b905061135a878783611fa3565b6000611382888861136b898661195c565b61137d8b6001600160a01b03166118e2565b61212e565b600b5460405163534a7e1d60e11b81526004810183905291925061010090046001600160a01b03169063a694fc3a90602401600060405180830381600087803b1580156113ce57600080fd5b505af11580156113e2573d6000803e3d6000fd5b5050604080518d8152602081018d90523393507fc003f45bc224d116b6d079100d4ab57a5b9633244c47a5a92a176c5b79a85f2892500160405180910390a2505050505050505050505b611434611a2e565b600b805460ff19166001179055565b600b5460ff166114655760405162461bcd60e51b815260040161076e90612710565b600b805460ff19169055611434611a2e565b6000826114865750600061078f565b60006114928385612788565b90508261149f8583612750565b146114f65760405162461bcd60e51b815260206004820152602160248201527f536166654d6174683a206d756c7469706c69636174696f6e206f766572666c6f6044820152607760f81b606482015260840161076e565b9392505050565b60006114f683836040518060400160405280601a81526020017f536166654d6174683a206469766973696f6e206279207a65726f0000000000008152506121fe565b6000600160701b82106115945760405162461bcd60e51b815260206004820152601860248201527f5374616b65644c50546f6b656e30313a20534146453131320000000000000000604482015260640161076e565b5090565b6001600160a01b0383811660008181526005602090815260408083209487168084529482529182902085905590518481527f8c5be1e5ebec7d5bd14f71427d1e84f3dd0314c0f7b2291e5b200ac8c7c3b92591015b60405180910390a3505050565b6000818484111561161e5760405162461bcd60e51b815260040161076e9190612464565b50600061162b84866127a7565b95945050505050565b604080518082018252601881527f456c656f733a205452414e534645525f544f4f5f4849474800000000000000006020808301919091526001600160a01b03861660009081526004909152919091205461168f9183906115fa565b6001600160a01b0380851660009081526004602052604080822093909355908416815220546116be908261222c565b6001600160a01b0380841660008181526004602052604090819020939093559151908516907fddf252ad1be2c89b69c2b068fc378daa952ba7f163c4a11628f55a4df523b3ef906115ed9085815260200190565b81516117259060009060208501906123a8565b5080516117399060019060208401906123a8565b5050805160209182012060408051808201825260018152603160f81b9084015280517f8b73c3c69bb8fe3d512ecc4cf759cc79239f7b179b0ffacaa9a75d522b39400f81850152808201929092527fc89efdaa54c0f20c7adf612882df0950f5a951637e0307cdcb4c672f298b8bc660608301524660808301523060a0808401919091528151808403909101815260c090920190528051910120600655565b604080516001600160a01b038481166024830152604480830185905283518084039091018152606490920183526020820180516001600160e01b031663095ea7b360e01b179052915160009283929087169161183491906127be565b6000604051808303816000865af19150503d8060008114611871576040519150601f19603f3d011682016040523d82523d6000602084013e611876565b606091505b50915091508180156118a05750805115806118a05750808060200190518101906118a091906127da565b6118db5760405162461bcd60e51b815260206004820152600c60248201526b2173616665417070726f766560a01b604482015260640161076e565b5050505050565b6040516370a0823160e01b81523060048201526000906001600160a01b038316906370a082319060240160206040518083038186803b15801561192457600080fd5b505afa158015611938573d6000803e3d6000fd5b505050506040513d601f19601f8201168201806040525081019061078f91906126f7565b60006114f683836040518060400160405280601f81526020017f536166654d6174683a207375627472616374696f6e20756e646572666c6f77008152506115fa565b6003546119ab908261222c565b6003556001600160a01b0382166000908152600460205260409020546119d1908261222c565b6001600160a01b0383166000818152600460205260408082209390935591519091907fddf252ad1be2c89b69c2b068fc378daa952ba7f163c4a11628f55a4df523b3ef90611a229085815260200190565b60405180910390a35050565b600b546040516370a0823160e01b81523060048201526101009091046001600160a01b0316906370a082319060240160206040518083038186803b158015611a7557600080fd5b505afa158015611a89573d6000803e3d6000fd5b505050506040513d601f19601f82011682018060405250810190611aad91906126f7565b600a8190556040519081527f8a0df8ef054fae2c3d2d19a7b322e864870cc9fd3cb07fb9526309c596244bf49060200160405180910390a1565b6001600160a01b038216600090815260046020526040902054611b0a908261195c565b6001600160a01b038316600090815260046020526040902055600354611b30908261195c565b6003556040518181526000906001600160a01b038416907fddf252ad1be2c89b69c2b068fc378daa952ba7f163c4a11628f55a4df523b3ef90602001611a22565b600854604080518082018252601981527f7472616e7366657228616464726573732c75696e74323536290000000000000060209182015281516001600160a01b0386811660248301526044808301879052845180840390910181526064909201845291810180516001600160e01b031663a9059cbb60e01b17905291516000938493921691611bff916127be565b6000604051808303816000865af19150503d8060008114611c3c576040519150601f19603f3d011682016040523d82523d6000602084013e611c41565b606091505b5091509150818015611c6b575080511580611c6b575080806020019051810190611c6b91906127da565b611cb05760405162461bcd60e51b8152602060048201526016602482015275115b195bdcce881514905394d1915497d1905253115160521b604482015260640161076e565b50505050565b42851015611cf75760405162461bcd60e51b815260206004820152600e60248201526d115b195bdcce881156141254915160921b604482015260640161076e565b6001600160a01b0388166000908152600760205260408120805483918b918b918b919086611d24836127fc565b909155506040805160208101969096526001600160a01b0394851690860152929091166060840152608083015260a082015260c0810187905260e001604051602081830303815290604052805190602001209050600060065482604051602001611da592919061190160f01b81526002810192909252602282015260420190565b60408051601f198184030181528282528051602091820120600080855291840180845281905260ff8a169284019290925260608301889052608083018790529092509060019060a0016020604051602081039080840390855afa158015611e10573d6000803e3d6000fd5b5050604051601f1901519150506001600160a01b03811615801590611e4657508a6001600160a01b0316816001600160a01b0316145b611e925760405162461bcd60e51b815260206004820152601860248201527f456c656f733a20494e56414c49445f5349474e41545552450000000000000000604482015260640161076e565b5050505050505050505050565b604080516001600160a01b038481166024830152604480830185905283518084039091018152606490920183526020820180516001600160e01b031663a9059cbb60e01b1790529151600092839290871691611efb91906127be565b6000604051808303816000865af19150503d8060008114611f38576040519150601f19603f3d011682016040523d82523d6000602084013e611f3d565b606091505b5091509150818015611f67575080511580611f67575080806020019051810190611f6791906127da565b6118db5760405162461bcd60e51b815260206004820152600d60248201526c10b9b0b332aa3930b739b332b960991b604482015260640161076e565b6040805160028082526060820183526000926020830190803683370190505090508381600081518110611fd857611fd861282d565b60200260200101906001600160a01b031690816001600160a01b031681525050828160018151811061200c5761200c61282d565b60200260200101906001600160a01b031690816001600160a01b031681525050612036848361228b565b600d546040516338ed173960e01b81526001600160a01b03909116906338ed17399061206f908590600090869030904290600401612843565b600060405180830381600087803b15801561208957600080fd5b505af115801561209d573d6000803e3d6000fd5b505050506040513d6000823e601f3d908101601f191682016040526118db91908101906128b4565b6000806120d46107cd84611477565b905060006120f2610f946120ec8681896103e8611477565b90611477565b9050600061211261210d836121078680611477565b9061222c565b612338565b90506121246107ca6106cc838661195c565b9695505050505050565b600061213a858461228b565b612144848361228b565b600d5460405162e8e33760e81b81526001600160a01b0387811660048301528681166024830152604482018690526064820185905260006084830181905260a48301523060c48301524260e48301529091169063e8e337009061010401606060405180830381600087803b1580156121bb57600080fd5b505af11580156121cf573d6000803e3d6000fd5b505050506040513d601f19601f820116820180604052508101906121f39190612972565b979650505050505050565b6000818361221f5760405162461bcd60e51b815260040161076e9190612464565b50600061162b8486612750565b60008061223983856129a0565b9050838110156114f65760405162461bcd60e51b815260206004820152601b60248201527f536166654d6174683a206164646974696f6e206f766572666c6f770000000000604482015260640161076e565b600d54604051636eb1769f60e11b81523060048201526001600160a01b039182166024820152829184169063dd62ed3e9060440160206040518083038186803b1580156122d757600080fd5b505afa1580156122eb573d6000803e3d6000fd5b505050506040513d601f19601f8201168201806040525081019061230f91906126f7565b10612318575050565b600d54612334906001600160a01b0384811691166000196117d8565b5050565b600060038211156123995750806000612352600283612750565b61235d9060016129a0565b90505b81811015612393579050806002816123788186612750565b61238291906129a0565b61238c9190612750565b9050612360565b50919050565b81156123a3575060015b919050565b8280546123b49061265b565b90600052602060002090601f0160209004810192826123d6576000855561241c565b82601f106123ef57805160ff191683800117855561241c565b8280016001018555821561241c579182015b8281111561241c578251825591602001919060010190612401565b506115949291505b808211156115945760008155600101612424565b60005b8381101561245357818101518382015260200161243b565b83811115611cb05750506000910152565b6020815260008251806020840152612483816040850160208701612438565b601f01601f19169190910160400192915050565b80356001600160a01b03811681146123a357600080fd5b600080604083850312156124c157600080fd5b6124ca83612497565b946020939093013593505050565b6000806000606084860312156124ed57600080fd5b6124f684612497565b925061250460208501612497565b9150604084013590509250925092565b600080600080600080600060e0888a03121561252f57600080fd5b61253888612497565b965061254660208901612497565b955061255460408901612497565b945061256260608901612497565b935061257060808901612497565b925061257e60a08901612497565b915061258c60c08901612497565b905092959891949750929550565b6000602082840312156125ac57600080fd5b6114f682612497565b600080600080600080600060e0888a0312156125d057600080fd5b6125d988612497565b96506125e760208901612497565b95506040880135945060608801359350608088013560ff8116811461260b57600080fd5b9699959850939692959460a0840135945060c09093013592915050565b6000806040838503121561263b57600080fd5b61264483612497565b915061265260208401612497565b90509250929050565b600181811c9082168061266f57607f821691505b6020821081141561239357634e487b7160e01b600052602260045260246000fd5b80516001600160701b03811681146123a357600080fd5b6000806000606084860312156126bc57600080fd5b6126c584612690565b92506126d360208501612690565b9150604084015163ffffffff811681146126ec57600080fd5b809150509250925092565b60006020828403121561270957600080fd5b5051919050565b60208082526010908201526f115b195bdcce8814915153951154915160821b604082015260600190565b634e487b7160e01b600052601160045260246000fd5b60008261276d57634e487b7160e01b600052601260045260246000fd5b500490565b634e487b7160e01b600052600160045260246000fd5b60008160001904831182151516156127a2576127a261273a565b500290565b6000828210156127b9576127b961273a565b500390565b600082516127d0818460208701612438565b9190910192915050565b6000602082840312156127ec57600080fd5b815180151581146114f657600080fd5b60006000198214156128105761281061273a565b5060010190565b634e487b7160e01b600052604160045260246000fd5b634e487b7160e01b600052603260045260246000fd5b600060a082018783526020878185015260a0604085015281875180845260c086019150828901935060005b818110156128935784516001600160a01b03168352938301939183019160010161286e565b50506001600160a01b03969096166060850152505050608001529392505050565b600060208083850312156128c757600080fd5b825167ffffffffffffffff808211156128df57600080fd5b818501915085601f8301126128f357600080fd5b81518181111561290557612905612817565b8060051b604051601f19603f8301168101818110858211171561292a5761292a612817565b60405291825284820192508381018501918883111561294857600080fd5b938501935b828510156129665784518452938501939285019261294d565b98975050505050505050565b60008060006060848603121561298757600080fd5b8351925060208401519150604084015190509250925092565b600082198211156129b3576129b361273a565b50019056fea264697066735822122067a5537acb1640975ac8fc4611d33e6bdb23e2e785d7ae42ae6ce0f66714b62e64736f6c63430008090033",
  "linkReferences": {},
  "deployedLinkReferences": {}
}