{
  "_format": "hh-sol-artifact-1",
  "contractName": "StakingRewards",
  "sourceName": "contracts/StakingRewards.sol",
  "abi": [
    {
      "inputs": [
        {
          "internalType": "address",
          "name": "_rewardsDistribution",
          "type": "address"
        },
        {
          "internalType": "address",
          "name": "_rewardsToken",
          "type": "address"
        },
        {
          "internalType": "address",
          "name": "_stakingToken",
          "type": "address"
        }
      ],
      "stateMutability": "nonpayable",
      "type": "constructor"
    },
    {
      "anonymous": false,
      "inputs": [
        {
          "indexed": false,
          "internalType": "uint256",
          "name": "reward",
          "type": "uint256"
        },
        {
          "indexed": false,
          "internalType": "uint256",
          "name": "periodFinish",
          "type": "uint256"
        }
      ],
      "name": "RewardAdded",
      "type": "event"
    },
    {
      "anonymous": false,
      "inputs": [
        {
          "indexed": true,
          "internalType": "address",
          "name": "user",
          "type": "address"
        },
        {
          "indexed": false,
          "internalType": "uint256",
          "name": "reward",
          "type": "uint256"
        }
      ],
      "name": "RewardPaid",
      "type": "event"
    },
    {
      "anonymous": false,
      "inputs": [
        {
          "indexed": true,
          "internalType": "address",
          "name": "user",
          "type": "address"
        },
        {
          "indexed": false,
          "internalType": "uint256",
          "name": "amount",
          "type": "uint256"
        }
      ],
      "name": "Staked",
      "type": "event"
    },
    {
      "anonymous": false,
      "inputs": [
        {
          "indexed": true,
          "internalType": "address",
          "name": "user",
          "type": "address"
        },
        {
          "indexed": false,
          "internalType": "uint256",
          "name": "amount",
          "type": "uint256"
        }
      ],
      "name": "Withdrawn",
      "type": "event"
    },
    {
      "inputs": [
        {
          "internalType": "address",
          "name": "account",
          "type": "address"
        }
      ],
      "name": "balanceOf",
      "outputs": [
        {
          "internalType": "uint256",
          "name": "",
          "type": "uint256"
        }
      ],
      "stateMutability": "view",
      "type": "function"
    },
    {
      "inputs": [
        {
          "internalType": "address",
          "name": "account",
          "type": "address"
        }
      ],
      "name": "earned",
      "outputs": [
        {
          "internalType": "uint256",
          "name": "",
          "type": "uint256"
        }
      ],
      "stateMutability": "view",
      "type": "function"
    },
    {
      "inputs": [],
      "name": "exit",
      "outputs": [],
      "stateMutability": "nonpayable",
      "type": "function"
    },
    {
      "inputs": [],
      "name": "getReward",
      "outputs": [],
      "stateMutability": "nonpayable",
      "type": "function"
    },
    {
      "inputs": [],
      "name": "lastTimeRewardApplicable",
      "outputs": [
        {
          "internalType": "uint256",
          "name": "",
          "type": "uint256"
        }
      ],
      "stateMutability": "view",
      "type": "function"
    },
    {
      "inputs": [],
      "name": "lastUpdateTime",
      "outputs": [
        {
          "internalType": "uint256",
          "name": "",
          "type": "uint256"
        }
      ],
      "stateMutability": "view",
      "type": "function"
    },
    {
      "inputs": [
        {
          "internalType": "uint256",
          "name": "reward",
          "type": "uint256"
        },
        {
          "internalType": "uint256",
          "name": "rewardsDuration",
          "type": "uint256"
        }
      ],
      "name": "notifyRewardAmount",
      "outputs": [],
      "stateMutability": "nonpayable",
      "type": "function"
    },
    {
      "inputs": [],
      "name": "periodFinish",
      "outputs": [
        {
          "internalType": "uint256",
          "name": "",
          "type": "uint256"
        }
      ],
      "stateMutability": "view",
      "type": "function"
    },
    {
      "inputs": [],
      "name": "rewardPerToken",
      "outputs": [
        {
          "internalType": "uint256",
          "name": "",
          "type": "uint256"
        }
      ],
      "stateMutability": "view",
      "type": "function"
    },
    {
      "inputs": [],
      "name": "rewardPerTokenStored",
      "outputs": [
        {
          "internalType": "uint256",
          "name": "",
          "type": "uint256"
        }
      ],
      "stateMutability": "view",
      "type": "function"
    },
    {
      "inputs": [],
      "name": "rewardRate",
      "outputs": [
        {
          "internalType": "uint256",
          "name": "",
          "type": "uint256"
        }
      ],
      "stateMutability": "view",
      "type": "function"
    },
    {
      "inputs": [
        {
          "internalType": "address",
          "name": "",
          "type": "address"
        }
      ],
      "name": "rewards",
      "outputs": [
        {
          "internalType": "uint256",
          "name": "",
          "type": "uint256"
        }
      ],
      "stateMutability": "view",
      "type": "function"
    },
    {
      "inputs": [],
      "name": "rewardsDistribution",
      "outputs": [
        {
          "internalType": "address",
          "name": "",
          "type": "address"
        }
      ],
      "stateMutability": "view",
      "type": "function"
    },
    {
      "inputs": [],
      "name": "rewardsToken",
      "outputs": [
        {
          "internalType": "contract IERC20",
          "name": "",
          "type": "address"
        }
      ],
      "stateMutability": "view",
      "type": "function"
    },
    {
      "inputs": [
        {
          "internalType": "uint256",
          "name": "amount",
          "type": "uint256"
        }
      ],
      "name": "stake",
      "outputs": [],
      "stateMutability": "nonpayable",
      "type": "function"
    },
    {
      "inputs": [
        {
          "internalType": "uint256",
          "name": "amount",
          "type": "uint256"
        },
        {
          "internalType": "uint256",
          "name": "deadline",
          "type": "uint256"
        },
        {
          "internalType": "uint8",
          "name": "v",
          "type": "uint8"
        },
        {
          "internalType": "bytes32",
          "name": "r",
          "type": "bytes32"
        },
        {
          "internalType": "bytes32",
          "name": "s",
          "type": "bytes32"
        }
      ],
      "name": "stakeWithPermit",
      "outputs": [],
      "stateMutability": "nonpayable",
      "type": "function"
    },
    {
      "inputs": [],
      "name": "stakingToken",
      "outputs": [
        {
          "internalType": "contract IERC20",
          "name": "",
          "type": "address"
        }
      ],
      "stateMutability": "view",
      "type": "function"
    },
    {
      "inputs": [],
      "name": "totalSupply",
      "outputs": [
        {
          "internalType": "uint256",
          "name": "",
          "type": "uint256"
        }
      ],
      "stateMutability": "view",
      "type": "function"
    },
    {
      "inputs": [
        {
          "internalType": "address",
          "name": "",
          "type": "address"
        }
      ],
      "name": "userRewardPerTokenPaid",
      "outputs": [
        {
          "internalType": "uint256",
          "name": "",
          "type": "uint256"
        }
      ],
      "stateMutability": "view",
      "type": "function"
    },
    {
      "inputs": [
        {
          "internalType": "uint256",
          "name": "amount",
          "type": "uint256"
        }
      ],
      "name": "withdraw",
      "outputs": [],
      "stateMutability": "nonpayable",
      "type": "function"
    }
  ],
  "bytecode": "0x608060405260006003819055600455600b805460ff1916600117905534801561002757600080fd5b506040516200143238038062001432833981016040819052610048916100a9565b600180546001600160a01b039384166001600160a01b0319918216179091556002805492841692821692909217909155600080549390921692169190911790556100ec565b80516001600160a01b03811681146100a457600080fd5b919050565b6000806000606084860312156100be57600080fd5b6100c78461008d565b92506100d56020850161008d565b91506100e36040850161008d565b90509250925092565b61133680620000fc6000396000f3fe608060405234801561001057600080fd5b506004361061012b5760003560e01c806380faa57d116100ad578063d1af0c7d11610071578063d1af0c7d1461026a578063df136d651461027d578063e9fad8ee14610286578063ebe2b12b1461028e578063ecd9ba821461029757600080fd5b806380faa57d1461021e5780638b87634714610226578063a694fc3a14610246578063c8f33c9114610259578063cd3daf9d1461026257600080fd5b80633d18b912116100f45780633d18b912146101a65780633fc6df6e146101ae57806370a08231146101d957806372f702f3146102025780637b0a47ee1461021557600080fd5b80628cc262146101305780630700037d1461015657806318160ddd14610176578063246132f91461017e5780632e1a7d4d14610193575b600080fd5b61014361013e3660046110e7565b6102aa565b6040519081526020015b60405180910390f35b6101436101643660046110e7565b60086020526000908152604090205481565b600954610143565b61019161018c366004611110565b610328565b005b6101916101a1366004611132565b6105d9565b610191610741565b6000546101c1906001600160a01b031681565b6040516001600160a01b03909116815260200161014d565b6101436101e73660046110e7565b6001600160a01b03166000908152600a602052604090205490565b6002546101c1906001600160a01b031681565b61014360045481565b61014361084a565b6101436102343660046110e7565b60076020526000908152604090205481565b610191610254366004611132565b61085d565b61014360055481565b6101436109ae565b6001546101c1906001600160a01b031681565b61014360065481565b6101916109fa565b61014360035481565b6101916102a536600461114b565b610a1d565b6001600160a01b0381166000908152600860209081526040808320546007909252822054610322919061031c90670de0b6b3a764000090610316906102f7906102f16109ae565b90610c10565b6001600160a01b0388166000908152600a602052604090205490610c59565b90610cd8565b90610d1a565b92915050565b6000546001600160a01b0316331461039a5760405162461bcd60e51b815260206004820152602a60248201527f43616c6c6572206973206e6f742052657761726473446973747269627574696f6044820152691b8818dbdb9d1c9858dd60b21b60648201526084015b60405180910390fd5b60006103a46109ae565b6006556103af61084a565b6005556001600160a01b038116156103f6576103ca816102aa565b6001600160a01b0382166000908152600860209081526040808320939093556006546007909152919020555b6003546104034284610d1a565b10156104515760405162461bcd60e51b815260206004820152601d60248201527f43616e6e6f7420726564756365206578697374696e6720706572696f640000006044820152606401610391565b600354421061046c576104648383610cd8565b6004556104ab565b60035460009061047c9042610c10565b9050600061049560045483610c5990919063ffffffff16565b90506104a5846103168784610d1a565b60045550505b6001546040516370a0823160e01b81523060048201526000916001600160a01b0316906370a082319060240160206040518083038186803b1580156104ef57600080fd5b505afa158015610503573d6000803e3d6000fd5b505050506040513d601f19601f82011682018060405250810190610527919061119a565b90506105338184610cd8565b60045411156105845760405162461bcd60e51b815260206004820152601860248201527f50726f76696465642072657761726420746f6f206869676800000000000000006044820152606401610391565b4260058190556105949084610d1a565b60038190556040805186815260208101929092527f6c07ee05dcf262f13abf9d87b846ee789d2f90fe991d495acd7d7fc109ee1f55910160405180910390a150505050565b600b5460ff166105fb5760405162461bcd60e51b8152600401610391906111b3565b600b805460ff191690553361060e6109ae565b60065561061961084a565b6005556001600160a01b0381161561066057610634816102aa565b6001600160a01b0382166000908152600860209081526040808320939093556006546007909152919020555b600082116106a45760405162461bcd60e51b8152602060048201526011602482015270043616e6e6f74207769746864726177203607c1b6044820152606401610391565b6009546106b19083610c10565b600955336000908152600a60205260409020546106ce9083610c10565b336000818152600a60205260409020919091556002546106fa916001600160a01b039091169084610d79565b60405182815233907f7084f5476618d8e60b11ef0d7d3f06914655adb8793e28ff7f018d4c76d505d5906020015b60405180910390a25050600b805460ff19166001179055565b600b5460ff166107635760405162461bcd60e51b8152600401610391906111b3565b600b805460ff19169055336107766109ae565b60065561078161084a565b6005556001600160a01b038116156107c85761079c816102aa565b6001600160a01b0382166000908152600860209081526040808320939093556006546007909152919020555b3360009081526008602052604090205480156108395733600081815260086020526040812055600154610807916001600160a01b039091169083610d79565b60405181815233907fe2403640ba68fed3a2f88b7557551d1993f84b99bb10ff833f0cf8db0c5e048690602001610728565b5050600b805460ff19166001179055565b600061085842600354610de1565b905090565b600b5460ff1661087f5760405162461bcd60e51b8152600401610391906111b3565b600b805460ff19169055336108926109ae565b60065561089d61084a565b6005556001600160a01b038116156108e4576108b8816102aa565b6001600160a01b0382166000908152600860209081526040808320939093556006546007909152919020555b600082116109255760405162461bcd60e51b815260206004820152600e60248201526d043616e6e6f74207374616b6520360941b6044820152606401610391565b6009546109329083610d1a565b600955336000908152600a602052604090205461094f9083610d1a565b336000818152600a602052604090209190915560025461097c916001600160a01b03909116903085610df7565b60405182815233907f9e71bc8eea02a63969f509818f2dafb9254532904319f9dbda79b67bd34a5f3d90602001610728565b6000600954600014156109c2575060065490565b6108586109f1600954610316670de0b6b3a76400006109eb6004546109eb6005546102f161084a565b90610c59565b60065490610d1a565b336000908152600a6020526040902054610a13906105d9565b610a1b610741565b565b600b5460ff16610a3f5760405162461bcd60e51b8152600401610391906111b3565b600b805460ff1916905533610a526109ae565b600655610a5d61084a565b6005556001600160a01b03811615610aa457610a78816102aa565b6001600160a01b0382166000908152600860209081526040808320939093556006546007909152919020555b60008611610ae55760405162461bcd60e51b815260206004820152600e60248201526d043616e6e6f74207374616b6520360941b6044820152606401610391565b600954610af29087610d1a565b600955336000908152600a6020526040902054610b0f9087610d1a565b336000818152600a60205260409081902092909255600254915163d505accf60e01b81526004810191909152306024820152604481018890526064810187905260ff8616608482015260a4810185905260c481018490526001600160a01b039091169063d505accf9060e401600060405180830381600087803b158015610b9557600080fd5b505af1158015610ba9573d6000803e3d6000fd5b5050600254610bc692506001600160a01b03169050333089610df7565b60405186815233907f9e71bc8eea02a63969f509818f2dafb9254532904319f9dbda79b67bd34a5f3d9060200160405180910390a25050600b805460ff1916600117905550505050565b6000610c5283836040518060400160405280601f81526020017f536166654d6174683a207375627472616374696f6e20756e646572666c6f7700815250610e35565b9392505050565b600082610c6857506000610322565b6000610c7483856111f3565b905082610c818583611212565b14610c525760405162461bcd60e51b815260206004820152602160248201527f536166654d6174683a206d756c7469706c69636174696f6e206f766572666c6f6044820152607760f81b6064820152608401610391565b6000610c5283836040518060400160405280601a81526020017f536166654d6174683a206469766973696f6e206279207a65726f000000000000815250610e6f565b600080610d278385611234565b905083811015610c525760405162461bcd60e51b815260206004820152601b60248201527f536166654d6174683a206164646974696f6e206f766572666c6f7700000000006044820152606401610391565b6040516001600160a01b038316602482015260448101829052610ddc90849063a9059cbb60e01b906064015b60408051601f198184030181529190526020810180516001600160e01b03166001600160e01b031990931692909217909152610e9d565b505050565b6000818310610df05781610c52565b5090919050565b6040516001600160a01b0380851660248301528316604482015260648101829052610e2f9085906323b872dd60e01b90608401610da5565b50505050565b60008184841115610e595760405162461bcd60e51b81526004016103919190611278565b506000610e6684866112ab565b95945050505050565b60008183610e905760405162461bcd60e51b81526004016103919190611278565b506000610e668486611212565b6000610ef2826040518060400160405280602081526020017f5361666545524332303a206c6f772d6c6576656c2063616c6c206661696c6564815250856001600160a01b0316610f6f9092919063ffffffff16565b805190915015610ddc5780806020019051810190610f1091906112c2565b610ddc5760405162461bcd60e51b815260206004820152602a60248201527f5361666545524332303a204552433230206f7065726174696f6e20646964206e6044820152691bdd081cdd58d8d9595960b21b6064820152608401610391565b6060610f7e8484600085610f86565b949350505050565b606082471015610fe75760405162461bcd60e51b815260206004820152602660248201527f416464726573733a20696e73756666696369656e742062616c616e636520666f6044820152651c8818d85b1b60d21b6064820152608401610391565b843b6110355760405162461bcd60e51b815260206004820152601d60248201527f416464726573733a2063616c6c20746f206e6f6e2d636f6e74726163740000006044820152606401610391565b600080866001600160a01b0316858760405161105191906112e4565b60006040518083038185875af1925050503d806000811461108e576040519150601f19603f3d011682016040523d82523d6000602084013e611093565b606091505b50915091506110a38282866110ae565b979650505050505050565b606083156110bd575081610c52565b8251156110cd5782518084602001fd5b8160405162461bcd60e51b81526004016103919190611278565b6000602082840312156110f957600080fd5b81356001600160a01b0381168114610c5257600080fd5b6000806040838503121561112357600080fd5b50508035926020909101359150565b60006020828403121561114457600080fd5b5035919050565b600080600080600060a0868803121561116357600080fd5b8535945060208601359350604086013560ff8116811461118257600080fd5b94979396509394606081013594506080013592915050565b6000602082840312156111ac57600080fd5b5051919050565b60208082526010908201526f115b195bdcce8814915153951154915160821b604082015260600190565b634e487b7160e01b600052601160045260246000fd5b600081600019048311821515161561120d5761120d6111dd565b500290565b60008261122f57634e487b7160e01b600052601260045260246000fd5b500490565b60008219821115611247576112476111dd565b500190565b60005b8381101561126757818101518382015260200161124f565b83811115610e2f5750506000910152565b602081526000825180602084015261129781604085016020870161124c565b601f01601f19169190910160400192915050565b6000828210156112bd576112bd6111dd565b500390565b6000602082840312156112d457600080fd5b81518015158114610c5257600080fd5b600082516112f681846020870161124c565b919091019291505056fea2646970667358221220cd001306f35e80a3a3e45ac90c1af26a61953e7a0859337b1d499f22f6a1937864736f6c63430008090033",
  "linkReferences": {},
  "deployedLinkReferences": {}
}