{
  "_format": "hh-sol-artifact-1",
  "contractName": "VaultToken",
  "sourceName": "contracts/VaultToken.sol",
  "abi": [
    {
      "anonymous": false,
      "inputs": [
        {
          "indexed": true,
          "internalType": "address",
          "name": "owner",
          "type": "address"
        },
        {
          "indexed": true,
          "internalType": "address",
          "name": "spender",
          "type": "address"
        },
        {
          "indexed": false,
          "internalType": "uint256",
          "name": "value",
          "type": "uint256"
        }
      ],
      "name": "Approval",
      "type": "event"
    },
    {
      "anonymous": false,
      "inputs": [
        {
          "indexed": true,
          "internalType": "address",
          "name": "sender",
          "type": "address"
        },
        {
          "indexed": true,
          "internalType": "address",
          "name": "minter",
          "type": "address"
        },
        {
          "indexed": false,
          "internalType": "uint256",
          "name": "mintAmount",
          "type": "uint256"
        },
        {
          "indexed": false,
          "internalType": "uint256",
          "name": "mintTokens",
          "type": "uint256"
        }
      ],
      "name": "Mint",
      "type": "event"
    },
    {
      "anonymous": false,
      "inputs": [
        {
          "indexed": true,
          "internalType": "address",
          "name": "sender",
          "type": "address"
        },
        {
          "indexed": true,
          "internalType": "address",
          "name": "redeemer",
          "type": "address"
        },
        {
          "indexed": false,
          "internalType": "uint256",
          "name": "redeemAmount",
          "type": "uint256"
        },
        {
          "indexed": false,
          "internalType": "uint256",
          "name": "redeemTokens",
          "type": "uint256"
        }
      ],
      "name": "Redeem",
      "type": "event"
    },
    {
      "anonymous": false,
      "inputs": [
        {
          "indexed": true,
          "internalType": "address",
          "name": "caller",
          "type": "address"
        },
        {
          "indexed": false,
          "internalType": "uint256",
          "name": "reward",
          "type": "uint256"
        },
        {
          "indexed": false,
          "internalType": "uint256",
          "name": "bounty",
          "type": "uint256"
        }
      ],
      "name": "Reinvest",
      "type": "event"
    },
    {
      "anonymous": false,
      "inputs": [
        {
          "indexed": false,
          "internalType": "uint256",
          "name": "totalBalance",
          "type": "uint256"
        }
      ],
      "name": "Sync",
      "type": "event"
    },
    {
      "anonymous": false,
      "inputs": [
        {
          "indexed": true,
          "internalType": "address",
          "name": "from",
          "type": "address"
        },
        {
          "indexed": true,
          "internalType": "address",
          "name": "to",
          "type": "address"
        },
        {
          "indexed": false,
          "internalType": "uint256",
          "name": "value",
          "type": "uint256"
        }
      ],
      "name": "Transfer",
      "type": "event"
    },
    {
      "inputs": [],
      "name": "DOMAIN_SEPARATOR",
      "outputs": [
        {
          "internalType": "bytes32",
          "name": "",
          "type": "bytes32"
        }
      ],
      "stateMutability": "view",
      "type": "function"
    },
    {
      "inputs": [],
      "name": "MINIMUM_LIQUIDITY",
      "outputs": [
        {
          "internalType": "uint256",
          "name": "",
          "type": "uint256"
        }
      ],
      "stateMutability": "view",
      "type": "function"
    },
    {
      "inputs": [],
      "name": "PERMIT_TYPEHASH",
      "outputs": [
        {
          "internalType": "bytes32",
          "name": "",
          "type": "bytes32"
        }
      ],
      "stateMutability": "view",
      "type": "function"
    },
    {
      "inputs": [],
      "name": "REINVEST_BOUNTY",
      "outputs": [
        {
          "internalType": "uint256",
          "name": "",
          "type": "uint256"
        }
      ],
      "stateMutability": "view",
      "type": "function"
    },
    {
      "inputs": [],
      "name": "WETH",
      "outputs": [
        {
          "internalType": "address",
          "name": "",
          "type": "address"
        }
      ],
      "stateMutability": "view",
      "type": "function"
    },
    {
      "inputs": [
        {
          "internalType": "contract IUniswapV2Router01",
          "name": "_router",
          "type": "address"
        },
        {
          "internalType": "contract IMasterChef",
          "name": "_masterChef",
          "type": "address"
        },
        {
          "internalType": "address",
          "name": "_rewardsToken",
          "type": "address"
        },
        {
          "internalType": "uint256",
          "name": "_swapFeeFactor",
          "type": "uint256"
        },
        {
          "internalType": "uint256",
          "name": "_pid",
          "type": "uint256"
        }
      ],
      "name": "_initialize",
      "outputs": [],
      "stateMutability": "nonpayable",
      "type": "function"
    },
    {
      "inputs": [],
      "name": "_setFactory",
      "outputs": [],
      "stateMutability": "nonpayable",
      "type": "function"
    },
    {
      "inputs": [
        {
          "internalType": "address",
          "name": "",
          "type": "address"
        },
        {
          "internalType": "address",
          "name": "",
          "type": "address"
        }
      ],
      "name": "allowance",
      "outputs": [
        {
          "internalType": "uint256",
          "name": "",
          "type": "uint256"
        }
      ],
      "stateMutability": "view",
      "type": "function"
    },
    {
      "inputs": [
        {
          "internalType": "address",
          "name": "spender",
          "type": "address"
        },
        {
          "internalType": "uint256",
          "name": "value",
          "type": "uint256"
        }
      ],
      "name": "approve",
      "outputs": [
        {
          "internalType": "bool",
          "name": "",
          "type": "bool"
        }
      ],
      "stateMutability": "nonpayable",
      "type": "function"
    },
    {
      "inputs": [
        {
          "internalType": "address",
          "name": "",
          "type": "address"
        }
      ],
      "name": "balanceOf",
      "outputs": [
        {
          "internalType": "uint256",
          "name": "",
          "type": "uint256"
        }
      ],
      "stateMutability": "view",
      "type": "function"
    },
    {
      "inputs": [],
      "name": "decimals",
      "outputs": [
        {
          "internalType": "uint8",
          "name": "",
          "type": "uint8"
        }
      ],
      "stateMutability": "view",
      "type": "function"
    },
    {
      "inputs": [],
      "name": "exchangeRate",
      "outputs": [
        {
          "internalType": "uint256",
          "name": "",
          "type": "uint256"
        }
      ],
      "stateMutability": "nonpayable",
      "type": "function"
    },
    {
      "inputs": [],
      "name": "factory",
      "outputs": [
        {
          "internalType": "address",
          "name": "",
          "type": "address"
        }
      ],
      "stateMutability": "view",
      "type": "function"
    },
    {
      "inputs": [],
      "name": "getReserves",
      "outputs": [
        {
          "internalType": "uint112",
          "name": "reserve0",
          "type": "uint112"
        },
        {
          "internalType": "uint112",
          "name": "reserve1",
          "type": "uint112"
        },
        {
          "internalType": "uint32",
          "name": "blockTimestampLast",
          "type": "uint32"
        }
      ],
      "stateMutability": "view",
      "type": "function"
    },
    {
      "inputs": [],
      "name": "isVaultToken",
      "outputs": [
        {
          "internalType": "bool",
          "name": "",
          "type": "bool"
        }
      ],
      "stateMutability": "view",
      "type": "function"
    },
    {
      "inputs": [],
      "name": "masterChef",
      "outputs": [
        {
          "internalType": "contract IMasterChef",
          "name": "",
          "type": "address"
        }
      ],
      "stateMutability": "view",
      "type": "function"
    },
    {
      "inputs": [
        {
          "internalType": "address",
          "name": "minter",
          "type": "address"
        }
      ],
      "name": "mint",
      "outputs": [
        {
          "internalType": "uint256",
          "name": "mintTokens",
          "type": "uint256"
        }
      ],
      "stateMutability": "nonpayable",
      "type": "function"
    },
    {
      "inputs": [],
      "name": "name",
      "outputs": [
        {
          "internalType": "string",
          "name": "",
          "type": "string"
        }
      ],
      "stateMutability": "view",
      "type": "function"
    },
    {
      "inputs": [
        {
          "internalType": "address",
          "name": "",
          "type": "address"
        }
      ],
      "name": "nonces",
      "outputs": [
        {
          "internalType": "uint256",
          "name": "",
          "type": "uint256"
        }
      ],
      "stateMutability": "view",
      "type": "function"
    },
    {
      "inputs": [
        {
          "internalType": "address",
          "name": "owner",
          "type": "address"
        },
        {
          "internalType": "address",
          "name": "spender",
          "type": "address"
        },
        {
          "internalType": "uint256",
          "name": "value",
          "type": "uint256"
        },
        {
          "internalType": "uint256",
          "name": "deadline",
          "type": "uint256"
        },
        {
          "internalType": "uint8",
          "name": "v",
          "type": "uint8"
        },
        {
          "internalType": "bytes32",
          "name": "r",
          "type": "bytes32"
        },
        {
          "internalType": "bytes32",
          "name": "s",
          "type": "bytes32"
        }
      ],
      "name": "permit",
      "outputs": [],
      "stateMutability": "nonpayable",
      "type": "function"
    },
    {
      "inputs": [],
      "name": "pid",
      "outputs": [
        {
          "internalType": "uint256",
          "name": "",
          "type": "uint256"
        }
      ],
      "stateMutability": "view",
      "type": "function"
    },
    {
      "inputs": [],
      "name": "price0CumulativeLast",
      "outputs": [
        {
          "internalType": "uint256",
          "name": "",
          "type": "uint256"
        }
      ],
      "stateMutability": "view",
      "type": "function"
    },
    {
      "inputs": [],
      "name": "price1CumulativeLast",
      "outputs": [
        {
          "internalType": "uint256",
          "name": "",
          "type": "uint256"
        }
      ],
      "stateMutability": "view",
      "type": "function"
    },
    {
      "inputs": [
        {
          "internalType": "address",
          "name": "redeemer",
          "type": "address"
        }
      ],
      "name": "redeem",
      "outputs": [
        {
          "internalType": "uint256",
          "name": "redeemAmount",
          "type": "uint256"
        }
      ],
      "stateMutability": "nonpayable",
      "type": "function"
    },
    {
      "inputs": [],
      "name": "reinvest",
      "outputs": [],
      "stateMutability": "nonpayable",
      "type": "function"
    },
    {
      "inputs": [],
      "name": "rewardsToken",
      "outputs": [
        {
          "internalType": "address",
          "name": "",
          "type": "address"
        }
      ],
      "stateMutability": "view",
      "type": "function"
    },
    {
      "inputs": [],
      "name": "router",
      "outputs": [
        {
          "internalType": "contract IUniswapV2Router01",
          "name": "",
          "type": "address"
        }
      ],
      "stateMutability": "view",
      "type": "function"
    },
    {
      "inputs": [
        {
          "internalType": "address",
          "name": "to",
          "type": "address"
        }
      ],
      "name": "skim",
      "outputs": [],
      "stateMutability": "nonpayable",
      "type": "function"
    },
    {
      "inputs": [],
      "name": "swapFeeFactor",
      "outputs": [
        {
          "internalType": "uint256",
          "name": "",
          "type": "uint256"
        }
      ],
      "stateMutability": "view",
      "type": "function"
    },
    {
      "inputs": [],
      "name": "symbol",
      "outputs": [
        {
          "internalType": "string",
          "name": "",
          "type": "string"
        }
      ],
      "stateMutability": "view",
      "type": "function"
    },
    {
      "inputs": [],
      "name": "sync",
      "outputs": [],
      "stateMutability": "nonpayable",
      "type": "function"
    },
    {
      "inputs": [],
      "name": "token0",
      "outputs": [
        {
          "internalType": "address",
          "name": "",
          "type": "address"
        }
      ],
      "stateMutability": "view",
      "type": "function"
    },
    {
      "inputs": [],
      "name": "token1",
      "outputs": [
        {
          "internalType": "address",
          "name": "",
          "type": "address"
        }
      ],
      "stateMutability": "view",
      "type": "function"
    },
    {
      "inputs": [],
      "name": "totalBalance",
      "outputs": [
        {
          "internalType": "uint256",
          "name": "",
          "type": "uint256"
        }
      ],
      "stateMutability": "view",
      "type": "function"
    },
    {
      "inputs": [],
      "name": "totalSupply",
      "outputs": [
        {
          "internalType": "uint256",
          "name": "",
          "type": "uint256"
        }
      ],
      "stateMutability": "view",
      "type": "function"
    },
    {
      "inputs": [
        {
          "internalType": "address",
          "name": "to",
          "type": "address"
        },
        {
          "internalType": "uint256",
          "name": "value",
          "type": "uint256"
        }
      ],
      "name": "transfer",
      "outputs": [
        {
          "internalType": "bool",
          "name": "",
          "type": "bool"
        }
      ],
      "stateMutability": "nonpayable",
      "type": "function"
    },
    {
      "inputs": [
        {
          "internalType": "address",
          "name": "from",
          "type": "address"
        },
        {
          "internalType": "address",
          "name": "to",
          "type": "address"
        },
        {
          "internalType": "uint256",
          "name": "value",
          "type": "uint256"
        }
      ],
      "name": "transferFrom",
      "outputs": [
        {
          "internalType": "bool",
          "name": "",
          "type": "bool"
        }
      ],
      "stateMutability": "nonpayable",
      "type": "function"
    },
    {
      "inputs": [],
      "name": "underlying",
      "outputs": [
        {
          "internalType": "address",
          "name": "",
          "type": "address"
        }
      ],
      "stateMutability": "view",
      "type": "function"
    }
  ],
  "bytecode": "0x60806040526002805460ff19908116601217909155600b8054909116600117905534801561002c57600080fd5b50612dd48061003c6000396000f3fe608060405234801561001057600080fd5b50600436106102325760003560e01c80636f307dc311610130578063bc25cf77116100b8578063dd62ed3e1161007c578063dd62ed3e146104cf578063f1068454146104fa578063f887ea4014610503578063fdb5a03e1461051b578063fff6cae91461052357600080fd5b8063bc25cf7714610470578063c45a015514610483578063d1af0c7d14610496578063d21220a7146104a9578063d505accf146104bc57600080fd5b806395d89b41116100ff57806395d89b4114610430578063a9059cbb14610438578063ad5c46481461044b578063ad7a672f1461045e578063ba9a7a561461046757600080fd5b80636f307dc3146103ca57806370a08231146103dd5780637ecebe00146103fd57806395a2251f1461041d57600080fd5b80633644e515116101be5780635a3d5493116101825780635a3d54931461039057806368f91a44146103985780636a627842146103a15780636c2a3bc5146103b45780636ee27227146103c257600080fd5b80633644e5151461035c5780633ba0b9a9146103655780634a5d316c1461036d578063575a86b2146103755780635909c0d51461038857600080fd5b806318160ddd1161020557806318160ddd146102d757806323b872dd146102ee5780632b34db341461030157806330adf81f14610316578063313ce5671461033d57600080fd5b806306fdde03146102375780630902f1ac14610255578063095ea7b3146102895780630dfe1681146102ac575b600080fd5b61023f61052b565b60405161024c91906127ed565b60405180910390f35b61025d6105b9565b604080516001600160701b03948516815293909216602084015263ffffffff169082015260600161024c565b61029c610297366004612838565b6107a1565b604051901515815260200161024c565b600f546102bf906001600160a01b031681565b6040516001600160a01b03909116815260200161024c565b6102e060035481565b60405190815260200161024c565b61029c6102fc366004612864565b6107b8565b61031461030f3660046128a5565b610881565b005b6102e07f6e71edae12b1b97f4d1f60370fef10105fa2faae0126114a169c64845d6126c981565b60025461034a9060ff1681565b60405160ff909116815260200161024c565b6102e060065481565b6102e0610c1f565b610314610c66565b600c546102bf906001600160a01b031681565b6102e0610cd3565b6102e0610d55565b6102e060115481565b6102e06103af366004612900565b610d9a565b6102e0662386f26fc1000081565b61029c600181565b6008546102bf906001600160a01b031681565b6102e06103eb366004612900565b60046020526000908152604090205481565b6102e061040b366004612900565b60076020526000908152604090205481565b6102e061042b366004612900565b61106e565b61023f611240565b61029c610446366004612838565b61124d565b600e546102bf906001600160a01b031681565b6102e0600a5481565b6102e06103e881565b61031461047e366004612900565b61125a565b6009546102bf906001600160a01b031681565b600d546102bf906001600160a01b031681565b6010546102bf906001600160a01b031681565b6103146104ca36600461291d565b611329565b6102e06104dd366004612994565b600560209081526000928352604080842090915290825290205481565b6102e060125481565b600b546102bf9061010090046001600160a01b031681565b61031461136d565b6103146117a8565b60008054610538906129cd565b80601f0160208091040260200160405190810160405280929190818152602001828054610564906129cd565b80156105b15780601f10610586576101008083540402835291602001916105b1565b820191906000526020600020905b81548152906001019060200180831161059457829003601f168201915b505050505081565b6000806000600860009054906101000a90046001600160a01b03166001600160a01b0316630902f1ac6040518163ffffffff1660e01b815260040160606040518083038186803b15801561060c57600080fd5b505afa158015610620573d6000803e3d6000fd5b505050506040513d601f19601f820116820180604052508101906106449190612a19565b600354929550909350915061065857909192565b600a54600854604080516318160ddd60e01b815290516000926001600160a01b0316916318160ddd916004808301926020929190829003018186803b1580156106a057600080fd5b505afa1580156106b4573d6000803e3d6000fd5b505050506040513d601f19601f820116820180604052508101906106d89190612a69565b90506106ff6106fa826106f4856001600160701b038a166117dc565b90611862565b6118a4565b945061071b6106fa826106f4856001600160701b0389166117dc565b93506064856001600160701b031611801561073f57506064846001600160701b0316115b61079a5760405162461bcd60e51b815260206004820152602160248201527f5661756c74546f6b656e3a20494e53554646494349454e545f524553455256456044820152605360f81b60648201526084015b60405180910390fd5b5050909192565b60006107ae3384846118f3565b5060015b92915050565b6001600160a01b03831660009081526005602090815260408083203384529091528120546000191461086c57604080518082018252601b81527f456c656f733a205452414e534645525f4e4f545f414c4c4f57454400000000006020808301919091526001600160a01b0387166000908152600582528381203382529091529190912054610847918490611955565b6001600160a01b03851660009081526005602090815260408083203384529091529020555b61087784848461198f565b5060019392505050565b6009546001600160a01b0316156108da5760405162461bcd60e51b815260206004820152601f60248201527f5661756c74546f6b656e3a20464143544f52595f414c52454144595f534554006044820152606401610791565b600980546001600160a01b03191633179055604080518082018252601181527022b632b7b9902b30bab63a102a37b5b2b760791b6020808301919091528251808401909352600683526576454c454f5360d01b9083015261093a91611a6d565b846001600160a01b031663ad5c46486040518163ffffffff1660e01b815260040160206040518083038186803b15801561097357600080fd5b505afa158015610987573d6000803e3d6000fd5b505050506040513d601f19601f820116820180604052508101906109ab9190612a82565b600e80546001600160a01b03199081166001600160a01b0393841617909155600b8054610100600160a81b03191661010089851602179055600c8054909116918616918217905560118390556012829055604051631526fe2760e01b81526004810183905260009190631526fe279060240160806040518083038186803b158015610a3557600080fd5b505afa158015610a49573d6000803e3d6000fd5b505050506040513d601f19601f82011682018060405250810190610a6d9190612a9f565b5050600880546001600160a01b0319166001600160a01b03841690811790915560408051630dfe168160e01b815290519394509092630dfe168192506004808301926020929190829003018186803b158015610ac857600080fd5b505afa158015610adc573d6000803e3d6000fd5b505050506040513d601f19601f82011682018060405250810190610b009190612a82565b600f80546001600160a01b0319166001600160a01b039283161790556008546040805163d21220a760e01b81529051919092169163d21220a7916004808301926020929190829003018186803b158015610b5957600080fd5b505afa158015610b6d573d6000803e3d6000fd5b505050506040513d601f19601f82011682018060405250810190610b919190612a82565b601080546001600160a01b039283166001600160a01b031991821617909155600d8054878416921682179055600b54610bd39261010090910416600019611b33565b600b54600e54610bf8916001600160a01b039182169161010090910416600019611b33565b600c54600854610c17916001600160a01b039182169116600019611b33565b505050505050565b600354600a5460009190811580610c34575080155b15610c4957670de0b6b3a76400009250505090565b610c5f826106f483670de0b6b3a76400006117dc565b9250505090565b6009546001600160a01b031615610cbf5760405162461bcd60e51b815260206004820152601a60248201527f456c656f733a20464143544f52595f414c52454144595f5345540000000000006044820152606401610791565b600980546001600160a01b03191633179055565b60085460408051635909c0d560e01b815290516000926001600160a01b031691635909c0d5916004808301926020929190829003018186803b158015610d1857600080fd5b505afa158015610d2c573d6000803e3d6000fd5b505050506040513d601f19601f82011682018060405250810190610d509190612a69565b905090565b60085460408051635a3d549360e01b815290516000926001600160a01b031691635a3d5493916004808301926020929190829003018186803b158015610d1857600080fd5b600b5460009060ff16610dbf5760405162461bcd60e51b815260040161079190612ade565b600b805460ff19169055600854600090610de1906001600160a01b0316611c3d565b600c546012546040516393f1a40b60e01b815260048101919091523060248201529192506000916001600160a01b03909116906393f1a40b90604401604080518083038186803b158015610e3457600080fd5b505afa158015610e48573d6000803e3d6000fd5b505050506040513d601f19601f82011682018060405250810190610e6c9190612b08565b50600c54601254604051631c57762b60e31b81526004810191909152602481018590529192506001600160a01b03169063e2bbb15890604401600060405180830381600087803b158015610ebf57600080fd5b505af1158015610ed3573d6000803e3d6000fd5b5050600c546012546040516393f1a40b60e01b81526004810191909152306024820152600093506001600160a01b0390911691506393f1a40b90604401604080518083038186803b158015610f2757600080fd5b505afa158015610f3b573d6000803e3d6000fd5b505050506040513d601f19601f82011682018060405250810190610f5f9190612b08565b509050610f89610f6d610c1f565b6106f4670de0b6b3a7640000610f838587611cb7565b906117dc565b935060035460001415610fb157610fa2846103e8611cb7565b9350610fb160006103e8611cf9565b600084116110015760405162461bcd60e51b815260206004820152601c60248201527f5661756c74546f6b656e3a204d494e545f414d4f554e545f5a45524f000000006044820152606401610791565b61100b8585611cf9565b60408051848152602081018690526001600160a01b0387169133917f2f00e3cdd69a77be7ed215ec7b2a36784dd158f921fca79ac29deffa353fe6ee910160405180910390a350505061105c611d89565b600b805460ff19166001179055919050565b600b5460009060ff166110935760405162461bcd60e51b815260040161079190612ade565b600b805460ff19169055306000908152600460205260409020546110cb670de0b6b3a76400006106f46110c4610c1f565b84906117dc565b91506000821161111d5760405162461bcd60e51b815260206004820152601e60248201527f5661756c74546f6b656e3a2052454445454d5f414d4f554e545f5a45524f00006044820152606401610791565b600a5482111561116f5760405162461bcd60e51b815260206004820152601d60248201527f5661756c74546f6b656e3a20494e53554646494349454e545f434153480000006044820152606401610791565b6111793082611e4e565b600c54601254604051630441a3e760e41b81526001600160a01b039092169163441a3e70916111b5918690600401918252602082015260400190565b600060405180830381600087803b1580156111cf57600080fd5b505af11580156111e3573d6000803e3d6000fd5b505050506111f18383611ed8565b60408051838152602081018390526001600160a01b0385169133917f3f693fff038bb8a046aa76d9516190ac7444f7d69cf952c4cbdc086fdef2d6fc910160405180910390a35061105c611d89565b60018054610538906129cd565b60006107ae33848461198f565b600b5460ff1661127c5760405162461bcd60e51b815260040161079190612ade565b600b805460ff19169055600a546008546040516370a0823160e01b8152306004820152611319928492611314926001600160a01b03909116906370a082319060240160206040518083038186803b1580156112d657600080fd5b505afa1580156112ea573d6000803e3d6000fd5b505050506040513d601f19601f8201168201806040525081019061130e9190612a69565b90611cb7565b611ed8565b50600b805460ff19166001179055565b611359878787878787877f6e71edae12b1b97f4d1f60370fef10105fa2faae0126114a169c64845d6126c961201d565b6113648787876118f3565b50505050505050565b600b5460ff1661138f5760405162461bcd60e51b815260040161079190612ade565b600b805460ff191690553332146113a557600080fd5b600c54601254604051630441a3e760e41b81526004810191909152600060248201526001600160a01b039091169063441a3e7090604401600060405180830381600087803b1580156113f657600080fd5b505af115801561140a573d6000803e3d6000fd5b5050600d546000925061142691506001600160a01b0316611c3d565b9050806114335750611791565b6000670de0b6b3a764000061144f83662386f26fc100006117dc565b6114599190612b42565b600d54909150611473906001600160a01b03163383612206565b600d54600f5460009182916001600160a01b03908116911614806114a75750600d546010546001600160a01b039081169116145b156114fa57600d54600f546001600160a01b039081169116146114dc57601054600f546001600160a01b0391821691166114f0565b600f546010546001600160a01b0391821691165b90925090506115ba565b600d54600e54611520916001600160a01b03908116911661151b8787611cb7565b61230a565b600e54600f546001600160a01b039081169116148061154f5750600e546010546001600160a01b039081169116145b1561158457600e54600f546001600160a01b039081169116146114dc57601054600f546001600160a01b0391821691166114f0565b600e54600f546115a4916001600160a01b03908116911661151b82611c3d565b5050600f546010546001600160a01b0391821691165b60006115ce836001600160a01b0316611c3d565b9050600081116115e0576115e0612b64565b600080600860009054906101000a90046001600160a01b03166001600160a01b0316630902f1ac6040518163ffffffff1660e01b815260040160606040518083038186803b15801561163157600080fd5b505afa158015611645573d6000803e3d6000fd5b505050506040513d601f19601f820116820180604052508101906116699190612a19565b50600f546001600160701b039283169450911691506000906001600160a01b03878116911614611699578161169b565b825b905060006116ac8583601154612430565b90506116b987878361230a565b60006116e188886116ca8986611cb7565b6116dc8b6001600160a01b0316611c3d565b6124a7565b600c54601254604051631c57762b60e31b81526004810191909152602481018390529192506001600160a01b03169063e2bbb15890604401600060405180830381600087803b15801561173357600080fd5b505af1158015611747573d6000803e3d6000fd5b5050604080518d8152602081018d90523393507fc003f45bc224d116b6d079100d4ab57a5b9633244c47a5a92a176c5b79a85f2892500160405180910390a2505050505050505050505b611799611d89565b600b805460ff19166001179055565b600b5460ff166117ca5760405162461bcd60e51b815260040161079190612ade565b600b805460ff19169055611799611d89565b6000826117eb575060006107b2565b60006117f78385612b7a565b9050826118048583612b42565b1461185b5760405162461bcd60e51b815260206004820152602160248201527f536166654d6174683a206d756c7469706c69636174696f6e206f766572666c6f6044820152607760f81b6064820152608401610791565b9392505050565b600061185b83836040518060400160405280601a81526020017f536166654d6174683a206469766973696f6e206279207a65726f00000000000081525061257d565b6000600160701b82106118ef5760405162461bcd60e51b81526020600482015260136024820152722b30bab63a2a37b5b2b71d1029a0a32298989960691b6044820152606401610791565b5090565b6001600160a01b0383811660008181526005602090815260408083209487168084529482529182902085905590518481527f8c5be1e5ebec7d5bd14f71427d1e84f3dd0314c0f7b2291e5b200ac8c7c3b92591015b60405180910390a3505050565b600081848411156119795760405162461bcd60e51b815260040161079191906127ed565b5060006119868486612b99565b95945050505050565b604080518082018252601881527f456c656f733a205452414e534645525f544f4f5f4849474800000000000000006020808301919091526001600160a01b0386166000908152600490915291909120546119ea918390611955565b6001600160a01b038085166000908152600460205260408082209390935590841681522054611a1990826125ab565b6001600160a01b0380841660008181526004602052604090819020939093559151908516907fddf252ad1be2c89b69c2b068fc378daa952ba7f163c4a11628f55a4df523b3ef906119489085815260200190565b8151611a80906000906020850190612731565b508051611a94906001906020840190612731565b5050805160209182012060408051808201825260018152603160f81b9084015280517f8b73c3c69bb8fe3d512ecc4cf759cc79239f7b179b0ffacaa9a75d522b39400f81850152808201929092527fc89efdaa54c0f20c7adf612882df0950f5a951637e0307cdcb4c672f298b8bc660608301524660808301523060a0808401919091528151808403909101815260c090920190528051910120600655565b604080516001600160a01b038481166024830152604480830185905283518084039091018152606490920183526020820180516001600160e01b031663095ea7b360e01b1790529151600092839290871691611b8f9190612bb0565b6000604051808303816000865af19150503d8060008114611bcc576040519150601f19603f3d011682016040523d82523d6000602084013e611bd1565b606091505b5091509150818015611bfb575080511580611bfb575080806020019051810190611bfb9190612bcc565b611c365760405162461bcd60e51b815260206004820152600c60248201526b2173616665417070726f766560a01b6044820152606401610791565b5050505050565b6040516370a0823160e01b81523060048201526000906001600160a01b038316906370a082319060240160206040518083038186803b158015611c7f57600080fd5b505afa158015611c93573d6000803e3d6000fd5b505050506040513d601f19601f820116820180604052508101906107b29190612a69565b600061185b83836040518060400160405280601f81526020017f536166654d6174683a207375627472616374696f6e20756e646572666c6f7700815250611955565b600354611d0690826125ab565b6003556001600160a01b038216600090815260046020526040902054611d2c90826125ab565b6001600160a01b0383166000818152600460205260408082209390935591519091907fddf252ad1be2c89b69c2b068fc378daa952ba7f163c4a11628f55a4df523b3ef90611d7d9085815260200190565b60405180910390a35050565b600c546012546040516393f1a40b60e01b815260048101919091523060248201526000916001600160a01b0316906393f1a40b90604401604080518083038186803b158015611dd757600080fd5b505afa158015611deb573d6000803e3d6000fd5b505050506040513d601f19601f82011682018060405250810190611e0f9190612b08565b50600a8190556040518181529091507f8a0df8ef054fae2c3d2d19a7b322e864870cc9fd3cb07fb9526309c596244bf49060200160405180910390a150565b6001600160a01b038216600090815260046020526040902054611e719082611cb7565b6001600160a01b038316600090815260046020526040902055600354611e979082611cb7565b6003556040518181526000906001600160a01b038416907fddf252ad1be2c89b69c2b068fc378daa952ba7f163c4a11628f55a4df523b3ef90602001611d7d565b600854604080518082018252601981527f7472616e7366657228616464726573732c75696e74323536290000000000000060209182015281516001600160a01b0386811660248301526044808301879052845180840390910181526064909201845291810180516001600160e01b031663a9059cbb60e01b17905291516000938493921691611f6691612bb0565b6000604051808303816000865af19150503d8060008114611fa3576040519150601f19603f3d011682016040523d82523d6000602084013e611fa8565b606091505b5091509150818015611fd2575080511580611fd2575080806020019051810190611fd29190612bcc565b6120175760405162461bcd60e51b8152602060048201526016602482015275115b195bdcce881514905394d1915497d1905253115160521b6044820152606401610791565b50505050565b4285101561205e5760405162461bcd60e51b815260206004820152600e60248201526d115b195bdcce881156141254915160921b6044820152606401610791565b6001600160a01b0388166000908152600760205260408120805483918b918b918b91908661208b83612bee565b909155506040805160208101969096526001600160a01b0394851690860152929091166060840152608083015260a082015260c0810187905260e00160405160208183030381529060405280519060200120905060006006548260405160200161210c92919061190160f01b81526002810192909252602282015260420190565b60408051601f198184030181528282528051602091820120600080855291840180845281905260ff8a169284019290925260608301889052608083018790529092509060019060a0016020604051602081039080840390855afa158015612177573d6000803e3d6000fd5b5050604051601f1901519150506001600160a01b038116158015906121ad57508a6001600160a01b0316816001600160a01b0316145b6121f95760405162461bcd60e51b815260206004820152601860248201527f456c656f733a20494e56414c49445f5349474e415455524500000000000000006044820152606401610791565b5050505050505050505050565b604080516001600160a01b038481166024830152604480830185905283518084039091018152606490920183526020820180516001600160e01b031663a9059cbb60e01b17905291516000928392908716916122629190612bb0565b6000604051808303816000865af19150503d806000811461229f576040519150601f19603f3d011682016040523d82523d6000602084013e6122a4565b606091505b50915091508180156122ce5750805115806122ce5750808060200190518101906122ce9190612bcc565b611c365760405162461bcd60e51b815260206004820152600d60248201526c10b9b0b332aa3930b739b332b960991b6044820152606401610791565b604080516002808252606082018352600092602083019080368337019050509050838160008151811061233f5761233f612c1f565b60200260200101906001600160a01b031690816001600160a01b031681525050828160018151811061237357612373612c1f565b60200260200101906001600160a01b031690816001600160a01b03168152505061239d848361260a565b600b546040516338ed173960e01b81526101009091046001600160a01b0316906338ed1739906123da908590600090869030904290600401612c35565b600060405180830381600087803b1580156123f457600080fd5b505af1158015612408573d6000803e3d6000fd5b505050506040513d6000823e601f3d908101601f19168201604052611c369190810190612ca6565b60008061244384610f836103e8866125ab565b9050600061245c84610f8360048189818c6103e86117dc565b9050600061247c6124778361247186806117dc565b906125ab565b6126c1565b9050600061248b6002876117dc565b905061249b816106f48487611cb7565b98975050505050505050565b60006124b3858461260a565b6124bd848361260a565b600b5460405162e8e33760e81b81526001600160a01b0387811660048301528681166024830152604482018690526064820185905260006084830181905260a48301523060c48301524260e48301526101009092049091169063e8e337009061010401606060405180830381600087803b15801561253a57600080fd5b505af115801561254e573d6000803e3d6000fd5b505050506040513d601f19601f820116820180604052508101906125729190612d58565b979650505050505050565b6000818361259e5760405162461bcd60e51b815260040161079191906127ed565b5060006119868486612b42565b6000806125b88385612d86565b90508381101561185b5760405162461bcd60e51b815260206004820152601b60248201527f536166654d6174683a206164646974696f6e206f766572666c6f7700000000006044820152606401610791565b600b54604051636eb1769f60e11b81523060048201526001600160a01b0361010090920482166024820152829184169063dd62ed3e9060440160206040518083038186803b15801561265b57600080fd5b505afa15801561266f573d6000803e3d6000fd5b505050506040513d601f19601f820116820180604052508101906126939190612a69565b1061269c575050565b600b546126bd906001600160a01b0384811691610100900416600019611b33565b5050565b6000600382111561272257508060006126db600283612b42565b6126e6906001612d86565b90505b8181101561271c579050806002816127018186612b42565b61270b9190612d86565b6127159190612b42565b90506126e9565b50919050565b811561272c575060015b919050565b82805461273d906129cd565b90600052602060002090601f01602090048101928261275f57600085556127a5565b82601f1061277857805160ff19168380011785556127a5565b828001600101855582156127a5579182015b828111156127a557825182559160200191906001019061278a565b506118ef9291505b808211156118ef57600081556001016127ad565b60005b838110156127dc5781810151838201526020016127c4565b838111156120175750506000910152565b602081526000825180602084015261280c8160408501602087016127c1565b601f01601f19169190910160400192915050565b6001600160a01b038116811461283557600080fd5b50565b6000806040838503121561284b57600080fd5b823561285681612820565b946020939093013593505050565b60008060006060848603121561287957600080fd5b833561288481612820565b9250602084013561289481612820565b929592945050506040919091013590565b600080600080600060a086880312156128bd57600080fd5b85356128c881612820565b945060208601356128d881612820565b935060408601356128e881612820565b94979396509394606081013594506080013592915050565b60006020828403121561291257600080fd5b813561185b81612820565b600080600080600080600060e0888a03121561293857600080fd5b873561294381612820565b9650602088013561295381612820565b95506040880135945060608801359350608088013560ff8116811461297757600080fd5b9699959850939692959460a0840135945060c09093013592915050565b600080604083850312156129a757600080fd5b82356129b281612820565b915060208301356129c281612820565b809150509250929050565b600181811c908216806129e157607f821691505b6020821081141561271c57634e487b7160e01b600052602260045260246000fd5b80516001600160701b038116811461272c57600080fd5b600080600060608486031215612a2e57600080fd5b612a3784612a02565b9250612a4560208501612a02565b9150604084015163ffffffff81168114612a5e57600080fd5b809150509250925092565b600060208284031215612a7b57600080fd5b5051919050565b600060208284031215612a9457600080fd5b815161185b81612820565b60008060008060808587031215612ab557600080fd5b8451612ac081612820565b60208601516040870151606090970151919890975090945092505050565b60208082526010908201526f115b195bdcce8814915153951154915160821b604082015260600190565b60008060408385031215612b1b57600080fd5b505080516020909101519092909150565b634e487b7160e01b600052601160045260246000fd5b600082612b5f57634e487b7160e01b600052601260045260246000fd5b500490565b634e487b7160e01b600052600160045260246000fd5b6000816000190483118215151615612b9457612b94612b2c565b500290565b600082821015612bab57612bab612b2c565b500390565b60008251612bc28184602087016127c1565b9190910192915050565b600060208284031215612bde57600080fd5b8151801515811461185b57600080fd5b6000600019821415612c0257612c02612b2c565b5060010190565b634e487b7160e01b600052604160045260246000fd5b634e487b7160e01b600052603260045260246000fd5b600060a082018783526020878185015260a0604085015281875180845260c086019150828901935060005b81811015612c855784516001600160a01b031683529383019391830191600101612c60565b50506001600160a01b03969096166060850152505050608001529392505050565b60006020808385031215612cb957600080fd5b825167ffffffffffffffff80821115612cd157600080fd5b818501915085601f830112612ce557600080fd5b815181811115612cf757612cf7612c09565b8060051b604051601f19603f83011681018181108582111715612d1c57612d1c612c09565b604052918252848201925083810185019188831115612d3a57600080fd5b938501935b8285101561249b57845184529385019392850192612d3f565b600080600060608486031215612d6d57600080fd5b8351925060208401519150604084015190509250925092565b60008219821115612d9957612d99612b2c565b50019056fea26469706673582212209efa79f2893e804959381f8a2bd3f8f4f105fd6930c59a848a2df51c1bac317b64736f6c63430008090033",
  "linkReferences": {},
  "deployedLinkReferences": {}
}