{
  "_format": "hh-sol-artifact-1",
  "contractName": "VaultToken",
  "sourceName": "contracts/VaultToken.sol",
  "abi": [
    {
      "anonymous": false,
      "inputs": [
        {
          "indexed": true,
          "internalType": "address",
          "name": "owner",
          "type": "address"
        },
        {
          "indexed": true,
          "internalType": "address",
          "name": "spender",
          "type": "address"
        },
        {
          "indexed": false,
          "internalType": "uint256",
          "name": "value",
          "type": "uint256"
        }
      ],
      "name": "Approval",
      "type": "event"
    },
    {
      "anonymous": false,
      "inputs": [
        {
          "indexed": true,
          "internalType": "address",
          "name": "sender",
          "type": "address"
        },
        {
          "indexed": true,
          "internalType": "address",
          "name": "minter",
          "type": "address"
        },
        {
          "indexed": false,
          "internalType": "uint256",
          "name": "mintAmount",
          "type": "uint256"
        },
        {
          "indexed": false,
          "internalType": "uint256",
          "name": "mintTokens",
          "type": "uint256"
        }
      ],
      "name": "Mint",
      "type": "event"
    },
    {
      "anonymous": false,
      "inputs": [
        {
          "indexed": true,
          "internalType": "address",
          "name": "sender",
          "type": "address"
        },
        {
          "indexed": true,
          "internalType": "address",
          "name": "redeemer",
          "type": "address"
        },
        {
          "indexed": false,
          "internalType": "uint256",
          "name": "redeemAmount",
          "type": "uint256"
        },
        {
          "indexed": false,
          "internalType": "uint256",
          "name": "redeemTokens",
          "type": "uint256"
        }
      ],
      "name": "Redeem",
      "type": "event"
    },
    {
      "anonymous": false,
      "inputs": [
        {
          "indexed": true,
          "internalType": "address",
          "name": "caller",
          "type": "address"
        },
        {
          "indexed": false,
          "internalType": "uint256",
          "name": "reward",
          "type": "uint256"
        },
        {
          "indexed": false,
          "internalType": "uint256",
          "name": "bounty",
          "type": "uint256"
        }
      ],
      "name": "Reinvest",
      "type": "event"
    },
    {
      "anonymous": false,
      "inputs": [
        {
          "indexed": false,
          "internalType": "uint256",
          "name": "totalBalance",
          "type": "uint256"
        }
      ],
      "name": "Sync",
      "type": "event"
    },
    {
      "anonymous": false,
      "inputs": [
        {
          "indexed": true,
          "internalType": "address",
          "name": "from",
          "type": "address"
        },
        {
          "indexed": true,
          "internalType": "address",
          "name": "to",
          "type": "address"
        },
        {
          "indexed": false,
          "internalType": "uint256",
          "name": "value",
          "type": "uint256"
        }
      ],
      "name": "Transfer",
      "type": "event"
    },
    {
      "inputs": [],
      "name": "DOMAIN_SEPARATOR",
      "outputs": [
        {
          "internalType": "bytes32",
          "name": "",
          "type": "bytes32"
        }
      ],
      "stateMutability": "view",
      "type": "function"
    },
    {
      "inputs": [],
      "name": "MINIMUM_LIQUIDITY",
      "outputs": [
        {
          "internalType": "uint256",
          "name": "",
          "type": "uint256"
        }
      ],
      "stateMutability": "view",
      "type": "function"
    },
    {
      "inputs": [],
      "name": "PERMIT_TYPEHASH",
      "outputs": [
        {
          "internalType": "bytes32",
          "name": "",
          "type": "bytes32"
        }
      ],
      "stateMutability": "view",
      "type": "function"
    },
    {
      "inputs": [],
      "name": "REINVEST_BOUNTY",
      "outputs": [
        {
          "internalType": "uint256",
          "name": "",
          "type": "uint256"
        }
      ],
      "stateMutability": "view",
      "type": "function"
    },
    {
      "inputs": [],
      "name": "WETH",
      "outputs": [
        {
          "internalType": "address",
          "name": "",
          "type": "address"
        }
      ],
      "stateMutability": "view",
      "type": "function"
    },
    {
      "inputs": [
        {
          "internalType": "contract IUniswapV2Router01",
          "name": "_router",
          "type": "address"
        },
        {
          "internalType": "contract IMasterChef",
          "name": "_masterChef",
          "type": "address"
        },
        {
          "internalType": "address",
          "name": "_rewardsToken",
          "type": "address"
        },
        {
          "internalType": "uint256",
          "name": "_swapFeeFactor",
          "type": "uint256"
        },
        {
          "internalType": "uint256",
          "name": "_pid",
          "type": "uint256"
        }
      ],
      "name": "_initialize",
      "outputs": [],
      "stateMutability": "nonpayable",
      "type": "function"
    },
    {
      "inputs": [],
      "name": "_setFactory",
      "outputs": [],
      "stateMutability": "nonpayable",
      "type": "function"
    },
    {
      "inputs": [
        {
          "internalType": "address",
          "name": "",
          "type": "address"
        },
        {
          "internalType": "address",
          "name": "",
          "type": "address"
        }
      ],
      "name": "allowance",
      "outputs": [
        {
          "internalType": "uint256",
          "name": "",
          "type": "uint256"
        }
      ],
      "stateMutability": "view",
      "type": "function"
    },
    {
      "inputs": [
        {
          "internalType": "address",
          "name": "spender",
          "type": "address"
        },
        {
          "internalType": "uint256",
          "name": "value",
          "type": "uint256"
        }
      ],
      "name": "approve",
      "outputs": [
        {
          "internalType": "bool",
          "name": "",
          "type": "bool"
        }
      ],
      "stateMutability": "nonpayable",
      "type": "function"
    },
    {
      "inputs": [
        {
          "internalType": "address",
          "name": "",
          "type": "address"
        }
      ],
      "name": "balanceOf",
      "outputs": [
        {
          "internalType": "uint256",
          "name": "",
          "type": "uint256"
        }
      ],
      "stateMutability": "view",
      "type": "function"
    },
    {
      "inputs": [],
      "name": "decimals",
      "outputs": [
        {
          "internalType": "uint8",
          "name": "",
          "type": "uint8"
        }
      ],
      "stateMutability": "view",
      "type": "function"
    },
    {
      "inputs": [],
      "name": "exchangeRate",
      "outputs": [
        {
          "internalType": "uint256",
          "name": "",
          "type": "uint256"
        }
      ],
      "stateMutability": "nonpayable",
      "type": "function"
    },
    {
      "inputs": [],
      "name": "factory",
      "outputs": [
        {
          "internalType": "address",
          "name": "",
          "type": "address"
        }
      ],
      "stateMutability": "view",
      "type": "function"
    },
    {
      "inputs": [],
      "name": "getReserves",
      "outputs": [
        {
          "internalType": "uint112",
          "name": "reserve0",
          "type": "uint112"
        },
        {
          "internalType": "uint112",
          "name": "reserve1",
          "type": "uint112"
        },
        {
          "internalType": "uint32",
          "name": "blockTimestampLast",
          "type": "uint32"
        }
      ],
      "stateMutability": "view",
      "type": "function"
    },
    {
      "inputs": [],
      "name": "isVaultToken",
      "outputs": [
        {
          "internalType": "bool",
          "name": "",
          "type": "bool"
        }
      ],
      "stateMutability": "view",
      "type": "function"
    },
    {
      "inputs": [],
      "name": "masterChef",
      "outputs": [
        {
          "internalType": "contract IMasterChef",
          "name": "",
          "type": "address"
        }
      ],
      "stateMutability": "view",
      "type": "function"
    },
    {
      "inputs": [
        {
          "internalType": "address",
          "name": "minter",
          "type": "address"
        }
      ],
      "name": "mint",
      "outputs": [
        {
          "internalType": "uint256",
          "name": "mintTokens",
          "type": "uint256"
        }
      ],
      "stateMutability": "nonpayable",
      "type": "function"
    },
    {
      "inputs": [],
      "name": "name",
      "outputs": [
        {
          "internalType": "string",
          "name": "",
          "type": "string"
        }
      ],
      "stateMutability": "view",
      "type": "function"
    },
    {
      "inputs": [
        {
          "internalType": "address",
          "name": "",
          "type": "address"
        }
      ],
      "name": "nonces",
      "outputs": [
        {
          "internalType": "uint256",
          "name": "",
          "type": "uint256"
        }
      ],
      "stateMutability": "view",
      "type": "function"
    },
    {
      "inputs": [
        {
          "internalType": "address",
          "name": "owner",
          "type": "address"
        },
        {
          "internalType": "address",
          "name": "spender",
          "type": "address"
        },
        {
          "internalType": "uint256",
          "name": "value",
          "type": "uint256"
        },
        {
          "internalType": "uint256",
          "name": "deadline",
          "type": "uint256"
        },
        {
          "internalType": "uint8",
          "name": "v",
          "type": "uint8"
        },
        {
          "internalType": "bytes32",
          "name": "r",
          "type": "bytes32"
        },
        {
          "internalType": "bytes32",
          "name": "s",
          "type": "bytes32"
        }
      ],
      "name": "permit",
      "outputs": [],
      "stateMutability": "nonpayable",
      "type": "function"
    },
    {
      "inputs": [],
      "name": "pid",
      "outputs": [
        {
          "internalType": "uint256",
          "name": "",
          "type": "uint256"
        }
      ],
      "stateMutability": "view",
      "type": "function"
    },
    {
      "inputs": [],
      "name": "price0CumulativeLast",
      "outputs": [
        {
          "internalType": "uint256",
          "name": "",
          "type": "uint256"
        }
      ],
      "stateMutability": "view",
      "type": "function"
    },
    {
      "inputs": [],
      "name": "price1CumulativeLast",
      "outputs": [
        {
          "internalType": "uint256",
          "name": "",
          "type": "uint256"
        }
      ],
      "stateMutability": "view",
      "type": "function"
    },
    {
      "inputs": [
        {
          "internalType": "address",
          "name": "redeemer",
          "type": "address"
        }
      ],
      "name": "redeem",
      "outputs": [
        {
          "internalType": "uint256",
          "name": "redeemAmount",
          "type": "uint256"
        }
      ],
      "stateMutability": "nonpayable",
      "type": "function"
    },
    {
      "inputs": [],
      "name": "reinvest",
      "outputs": [],
      "stateMutability": "nonpayable",
      "type": "function"
    },
    {
      "inputs": [],
      "name": "rewardsToken",
      "outputs": [
        {
          "internalType": "address",
          "name": "",
          "type": "address"
        }
      ],
      "stateMutability": "view",
      "type": "function"
    },
    {
      "inputs": [],
      "name": "router",
      "outputs": [
        {
          "internalType": "contract IUniswapV2Router01",
          "name": "",
          "type": "address"
        }
      ],
      "stateMutability": "view",
      "type": "function"
    },
    {
      "inputs": [
        {
          "internalType": "address",
          "name": "to",
          "type": "address"
        }
      ],
      "name": "skim",
      "outputs": [],
      "stateMutability": "nonpayable",
      "type": "function"
    },
    {
      "inputs": [],
      "name": "swapFeeFactor",
      "outputs": [
        {
          "internalType": "uint256",
          "name": "",
          "type": "uint256"
        }
      ],
      "stateMutability": "view",
      "type": "function"
    },
    {
      "inputs": [],
      "name": "symbol",
      "outputs": [
        {
          "internalType": "string",
          "name": "",
          "type": "string"
        }
      ],
      "stateMutability": "view",
      "type": "function"
    },
    {
      "inputs": [],
      "name": "sync",
      "outputs": [],
      "stateMutability": "nonpayable",
      "type": "function"
    },
    {
      "inputs": [],
      "name": "token0",
      "outputs": [
        {
          "internalType": "address",
          "name": "",
          "type": "address"
        }
      ],
      "stateMutability": "view",
      "type": "function"
    },
    {
      "inputs": [],
      "name": "token1",
      "outputs": [
        {
          "internalType": "address",
          "name": "",
          "type": "address"
        }
      ],
      "stateMutability": "view",
      "type": "function"
    },
    {
      "inputs": [],
      "name": "totalBalance",
      "outputs": [
        {
          "internalType": "uint256",
          "name": "",
          "type": "uint256"
        }
      ],
      "stateMutability": "view",
      "type": "function"
    },
    {
      "inputs": [],
      "name": "totalSupply",
      "outputs": [
        {
          "internalType": "uint256",
          "name": "",
          "type": "uint256"
        }
      ],
      "stateMutability": "view",
      "type": "function"
    },
    {
      "inputs": [
        {
          "internalType": "address",
          "name": "to",
          "type": "address"
        },
        {
          "internalType": "uint256",
          "name": "value",
          "type": "uint256"
        }
      ],
      "name": "transfer",
      "outputs": [
        {
          "internalType": "bool",
          "name": "",
          "type": "bool"
        }
      ],
      "stateMutability": "nonpayable",
      "type": "function"
    },
    {
      "inputs": [
        {
          "internalType": "address",
          "name": "from",
          "type": "address"
        },
        {
          "internalType": "address",
          "name": "to",
          "type": "address"
        },
        {
          "internalType": "uint256",
          "name": "value",
          "type": "uint256"
        }
      ],
      "name": "transferFrom",
      "outputs": [
        {
          "internalType": "bool",
          "name": "",
          "type": "bool"
        }
      ],
      "stateMutability": "nonpayable",
      "type": "function"
    },
    {
      "inputs": [],
      "name": "underlying",
      "outputs": [
        {
          "internalType": "address",
          "name": "",
          "type": "address"
        }
      ],
      "stateMutability": "view",
      "type": "function"
    }
  ],
  "bytecode": "0x60806040526002805460ff19908116601217909155600b8054909116600117905534801561002c57600080fd5b50612de18061003c6000396000f3fe608060405234801561001057600080fd5b50600436106102325760003560e01c80636f307dc311610130578063bc25cf77116100b8578063dd62ed3e1161007c578063dd62ed3e146104cf578063f1068454146104fa578063f887ea4014610503578063fdb5a03e1461051b578063fff6cae91461052357600080fd5b8063bc25cf7714610470578063c45a015514610483578063d1af0c7d14610496578063d21220a7146104a9578063d505accf146104bc57600080fd5b806395d89b41116100ff57806395d89b4114610430578063a9059cbb14610438578063ad5c46481461044b578063ad7a672f1461045e578063ba9a7a561461046757600080fd5b80636f307dc3146103ca57806370a08231146103dd5780637ecebe00146103fd57806395a2251f1461041d57600080fd5b80633644e515116101be5780635a3d5493116101825780635a3d54931461039057806368f91a44146103985780636a627842146103a15780636c2a3bc5146103b45780636ee27227146103c257600080fd5b80633644e5151461035c5780633ba0b9a9146103655780634a5d316c1461036d578063575a86b2146103755780635909c0d51461038857600080fd5b806318160ddd1161020557806318160ddd146102d757806323b872dd146102ee5780632b34db341461030157806330adf81f14610316578063313ce5671461033d57600080fd5b806306fdde03146102375780630902f1ac14610255578063095ea7b3146102895780630dfe1681146102ac575b600080fd5b61023f61052b565b60405161024c91906127f8565b60405180910390f35b61025d6105b9565b604080516001600160701b03948516815293909216602084015263ffffffff169082015260600161024c565b61029c610297366004612843565b6107a1565b604051901515815260200161024c565b600f546102bf906001600160a01b031681565b6040516001600160a01b03909116815260200161024c565b6102e060035481565b60405190815260200161024c565b61029c6102fc36600461286f565b6107b8565b61031461030f3660046128b0565b610881565b005b6102e07f6e71edae12b1b97f4d1f60370fef10105fa2faae0126114a169c64845d6126c981565b60025461034a9060ff1681565b60405160ff909116815260200161024c565b6102e060065481565b6102e0610c21565b610314610c68565b600c546102bf906001600160a01b031681565b6102e0610cd5565b6102e0610d57565b6102e060115481565b6102e06103af36600461290b565b610d9c565b6102e0662386f26fc1000081565b61029c600181565b6008546102bf906001600160a01b031681565b6102e06103eb36600461290b565b60046020526000908152604090205481565b6102e061040b36600461290b565b60076020526000908152604090205481565b6102e061042b36600461290b565b611070565b61023f611242565b61029c610446366004612843565b61124f565b600e546102bf906001600160a01b031681565b6102e0600a5481565b6102e06103e881565b61031461047e36600461290b565b61125c565b6009546102bf906001600160a01b031681565b600d546102bf906001600160a01b031681565b6010546102bf906001600160a01b031681565b6103146104ca366004612928565b61132b565b6102e06104dd36600461299f565b600560209081526000928352604080842090915290825290205481565b6102e060125481565b600b546102bf9061010090046001600160a01b031681565b61031461136f565b6103146117aa565b60008054610538906129d8565b80601f0160208091040260200160405190810160405280929190818152602001828054610564906129d8565b80156105b15780601f10610586576101008083540402835291602001916105b1565b820191906000526020600020905b81548152906001019060200180831161059457829003601f168201915b505050505081565b6000806000600860009054906101000a90046001600160a01b03166001600160a01b0316630902f1ac6040518163ffffffff1660e01b815260040160606040518083038186803b15801561060c57600080fd5b505afa158015610620573d6000803e3d6000fd5b505050506040513d601f19601f820116820180604052508101906106449190612a24565b600354929550909350915061065857909192565b600a54600854604080516318160ddd60e01b815290516000926001600160a01b0316916318160ddd916004808301926020929190829003018186803b1580156106a057600080fd5b505afa1580156106b4573d6000803e3d6000fd5b505050506040513d601f19601f820116820180604052508101906106d89190612a74565b90506106ff6106fa826106f4856001600160701b038a166117de565b90611864565b6118a6565b945061071b6106fa826106f4856001600160701b0389166117de565b93506064856001600160701b031611801561073f57506064846001600160701b0316115b61079a5760405162461bcd60e51b815260206004820152602160248201527f5661756c74546f6b656e3a20494e53554646494349454e545f524553455256456044820152605360f81b60648201526084015b60405180910390fd5b5050909192565b60006107ae3384846118f5565b5060015b92915050565b6001600160a01b03831660009081526005602090815260408083203384529091528120546000191461086c57604080518082018252601d81527f416d706c6966793a205452414e534645525f4e4f545f414c4c4f5745440000006020808301919091526001600160a01b0387166000908152600582528381203382529091529190912054610847918490611957565b6001600160a01b03851660009081526005602090815260408083203384529091529020555b610877848484611991565b5060019392505050565b6009546001600160a01b0316156108da5760405162461bcd60e51b815260206004820152601f60248201527f5661756c74546f6b656e3a20464143544f52595f414c52454144595f534554006044820152606401610791565b600980546001600160a01b03191633179055604080518082018252601381527220b6b83634b33c902b30bab63a102a37b5b2b760691b6020808301919091528251808401909352600683526576454c454f5360d01b9083015261093c91611a6f565b846001600160a01b031663ad5c46486040518163ffffffff1660e01b815260040160206040518083038186803b15801561097557600080fd5b505afa158015610989573d6000803e3d6000fd5b505050506040513d601f19601f820116820180604052508101906109ad9190612a8d565b600e80546001600160a01b03199081166001600160a01b0393841617909155600b8054610100600160a81b03191661010089851602179055600c8054909116918616918217905560118390556012829055604051631526fe2760e01b81526004810183905260009190631526fe279060240160806040518083038186803b158015610a3757600080fd5b505afa158015610a4b573d6000803e3d6000fd5b505050506040513d601f19601f82011682018060405250810190610a6f9190612aaa565b5050600880546001600160a01b0319166001600160a01b03841690811790915560408051630dfe168160e01b815290519394509092630dfe168192506004808301926020929190829003018186803b158015610aca57600080fd5b505afa158015610ade573d6000803e3d6000fd5b505050506040513d601f19601f82011682018060405250810190610b029190612a8d565b600f80546001600160a01b0319166001600160a01b039283161790556008546040805163d21220a760e01b81529051919092169163d21220a7916004808301926020929190829003018186803b158015610b5b57600080fd5b505afa158015610b6f573d6000803e3d6000fd5b505050506040513d601f19601f82011682018060405250810190610b939190612a8d565b601080546001600160a01b039283166001600160a01b031991821617909155600d8054878416921682179055600b54610bd59261010090910416600019611b35565b600b54600e54610bfa916001600160a01b039182169161010090910416600019611b35565b600c54600854610c19916001600160a01b039182169116600019611b35565b505050505050565b600354600a5460009190811580610c36575080155b15610c4b57670de0b6b3a76400009250505090565b610c61826106f483670de0b6b3a76400006117de565b9250505090565b6009546001600160a01b031615610cc15760405162461bcd60e51b815260206004820152601c60248201527f416d706c6966793a20464143544f52595f414c52454144595f534554000000006044820152606401610791565b600980546001600160a01b03191633179055565b60085460408051635909c0d560e01b815290516000926001600160a01b031691635909c0d5916004808301926020929190829003018186803b158015610d1a57600080fd5b505afa158015610d2e573d6000803e3d6000fd5b505050506040513d601f19601f82011682018060405250810190610d529190612a74565b905090565b60085460408051635a3d549360e01b815290516000926001600160a01b031691635a3d5493916004808301926020929190829003018186803b158015610d1a57600080fd5b600b5460009060ff16610dc15760405162461bcd60e51b815260040161079190612ae9565b600b805460ff19169055600854600090610de3906001600160a01b0316611c3f565b600c546012546040516393f1a40b60e01b815260048101919091523060248201529192506000916001600160a01b03909116906393f1a40b90604401604080518083038186803b158015610e3657600080fd5b505afa158015610e4a573d6000803e3d6000fd5b505050506040513d601f19601f82011682018060405250810190610e6e9190612b15565b50600c54601254604051631c57762b60e31b81526004810191909152602481018590529192506001600160a01b03169063e2bbb15890604401600060405180830381600087803b158015610ec157600080fd5b505af1158015610ed5573d6000803e3d6000fd5b5050600c546012546040516393f1a40b60e01b81526004810191909152306024820152600093506001600160a01b0390911691506393f1a40b90604401604080518083038186803b158015610f2957600080fd5b505afa158015610f3d573d6000803e3d6000fd5b505050506040513d601f19601f82011682018060405250810190610f619190612b15565b509050610f8b610f6f610c21565b6106f4670de0b6b3a7640000610f858587611cb9565b906117de565b935060035460001415610fb357610fa4846103e8611cb9565b9350610fb360006103e8611cfb565b600084116110035760405162461bcd60e51b815260206004820152601c60248201527f5661756c74546f6b656e3a204d494e545f414d4f554e545f5a45524f000000006044820152606401610791565b61100d8585611cfb565b60408051848152602081018690526001600160a01b0387169133917f2f00e3cdd69a77be7ed215ec7b2a36784dd158f921fca79ac29deffa353fe6ee910160405180910390a350505061105e611d8b565b600b805460ff19166001179055919050565b600b5460009060ff166110955760405162461bcd60e51b815260040161079190612ae9565b600b805460ff19169055306000908152600460205260409020546110cd670de0b6b3a76400006106f46110c6610c21565b84906117de565b91506000821161111f5760405162461bcd60e51b815260206004820152601e60248201527f5661756c74546f6b656e3a2052454445454d5f414d4f554e545f5a45524f00006044820152606401610791565b600a548211156111715760405162461bcd60e51b815260206004820152601d60248201527f5661756c74546f6b656e3a20494e53554646494349454e545f434153480000006044820152606401610791565b61117b3082611e50565b600c54601254604051630441a3e760e41b81526001600160a01b039092169163441a3e70916111b7918690600401918252602082015260400190565b600060405180830381600087803b1580156111d157600080fd5b505af11580156111e5573d6000803e3d6000fd5b505050506111f38383611eda565b60408051838152602081018390526001600160a01b0385169133917f3f693fff038bb8a046aa76d9516190ac7444f7d69cf952c4cbdc086fdef2d6fc910160405180910390a35061105e611d8b565b60018054610538906129d8565b60006107ae338484611991565b600b5460ff1661127e5760405162461bcd60e51b815260040161079190612ae9565b600b805460ff19169055600a546008546040516370a0823160e01b815230600482015261131b928492611316926001600160a01b03909116906370a082319060240160206040518083038186803b1580156112d857600080fd5b505afa1580156112ec573d6000803e3d6000fd5b505050506040513d601f19601f820116820180604052508101906113109190612a74565b90611cb9565b611eda565b50600b805460ff19166001179055565b61135b878787878787877f6e71edae12b1b97f4d1f60370fef10105fa2faae0126114a169c64845d6126c9612026565b6113668787876118f5565b50505050505050565b600b5460ff166113915760405162461bcd60e51b815260040161079190612ae9565b600b805460ff191690553332146113a757600080fd5b600c54601254604051630441a3e760e41b81526004810191909152600060248201526001600160a01b039091169063441a3e7090604401600060405180830381600087803b1580156113f857600080fd5b505af115801561140c573d6000803e3d6000fd5b5050600d546000925061142891506001600160a01b0316611c3f565b9050806114355750611793565b6000670de0b6b3a764000061145183662386f26fc100006117de565b61145b9190612b4f565b600d54909150611475906001600160a01b03163383612211565b600d54600f5460009182916001600160a01b03908116911614806114a95750600d546010546001600160a01b039081169116145b156114fc57600d54600f546001600160a01b039081169116146114de57601054600f546001600160a01b0391821691166114f2565b600f546010546001600160a01b0391821691165b90925090506115bc565b600d54600e54611522916001600160a01b03908116911661151d8787611cb9565b612315565b600e54600f546001600160a01b03908116911614806115515750600e546010546001600160a01b039081169116145b1561158657600e54600f546001600160a01b039081169116146114de57601054600f546001600160a01b0391821691166114f2565b600e54600f546115a6916001600160a01b03908116911661151d82611c3f565b5050600f546010546001600160a01b0391821691165b60006115d0836001600160a01b0316611c3f565b9050600081116115e2576115e2612b71565b600080600860009054906101000a90046001600160a01b03166001600160a01b0316630902f1ac6040518163ffffffff1660e01b815260040160606040518083038186803b15801561163357600080fd5b505afa158015611647573d6000803e3d6000fd5b505050506040513d601f19601f8201168201806040525081019061166b9190612a24565b50600f546001600160701b039283169450911691506000906001600160a01b0387811691161461169b578161169d565b825b905060006116ae858360115461243b565b90506116bb878783612315565b60006116e388886116cc8986611cb9565b6116de8b6001600160a01b0316611c3f565b6124b2565b600c54601254604051631c57762b60e31b81526004810191909152602481018390529192506001600160a01b03169063e2bbb15890604401600060405180830381600087803b15801561173557600080fd5b505af1158015611749573d6000803e3d6000fd5b5050604080518d8152602081018d90523393507fc003f45bc224d116b6d079100d4ab57a5b9633244c47a5a92a176c5b79a85f2892500160405180910390a2505050505050505050505b61179b611d8b565b600b805460ff19166001179055565b600b5460ff166117cc5760405162461bcd60e51b815260040161079190612ae9565b600b805460ff1916905561179b611d8b565b6000826117ed575060006107b2565b60006117f98385612b87565b9050826118068583612b4f565b1461185d5760405162461bcd60e51b815260206004820152602160248201527f536166654d6174683a206d756c7469706c69636174696f6e206f766572666c6f6044820152607760f81b6064820152608401610791565b9392505050565b600061185d83836040518060400160405280601a81526020017f536166654d6174683a206469766973696f6e206279207a65726f000000000000815250612588565b6000600160701b82106118f15760405162461bcd60e51b81526020600482015260136024820152722b30bab63a2a37b5b2b71d1029a0a32298989960691b6044820152606401610791565b5090565b6001600160a01b0383811660008181526005602090815260408083209487168084529482529182902085905590518481527f8c5be1e5ebec7d5bd14f71427d1e84f3dd0314c0f7b2291e5b200ac8c7c3b92591015b60405180910390a3505050565b6000818484111561197b5760405162461bcd60e51b815260040161079191906127f8565b5060006119888486612ba6565b95945050505050565b604080518082018252601a81527f416d706c6966793a205452414e534645525f544f4f5f484947480000000000006020808301919091526001600160a01b0386166000908152600490915291909120546119ec918390611957565b6001600160a01b038085166000908152600460205260408082209390935590841681522054611a1b90826125b6565b6001600160a01b0380841660008181526004602052604090819020939093559151908516907fddf252ad1be2c89b69c2b068fc378daa952ba7f163c4a11628f55a4df523b3ef9061194a9085815260200190565b8151611a8290600090602085019061273c565b508051611a9690600190602084019061273c565b5050805160209182012060408051808201825260018152603160f81b9084015280517f8b73c3c69bb8fe3d512ecc4cf759cc79239f7b179b0ffacaa9a75d522b39400f81850152808201929092527fc89efdaa54c0f20c7adf612882df0950f5a951637e0307cdcb4c672f298b8bc660608301524660808301523060a0808401919091528151808403909101815260c090920190528051910120600655565b604080516001600160a01b038481166024830152604480830185905283518084039091018152606490920183526020820180516001600160e01b031663095ea7b360e01b1790529151600092839290871691611b919190612bbd565b6000604051808303816000865af19150503d8060008114611bce576040519150601f19603f3d011682016040523d82523d6000602084013e611bd3565b606091505b5091509150818015611bfd575080511580611bfd575080806020019051810190611bfd9190612bd9565b611c385760405162461bcd60e51b815260206004820152600c60248201526b2173616665417070726f766560a01b6044820152606401610791565b5050505050565b6040516370a0823160e01b81523060048201526000906001600160a01b038316906370a082319060240160206040518083038186803b158015611c8157600080fd5b505afa158015611c95573d6000803e3d6000fd5b505050506040513d601f19601f820116820180604052508101906107b29190612a74565b600061185d83836040518060400160405280601f81526020017f536166654d6174683a207375627472616374696f6e20756e646572666c6f7700815250611957565b600354611d0890826125b6565b6003556001600160a01b038216600090815260046020526040902054611d2e90826125b6565b6001600160a01b0383166000818152600460205260408082209390935591519091907fddf252ad1be2c89b69c2b068fc378daa952ba7f163c4a11628f55a4df523b3ef90611d7f9085815260200190565b60405180910390a35050565b600c546012546040516393f1a40b60e01b815260048101919091523060248201526000916001600160a01b0316906393f1a40b90604401604080518083038186803b158015611dd957600080fd5b505afa158015611ded573d6000803e3d6000fd5b505050506040513d601f19601f82011682018060405250810190611e119190612b15565b50600a8190556040518181529091507f8a0df8ef054fae2c3d2d19a7b322e864870cc9fd3cb07fb9526309c596244bf49060200160405180910390a150565b6001600160a01b038216600090815260046020526040902054611e739082611cb9565b6001600160a01b038316600090815260046020526040902055600354611e999082611cb9565b6003556040518181526000906001600160a01b038416907fddf252ad1be2c89b69c2b068fc378daa952ba7f163c4a11628f55a4df523b3ef90602001611d7f565b600854604080518082018252601981527f7472616e7366657228616464726573732c75696e74323536290000000000000060209182015281516001600160a01b0386811660248301526044808301879052845180840390910181526064909201845291810180516001600160e01b031663a9059cbb60e01b17905291516000938493921691611f6891612bbd565b6000604051808303816000865af19150503d8060008114611fa5576040519150601f19603f3d011682016040523d82523d6000602084013e611faa565b606091505b5091509150818015611fd4575080511580611fd4575080806020019051810190611fd49190612bd9565b6120205760405162461bcd60e51b815260206004820152601860248201527f416d706c6966793a205452414e534645525f4641494c454400000000000000006044820152606401610791565b50505050565b428510156120695760405162461bcd60e51b815260206004820152601060248201526f105b5c1b1a599e4e881156141254915160821b6044820152606401610791565b6001600160a01b0388166000908152600760205260408120805483918b918b918b91908661209683612bfb565b909155506040805160208101969096526001600160a01b0394851690860152929091166060840152608083015260a082015260c0810187905260e00160405160208183030381529060405280519060200120905060006006548260405160200161211792919061190160f01b81526002810192909252602282015260420190565b60408051601f198184030181528282528051602091820120600080855291840180845281905260ff8a169284019290925260608301889052608083018790529092509060019060a0016020604051602081039080840390855afa158015612182573d6000803e3d6000fd5b5050604051601f1901519150506001600160a01b038116158015906121b857508a6001600160a01b0316816001600160a01b0316145b6122045760405162461bcd60e51b815260206004820152601a60248201527f416d706c6966793a20494e56414c49445f5349474e41545552450000000000006044820152606401610791565b5050505050505050505050565b604080516001600160a01b038481166024830152604480830185905283518084039091018152606490920183526020820180516001600160e01b031663a9059cbb60e01b179052915160009283929087169161226d9190612bbd565b6000604051808303816000865af19150503d80600081146122aa576040519150601f19603f3d011682016040523d82523d6000602084013e6122af565b606091505b50915091508180156122d95750805115806122d95750808060200190518101906122d99190612bd9565b611c385760405162461bcd60e51b815260206004820152600d60248201526c10b9b0b332aa3930b739b332b960991b6044820152606401610791565b604080516002808252606082018352600092602083019080368337019050509050838160008151811061234a5761234a612c2c565b60200260200101906001600160a01b031690816001600160a01b031681525050828160018151811061237e5761237e612c2c565b60200260200101906001600160a01b031690816001600160a01b0316815250506123a88483612615565b600b546040516338ed173960e01b81526101009091046001600160a01b0316906338ed1739906123e5908590600090869030904290600401612c42565b600060405180830381600087803b1580156123ff57600080fd5b505af1158015612413573d6000803e3d6000fd5b505050506040513d6000823e601f3d908101601f19168201604052611c389190810190612cb3565b60008061244e84610f856103e8866125b6565b9050600061246784610f8560048189818c6103e86117de565b905060006124876124828361247c86806117de565b906125b6565b6126cc565b905060006124966002876117de565b90506124a6816106f48487611cb9565b98975050505050505050565b60006124be8584612615565b6124c88483612615565b600b5460405162e8e33760e81b81526001600160a01b0387811660048301528681166024830152604482018690526064820185905260006084830181905260a48301523060c48301524260e48301526101009092049091169063e8e337009061010401606060405180830381600087803b15801561254557600080fd5b505af1158015612559573d6000803e3d6000fd5b505050506040513d601f19601f8201168201806040525081019061257d9190612d65565b979650505050505050565b600081836125a95760405162461bcd60e51b815260040161079191906127f8565b5060006119888486612b4f565b6000806125c38385612d93565b90508381101561185d5760405162461bcd60e51b815260206004820152601b60248201527f536166654d6174683a206164646974696f6e206f766572666c6f7700000000006044820152606401610791565b600b54604051636eb1769f60e11b81523060048201526001600160a01b0361010090920482166024820152829184169063dd62ed3e9060440160206040518083038186803b15801561266657600080fd5b505afa15801561267a573d6000803e3d6000fd5b505050506040513d601f19601f8201168201806040525081019061269e9190612a74565b106126a7575050565b600b546126c8906001600160a01b0384811691610100900416600019611b35565b5050565b6000600382111561272d57508060006126e6600283612b4f565b6126f1906001612d93565b90505b818110156127275790508060028161270c8186612b4f565b6127169190612d93565b6127209190612b4f565b90506126f4565b50919050565b8115612737575060015b919050565b828054612748906129d8565b90600052602060002090601f01602090048101928261276a57600085556127b0565b82601f1061278357805160ff19168380011785556127b0565b828001600101855582156127b0579182015b828111156127b0578251825591602001919060010190612795565b506118f19291505b808211156118f157600081556001016127b8565b60005b838110156127e75781810151838201526020016127cf565b838111156120205750506000910152565b60208152600082518060208401526128178160408501602087016127cc565b601f01601f19169190910160400192915050565b6001600160a01b038116811461284057600080fd5b50565b6000806040838503121561285657600080fd5b82356128618161282b565b946020939093013593505050565b60008060006060848603121561288457600080fd5b833561288f8161282b565b9250602084013561289f8161282b565b929592945050506040919091013590565b600080600080600060a086880312156128c857600080fd5b85356128d38161282b565b945060208601356128e38161282b565b935060408601356128f38161282b565b94979396509394606081013594506080013592915050565b60006020828403121561291d57600080fd5b813561185d8161282b565b600080600080600080600060e0888a03121561294357600080fd5b873561294e8161282b565b9650602088013561295e8161282b565b95506040880135945060608801359350608088013560ff8116811461298257600080fd5b9699959850939692959460a0840135945060c09093013592915050565b600080604083850312156129b257600080fd5b82356129bd8161282b565b915060208301356129cd8161282b565b809150509250929050565b600181811c908216806129ec57607f821691505b6020821081141561272757634e487b7160e01b600052602260045260246000fd5b80516001600160701b038116811461273757600080fd5b600080600060608486031215612a3957600080fd5b612a4284612a0d565b9250612a5060208501612a0d565b9150604084015163ffffffff81168114612a6957600080fd5b809150509250925092565b600060208284031215612a8657600080fd5b5051919050565b600060208284031215612a9f57600080fd5b815161185d8161282b565b60008060008060808587031215612ac057600080fd5b8451612acb8161282b565b60208601516040870151606090970151919890975090945092505050565b602080825260129082015271105b5c1b1a599e4e8814915153951154915160721b604082015260600190565b60008060408385031215612b2857600080fd5b505080516020909101519092909150565b634e487b7160e01b600052601160045260246000fd5b600082612b6c57634e487b7160e01b600052601260045260246000fd5b500490565b634e487b7160e01b600052600160045260246000fd5b6000816000190483118215151615612ba157612ba1612b39565b500290565b600082821015612bb857612bb8612b39565b500390565b60008251612bcf8184602087016127cc565b9190910192915050565b600060208284031215612beb57600080fd5b8151801515811461185d57600080fd5b6000600019821415612c0f57612c0f612b39565b5060010190565b634e487b7160e01b600052604160045260246000fd5b634e487b7160e01b600052603260045260246000fd5b600060a082018783526020878185015260a0604085015281875180845260c086019150828901935060005b81811015612c925784516001600160a01b031683529383019391830191600101612c6d565b50506001600160a01b03969096166060850152505050608001529392505050565b60006020808385031215612cc657600080fd5b825167ffffffffffffffff80821115612cde57600080fd5b818501915085601f830112612cf257600080fd5b815181811115612d0457612d04612c16565b8060051b604051601f19603f83011681018181108582111715612d2957612d29612c16565b604052918252848201925083810185019188831115612d4757600080fd5b938501935b828510156124a657845184529385019392850192612d4c565b600080600060608486031215612d7a57600080fd5b8351925060208401519150604084015190509250925092565b60008219821115612da657612da6612b39565b50019056fea264697066735822122010b2b03ca7b6596126236e450a71a8833fdd249d35fd751ebb86e2bb758a377764736f6c63430008090033",
  "linkReferences": {},
  "deployedLinkReferences": {}
}